{
  "contracts/HuskyCoin.sol": {
    "HuskyCoin": {
      "abi": [
        {
          "inputs": [],
          "stateMutability": "nonpayable",
          "type": "constructor"
        },
        {
          "anonymous": false,
          "inputs": [
            {
              "indexed": true,
              "internalType": "address",
              "name": "owner",
              "type": "address"
            },
            {
              "indexed": true,
              "internalType": "address",
              "name": "spender",
              "type": "address"
            },
            {
              "indexed": false,
              "internalType": "uint256",
              "name": "value",
              "type": "uint256"
            }
          ],
          "name": "Approval",
          "type": "event"
        },
        {
          "anonymous": false,
          "inputs": [
            {
              "indexed": true,
              "internalType": "address",
              "name": "user",
              "type": "address"
            },
            {
              "indexed": false,
              "internalType": "uint256",
              "name": "amount",
              "type": "uint256"
            },
            {
              "indexed": false,
              "internalType": "uint256",
              "name": "index",
              "type": "uint256"
            },
            {
              "indexed": false,
              "internalType": "uint256",
              "name": "timestamp",
              "type": "uint256"
            }
          ],
          "name": "Staked",
          "type": "event"
        },
        {
          "anonymous": false,
          "inputs": [
            {
              "indexed": true,
              "internalType": "address",
              "name": "from",
              "type": "address"
            },
            {
              "indexed": true,
              "internalType": "address",
              "name": "to",
              "type": "address"
            },
            {
              "indexed": false,
              "internalType": "uint256",
              "name": "value",
              "type": "uint256"
            }
          ],
          "name": "Transfer",
          "type": "event"
        },
        {
          "anonymous": false,
          "inputs": [
            {
              "indexed": true,
              "internalType": "address",
              "name": "user",
              "type": "address"
            },
            {
              "indexed": false,
              "internalType": "uint256",
              "name": "amount",
              "type": "uint256"
            },
            {
              "indexed": false,
              "internalType": "uint256",
              "name": "index",
              "type": "uint256"
            },
            {
              "indexed": false,
              "internalType": "uint256",
              "name": "timestamp",
              "type": "uint256"
            }
          ],
          "name": "Unstaked",
          "type": "event"
        },
        {
          "inputs": [
            {
              "internalType": "address",
              "name": "owner",
              "type": "address"
            },
            {
              "internalType": "address",
              "name": "spender",
              "type": "address"
            }
          ],
          "name": "allowance",
          "outputs": [
            {
              "internalType": "uint256",
              "name": "",
              "type": "uint256"
            }
          ],
          "stateMutability": "view",
          "type": "function"
        },
        {
          "inputs": [
            {
              "internalType": "address",
              "name": "spender",
              "type": "address"
            },
            {
              "internalType": "uint256",
              "name": "amount",
              "type": "uint256"
            }
          ],
          "name": "approve",
          "outputs": [
            {
              "internalType": "bool",
              "name": "",
              "type": "bool"
            }
          ],
          "stateMutability": "nonpayable",
          "type": "function"
        },
        {
          "inputs": [
            {
              "internalType": "address",
              "name": "account",
              "type": "address"
            }
          ],
          "name": "balanceOf",
          "outputs": [
            {
              "internalType": "uint256",
              "name": "",
              "type": "uint256"
            }
          ],
          "stateMutability": "view",
          "type": "function"
        },
        {
          "inputs": [],
          "name": "decimals",
          "outputs": [
            {
              "internalType": "uint8",
              "name": "",
              "type": "uint8"
            }
          ],
          "stateMutability": "view",
          "type": "function"
        },
        {
          "inputs": [
            {
              "internalType": "address",
              "name": "spender",
              "type": "address"
            },
            {
              "internalType": "uint256",
              "name": "subtractedValue",
              "type": "uint256"
            }
          ],
          "name": "decreaseAllowance",
          "outputs": [
            {
              "internalType": "bool",
              "name": "",
              "type": "bool"
            }
          ],
          "stateMutability": "nonpayable",
          "type": "function"
        },
        {
          "inputs": [
            {
              "internalType": "address",
              "name": "_staker",
              "type": "address"
            }
          ],
          "name": "hasStake",
          "outputs": [
            {
              "components": [
                {
                  "internalType": "uint256",
                  "name": "totalAmount",
                  "type": "uint256"
                },
                {
                  "components": [
                    {
                      "internalType": "address",
                      "name": "user",
                      "type": "address"
                    },
                    {
                      "internalType": "uint256",
                      "name": "amount",
                      "type": "uint256"
                    },
                    {
                      "internalType": "uint256",
                      "name": "timeStamp",
                      "type": "uint256"
                    },
                    {
                      "internalType": "uint256",
                      "name": "claimable",
                      "type": "uint256"
                    }
                  ],
                  "internalType": "struct Stakeable.Stake[]",
                  "name": "stakes",
                  "type": "tuple[]"
                }
              ],
              "internalType": "struct Stakeable.StakingSummary",
              "name": "",
              "type": "tuple"
            }
          ],
          "stateMutability": "view",
          "type": "function"
        },
        {
          "inputs": [
            {
              "internalType": "address",
              "name": "spender",
              "type": "address"
            },
            {
              "internalType": "uint256",
              "name": "addedValue",
              "type": "uint256"
            }
          ],
          "name": "increaseAllowance",
          "outputs": [
            {
              "internalType": "bool",
              "name": "",
              "type": "bool"
            }
          ],
          "stateMutability": "nonpayable",
          "type": "function"
        },
        {
          "inputs": [
            {
              "internalType": "address",
              "name": "recipient",
              "type": "address"
            },
            {
              "internalType": "uint256",
              "name": "amount",
              "type": "uint256"
            }
          ],
          "name": "mint",
          "outputs": [],
          "stateMutability": "nonpayable",
          "type": "function"
        },
        {
          "inputs": [],
          "name": "name",
          "outputs": [
            {
              "internalType": "string",
              "name": "",
              "type": "string"
            }
          ],
          "stateMutability": "view",
          "type": "function"
        },
        {
          "inputs": [],
          "name": "purchase",
          "outputs": [],
          "stateMutability": "payable",
          "type": "function"
        },
        {
          "inputs": [
            {
              "internalType": "uint256",
              "name": "_amount",
              "type": "uint256"
            }
          ],
          "name": "stake",
          "outputs": [],
          "stateMutability": "nonpayable",
          "type": "function"
        },
        {
          "inputs": [],
          "name": "symbol",
          "outputs": [
            {
              "internalType": "string",
              "name": "",
              "type": "string"
            }
          ],
          "stateMutability": "view",
          "type": "function"
        },
        {
          "inputs": [],
          "name": "totalSupply",
          "outputs": [
            {
              "internalType": "uint256",
              "name": "",
              "type": "uint256"
            }
          ],
          "stateMutability": "view",
          "type": "function"
        },
        {
          "inputs": [
            {
              "internalType": "address",
              "name": "recipient",
              "type": "address"
            },
            {
              "internalType": "uint256",
              "name": "amount",
              "type": "uint256"
            }
          ],
          "name": "transfer",
          "outputs": [
            {
              "internalType": "bool",
              "name": "",
              "type": "bool"
            }
          ],
          "stateMutability": "nonpayable",
          "type": "function"
        },
        {
          "inputs": [
            {
              "internalType": "address",
              "name": "sender",
              "type": "address"
            },
            {
              "internalType": "address",
              "name": "recipient",
              "type": "address"
            },
            {
              "internalType": "uint256",
              "name": "amount",
              "type": "uint256"
            }
          ],
          "name": "transferFrom",
          "outputs": [
            {
              "internalType": "bool",
              "name": "",
              "type": "bool"
            }
          ],
          "stateMutability": "nonpayable",
          "type": "function"
        },
        {
          "inputs": [
            {
              "internalType": "uint256",
              "name": "amount",
              "type": "uint256"
            },
            {
              "internalType": "uint256",
              "name": "stakeIndex",
              "type": "uint256"
            }
          ],
          "name": "withdraw",
          "outputs": [],
          "stateMutability": "nonpayable",
          "type": "function"
        }
      ],
      "evm": {
        "bytecode": {
          "linkReferences": {},
          "object": "60806040526103e86005553480156200001757600080fd5b506040805180820182526009815268243ab9b5bca1b7b4b760b91b6020808301918252835180850190945260058452644855534b5960d81b908401528151919291620000669160039162000091565b5080516200007c90600490602084019062000091565b50506006805460010181556000525062000174565b8280546200009f9062000137565b90600052602060002090601f016020900481019282620000c357600085556200010e565b82601f10620000de57805160ff19168380011785556200010e565b828001600101855582156200010e579182015b828111156200010e578251825591602001919060010190620000f1565b506200011c92915062000120565b5090565b5b808211156200011c576000815560010162000121565b6002810460018216806200014c57607f821691505b602082108114156200016e57634e487b7160e01b600052602260045260246000fd5b50919050565b61178280620001846000396000f3fe6080604052600436106100f35760003560e01c806364edfbf01161008a578063a694fc3a11610059578063a694fc3a14610273578063a9059cbb14610293578063dd62ed3e146102b3578063e73e14bf146102d3576100f3565b806364edfbf01461021657806370a082311461021e57806395d89b411461023e578063a457c2d714610253576100f3565b8063313ce567116100c6578063313ce5671461019257806339509351146101b457806340c10f19146101d4578063441a3e70146101f6576100f3565b806306fdde03146100f8578063095ea7b31461012357806318160ddd1461015057806323b872dd14610172575b600080fd5b34801561010457600080fd5b5061010d610300565b60405161011a919061118a565b60405180910390f35b34801561012f57600080fd5b5061014361013e36600461111d565b610392565b60405161011a919061117f565b34801561015c57600080fd5b506101656103af565b60405161011a9190611660565b34801561017e57600080fd5b5061014361018d3660046110e2565b6103b5565b34801561019e57600080fd5b506101a761044e565b60405161011a919061167f565b3480156101c057600080fd5b506101436101cf36600461111d565b610453565b3480156101e057600080fd5b506101f46101ef36600461111d565b6104a7565b005b34801561020257600080fd5b506101f461021136600461115e565b6104b5565b6101f46104d2565b34801561022a57600080fd5b5061016561023936600461108f565b610539565b34801561024a57600080fd5b5061010d610558565b34801561025f57600080fd5b5061014361026e36600461111d565b610567565b34801561027f57600080fd5b506101f461028e366004611146565b6105e0565b34801561029f57600080fd5b506101436102ae36600461111d565b61061d565b3480156102bf57600080fd5b506101656102ce3660046110b0565b610631565b3480156102df57600080fd5b506102f36102ee36600461108f565b61065c565b60405161011a91906115e0565b60606003805461030f906116fb565b80601f016020809104026020016040519081016040528092919081815260200182805461033b906116fb565b80156103885780601f1061035d57610100808354040283529160200191610388565b820191906000526020600020905b81548152906001019060200180831161036b57829003601f168201915b5050505050905090565b60006103a661039f61082d565b8484610831565b50600192915050565b60025490565b60006103c28484846108e5565b6001600160a01b0384166000908152600160205260408120816103e361082d565b6001600160a01b03166001600160a01b031681526020019081526020016000205490508281101561042f5760405162461bcd60e51b81526004016104269061141b565b60405180910390fd5b6104438561043b61082d565b858403610831565b506001949350505050565b601290565b60006103a661046061082d565b84846001600061046e61082d565b6001600160a01b03908116825260208083019390935260409182016000908120918b16815292529020546104a2919061168d565b610831565b6104b18282610a0f565b5050565b60006104c18383610ad7565b90506104cd3382610a0f565b505050565b600034116104f25760405162461bcd60e51b815260040161042690611463565b60006104fc6103af565b905060008160095461050e91906116e4565b905080341061052f5760405162461bcd60e51b815260040161042690611341565b6104b13334610a0f565b6001600160a01b0381166000908152602081905260409020545b919050565b60606004805461030f906116fb565b6000806001600061057661082d565b6001600160a01b03908116825260208083019390935260409182016000908120918816815292529020549050828110156105c25760405162461bcd60e51b815260040161042690611564565b6105d66105cd61082d565b85858403610831565b5060019392505050565b6105e933610539565b81106106075760405162461bcd60e51b815260040161042690611220565b61061081610d82565b61061a3382610ea8565b50565b60006103a661062a61082d565b84846108e5565b6001600160a01b03918216600090815260016020908152604080832093909416825291909152205490565b61066461105e565b600080604051806040016040528060008152602001600660076000886001600160a01b03166001600160a01b0316815260200190815260200160002054815481106106bf57634e487b7160e01b600052603260045260246000fd5b9060005260206000209060020201600101805480602002602001604051908101604052809291908181526020016000905b8282101561074d576000848152602090819020604080516080810182526004860290920180546001600160a01b031683526001808201548486015260028201549284019290925260030154606083015290835290920191016106f0565b505050915250905060005b81602001515181101561082357600061079b8360200151838151811061078e57634e487b7160e01b600052603260045260246000fd5b6020026020010151610f99565b905080836020015183815181106107c257634e487b7160e01b600052603260045260246000fd5b60200260200101516060018181525050826020015182815181106107f657634e487b7160e01b600052603260045260246000fd5b6020026020010151602001518461080d919061168d565b935061081c905060018261168d565b9050610758565b5090815292915050565b3390565b6001600160a01b0383166108575760405162461bcd60e51b815260040161042690611520565b6001600160a01b03821661087d5760405162461bcd60e51b8152600401610426906112ff565b6001600160a01b0380841660008181526001602090815260408083209487168084529490915290819020849055517f8c5be1e5ebec7d5bd14f71427d1e84f3dd0314c0f7b2291e5b200ac8c7c3b925906108d8908590611660565b60405180910390a3505050565b6001600160a01b03831661090b5760405162461bcd60e51b8152600401610426906114db565b6001600160a01b0382166109315760405162461bcd60e51b8152600401610426906111dd565b61093c8383836104cd565b6001600160a01b038316600090815260208190526040902054818110156109755760405162461bcd60e51b8152600401610426906113d5565b6001600160a01b038085166000908152602081905260408082208585039055918516815290812080548492906109ac90849061168d565b92505081905550826001600160a01b0316846001600160a01b03167fddf252ad1be2c89b69c2b068fc378daa952ba7f163c4a11628f55a4df523b3ef846040516109f69190611660565b60405180910390a3610a098484846104cd565b50505050565b6001600160a01b038216610a355760405162461bcd60e51b8152600401610426906115a9565b610a41600083836104cd565b8060026000828254610a53919061168d565b90915550506001600160a01b03821660009081526020819052604081208054839290610a8090849061168d565b90915550506040516001600160a01b038316906000907fddf252ad1be2c89b69c2b068fc378daa952ba7f163c4a11628f55a4df523b3ef90610ac3908590611660565b60405180910390a36104b1600083836104cd565b336000908152600760205260408120546006805483919083908110610b0c57634e487b7160e01b600052603260045260246000fd5b90600052602060002090600202016001018481548110610b3c57634e487b7160e01b600052603260045260246000fd5b600091825260209182902060408051608081018252600490930290910180546001600160a01b0316835260018101549383018490526002810154918301919091526003015460608201529150851115610ba75760405162461bcd60e51b815260040161042690611271565b426000610bb383610f99565b9050868360200151610bc591906116e4565b60208401819052610c555760068481548110610bf157634e487b7160e01b600052603260045260246000fd5b90600052602060002090600202016001018681548110610c2157634e487b7160e01b600052603260045260246000fd5b60009182526020822060049091020180546001600160a01b0319168155600181018290556002810182905560030155610d28565b826020015160068581548110610c7b57634e487b7160e01b600052603260045260246000fd5b90600052602060002090600202016001018781548110610cab57634e487b7160e01b600052603260045260246000fd5b9060005260206000209060040201600101819055504260068581548110610ce257634e487b7160e01b600052603260045260246000fd5b90600052602060002090600202016001018781548110610d1257634e487b7160e01b600052603260045260246000fd5b9060005260206000209060040201600201819055505b336001600160a01b03167f204fccf0d92ed8d48f204adb39b2e81e92bad0dedb93f5716ca9478cfb57de00888885604051610d6593929190611669565b60405180910390a2610d77818861168d565b979650505050505050565b60008111610da25760405162461bcd60e51b81526004016104269061139e565b336000908152600760205260409020544281610dc457610dc133610fda565b91505b60068281548110610de557634e487b7160e01b600052603260045260246000fd5b6000918252602080832060408051608081018252338082528185018a8152828401898152606084018981526002988902909601600190810180548083018255908b52979099209351600490970290930180546001600160a01b0319166001600160a01b039097169690961786555196850196909655519383019390935551600390910155517fb4caaf29adda3eefee3ad552a8e85058589bf834c7466cae4ee58787f70589ed90610e9b90869086908690611669565b60405180910390a2505050565b6001600160a01b038216610ece5760405162461bcd60e51b81526004016104269061149a565b610eda826000836104cd565b6001600160a01b03821660009081526020819052604090205481811015610f135760405162461bcd60e51b8152600401610426906112bd565b6001600160a01b0383166000908152602081905260408120838303905560028054849290610f429084906116e4565b90915550506040516000906001600160a01b038516907fddf252ad1be2c89b69c2b068fc378daa952ba7f163c4a11628f55a4df523b3ef90610f85908690611660565b60405180910390a36104cd836000846104cd565b60006005548260200151610e10846040015142610fb691906116e4565b610fc091906116a5565b610fca91906116c5565b610fd491906116a5565b92915050565b60068054600190810180835560009283528291610ff6916116e4565b9050826006828154811061101a57634e487b7160e01b600052603260045260246000fd5b6000918252602080832060029290920290910180546001600160a01b0319166001600160a01b03948516179055949091168152600790935260409092208290555090565b604051806040016040528060008152602001606081525090565b80356001600160a01b038116811461055357600080fd5b6000602082840312156110a0578081fd5b6110a982611078565b9392505050565b600080604083850312156110c2578081fd5b6110cb83611078565b91506110d960208401611078565b90509250929050565b6000806000606084860312156110f6578081fd5b6110ff84611078565b925061110d60208501611078565b9150604084013590509250925092565b6000806040838503121561112f578182fd5b61113883611078565b946020939093013593505050565b600060208284031215611157578081fd5b5035919050565b60008060408385031215611170578182fd5b50508035926020909101359150565b901515815260200190565b6000602080835283518082850152825b818110156111b65785810183015185820160400152820161119a565b818111156111c75783604083870101525b50601f01601f1916929092016040019392505050565b60208082526023908201527f45524332303a207472616e7366657220746f20746865207a65726f206164647260408201526265737360e81b606082015260800190565b60208082526031908201527f596f7520646f6e2774206861766520656e6f75676820746f6b656e7320746f206040820152701cdd185ad9481d1a185d08185b5bdd5b9d607a1b606082015260800190565b6020808252602c908201527f43616e6e6f7420756e7374616b65206d6f7265207468616e20796f757220737460408201526b616b65642062616c616e636560a01b606082015260800190565b60208082526022908201527f45524332303a206275726e20616d6f756e7420657863656564732062616c616e604082015261636560f01b606082015260800190565b60208082526022908201527f45524332303a20617070726f766520746f20746865207a65726f206164647265604082015261737360f01b606082015260800190565b6020808252603d908201527f43616e6e6f74207075726368617365206d6f7265207468616e2072656d61696e60408201527f696e6720756e6d696e74656420737570706c79206f66204855534b5921000000606082015260800190565b6020808252601e908201527f416d6f756e742070726f76696465642063616e6e6f74206265203d3d20300000604082015260600190565b60208082526026908201527f45524332303a207472616e7366657220616d6f756e7420657863656564732062604082015265616c616e636560d01b606082015260800190565b60208082526028908201527f45524332303a207472616e7366657220616d6f756e74206578636565647320616040820152676c6c6f77616e636560c01b606082015260800190565b6020808252601b908201527f507572636861736520616d6f756e74206d757374206265203e20300000000000604082015260600190565b60208082526021908201527f45524332303a206275726e2066726f6d20746865207a65726f206164647265736040820152607360f81b606082015260800190565b60208082526025908201527f45524332303a207472616e736665722066726f6d20746865207a65726f206164604082015264647265737360d81b606082015260800190565b60208082526024908201527f45524332303a20617070726f76652066726f6d20746865207a65726f206164646040820152637265737360e01b606082015260800190565b60208082526025908201527f45524332303a2064656372656173656420616c6c6f77616e63652062656c6f77604082015264207a65726f60d81b606082015260800190565b6020808252601f908201527f45524332303a206d696e7420746f20746865207a65726f206164647265737300604082015260600190565b60006020808352606080840185518386015282860151604080818801528282518085526080945084890191508684019350875b8181101561165157845180516001600160a01b0316845288810151898501528481015185850152870151878401529387019391850191600101611613565b50909998505050505050505050565b90815260200190565b9283526020830191909152604082015260600190565b60ff91909116815260200190565b600082198211156116a0576116a0611736565b500190565b6000826116c057634e487b7160e01b81526012600452602481fd5b500490565b60008160001904831182151516156116df576116df611736565b500290565b6000828210156116f6576116f6611736565b500390565b60028104600182168061170f57607f821691505b6020821081141561173057634e487b7160e01b600052602260045260246000fd5b50919050565b634e487b7160e01b600052601160045260246000fdfea2646970667358221220208e9d3bdc54960d86f7615b660c2e9c1efa23b2b1af85b2be514991efa0db3d64736f6c63430008000033",
          "opcodes": "PUSH1 0x80 PUSH1 0x40 MSTORE PUSH2 0x3E8 PUSH1 0x5 SSTORE CALLVALUE DUP1 ISZERO PUSH3 0x17 JUMPI PUSH1 0x0 DUP1 REVERT JUMPDEST POP PUSH1 0x40 DUP1 MLOAD DUP1 DUP3 ADD DUP3 MSTORE PUSH1 0x9 DUP2 MSTORE PUSH9 0x243AB9B5BCA1B7B4B7 PUSH1 0xB9 SHL PUSH1 0x20 DUP1 DUP4 ADD SWAP2 DUP3 MSTORE DUP4 MLOAD DUP1 DUP6 ADD SWAP1 SWAP5 MSTORE PUSH1 0x5 DUP5 MSTORE PUSH5 0x4855534B59 PUSH1 0xD8 SHL SWAP1 DUP5 ADD MSTORE DUP2 MLOAD SWAP2 SWAP3 SWAP2 PUSH3 0x66 SWAP2 PUSH1 0x3 SWAP2 PUSH3 0x91 JUMP JUMPDEST POP DUP1 MLOAD PUSH3 0x7C SWAP1 PUSH1 0x4 SWAP1 PUSH1 0x20 DUP5 ADD SWAP1 PUSH3 0x91 JUMP JUMPDEST POP POP PUSH1 0x6 DUP1 SLOAD PUSH1 0x1 ADD DUP2 SSTORE PUSH1 0x0 MSTORE POP PUSH3 0x174 JUMP JUMPDEST DUP3 DUP1 SLOAD PUSH3 0x9F SWAP1 PUSH3 0x137 JUMP JUMPDEST SWAP1 PUSH1 0x0 MSTORE PUSH1 0x20 PUSH1 0x0 KECCAK256 SWAP1 PUSH1 0x1F ADD PUSH1 0x20 SWAP1 DIV DUP2 ADD SWAP3 DUP3 PUSH3 0xC3 JUMPI PUSH1 0x0 DUP6 SSTORE PUSH3 0x10E JUMP JUMPDEST DUP3 PUSH1 0x1F LT PUSH3 0xDE JUMPI DUP1 MLOAD PUSH1 0xFF NOT AND DUP4 DUP1 ADD OR DUP6 SSTORE PUSH3 0x10E JUMP JUMPDEST DUP3 DUP1 ADD PUSH1 0x1 ADD DUP6 SSTORE DUP3 ISZERO PUSH3 0x10E JUMPI SWAP2 DUP3 ADD JUMPDEST DUP3 DUP2 GT ISZERO PUSH3 0x10E JUMPI DUP3 MLOAD DUP3 SSTORE SWAP2 PUSH1 0x20 ADD SWAP2 SWAP1 PUSH1 0x1 ADD SWAP1 PUSH3 0xF1 JUMP JUMPDEST POP PUSH3 0x11C SWAP3 SWAP2 POP PUSH3 0x120 JUMP JUMPDEST POP SWAP1 JUMP JUMPDEST JUMPDEST DUP1 DUP3 GT ISZERO PUSH3 0x11C JUMPI PUSH1 0x0 DUP2 SSTORE PUSH1 0x1 ADD PUSH3 0x121 JUMP JUMPDEST PUSH1 0x2 DUP2 DIV PUSH1 0x1 DUP3 AND DUP1 PUSH3 0x14C JUMPI PUSH1 0x7F DUP3 AND SWAP2 POP JUMPDEST PUSH1 0x20 DUP3 LT DUP2 EQ ISZERO PUSH3 0x16E JUMPI PUSH4 0x4E487B71 PUSH1 0xE0 SHL PUSH1 0x0 MSTORE PUSH1 0x22 PUSH1 0x4 MSTORE PUSH1 0x24 PUSH1 0x0 REVERT JUMPDEST POP SWAP2 SWAP1 POP JUMP JUMPDEST PUSH2 0x1782 DUP1 PUSH3 0x184 PUSH1 0x0 CODECOPY PUSH1 0x0 RETURN INVALID PUSH1 0x80 PUSH1 0x40 MSTORE PUSH1 0x4 CALLDATASIZE LT PUSH2 0xF3 JUMPI PUSH1 0x0 CALLDATALOAD PUSH1 0xE0 SHR DUP1 PUSH4 0x64EDFBF0 GT PUSH2 0x8A JUMPI DUP1 PUSH4 0xA694FC3A GT PUSH2 0x59 JUMPI DUP1 PUSH4 0xA694FC3A EQ PUSH2 0x273 JUMPI DUP1 PUSH4 0xA9059CBB EQ PUSH2 0x293 JUMPI DUP1 PUSH4 0xDD62ED3E EQ PUSH2 0x2B3 JUMPI DUP1 PUSH4 0xE73E14BF EQ PUSH2 0x2D3 JUMPI PUSH2 0xF3 JUMP JUMPDEST DUP1 PUSH4 0x64EDFBF0 EQ PUSH2 0x216 JUMPI DUP1 PUSH4 0x70A08231 EQ PUSH2 0x21E JUMPI DUP1 PUSH4 0x95D89B41 EQ PUSH2 0x23E JUMPI DUP1 PUSH4 0xA457C2D7 EQ PUSH2 0x253 JUMPI PUSH2 0xF3 JUMP JUMPDEST DUP1 PUSH4 0x313CE567 GT PUSH2 0xC6 JUMPI DUP1 PUSH4 0x313CE567 EQ PUSH2 0x192 JUMPI DUP1 PUSH4 0x39509351 EQ PUSH2 0x1B4 JUMPI DUP1 PUSH4 0x40C10F19 EQ PUSH2 0x1D4 JUMPI DUP1 PUSH4 0x441A3E70 EQ PUSH2 0x1F6 JUMPI PUSH2 0xF3 JUMP JUMPDEST DUP1 PUSH4 0x6FDDE03 EQ PUSH2 0xF8 JUMPI DUP1 PUSH4 0x95EA7B3 EQ PUSH2 0x123 JUMPI DUP1 PUSH4 0x18160DDD EQ PUSH2 0x150 JUMPI DUP1 PUSH4 0x23B872DD EQ PUSH2 0x172 JUMPI JUMPDEST PUSH1 0x0 DUP1 REVERT JUMPDEST CALLVALUE DUP1 ISZERO PUSH2 0x104 JUMPI PUSH1 0x0 DUP1 REVERT JUMPDEST POP PUSH2 0x10D PUSH2 0x300 JUMP JUMPDEST PUSH1 0x40 MLOAD PUSH2 0x11A SWAP2 SWAP1 PUSH2 0x118A JUMP JUMPDEST PUSH1 0x40 MLOAD DUP1 SWAP2 SUB SWAP1 RETURN JUMPDEST CALLVALUE DUP1 ISZERO PUSH2 0x12F JUMPI PUSH1 0x0 DUP1 REVERT JUMPDEST POP PUSH2 0x143 PUSH2 0x13E CALLDATASIZE PUSH1 0x4 PUSH2 0x111D JUMP JUMPDEST PUSH2 0x392 JUMP JUMPDEST PUSH1 0x40 MLOAD PUSH2 0x11A SWAP2 SWAP1 PUSH2 0x117F JUMP JUMPDEST CALLVALUE DUP1 ISZERO PUSH2 0x15C JUMPI PUSH1 0x0 DUP1 REVERT JUMPDEST POP PUSH2 0x165 PUSH2 0x3AF JUMP JUMPDEST PUSH1 0x40 MLOAD PUSH2 0x11A SWAP2 SWAP1 PUSH2 0x1660 JUMP JUMPDEST CALLVALUE DUP1 ISZERO PUSH2 0x17E JUMPI PUSH1 0x0 DUP1 REVERT JUMPDEST POP PUSH2 0x143 PUSH2 0x18D CALLDATASIZE PUSH1 0x4 PUSH2 0x10E2 JUMP JUMPDEST PUSH2 0x3B5 JUMP JUMPDEST CALLVALUE DUP1 ISZERO PUSH2 0x19E JUMPI PUSH1 0x0 DUP1 REVERT JUMPDEST POP PUSH2 0x1A7 PUSH2 0x44E JUMP JUMPDEST PUSH1 0x40 MLOAD PUSH2 0x11A SWAP2 SWAP1 PUSH2 0x167F JUMP JUMPDEST CALLVALUE DUP1 ISZERO PUSH2 0x1C0 JUMPI PUSH1 0x0 DUP1 REVERT JUMPDEST POP PUSH2 0x143 PUSH2 0x1CF CALLDATASIZE PUSH1 0x4 PUSH2 0x111D JUMP JUMPDEST PUSH2 0x453 JUMP JUMPDEST CALLVALUE DUP1 ISZERO PUSH2 0x1E0 JUMPI PUSH1 0x0 DUP1 REVERT JUMPDEST POP PUSH2 0x1F4 PUSH2 0x1EF CALLDATASIZE PUSH1 0x4 PUSH2 0x111D JUMP JUMPDEST PUSH2 0x4A7 JUMP JUMPDEST STOP JUMPDEST CALLVALUE DUP1 ISZERO PUSH2 0x202 JUMPI PUSH1 0x0 DUP1 REVERT JUMPDEST POP PUSH2 0x1F4 PUSH2 0x211 CALLDATASIZE PUSH1 0x4 PUSH2 0x115E JUMP JUMPDEST PUSH2 0x4B5 JUMP JUMPDEST PUSH2 0x1F4 PUSH2 0x4D2 JUMP JUMPDEST CALLVALUE DUP1 ISZERO PUSH2 0x22A JUMPI PUSH1 0x0 DUP1 REVERT JUMPDEST POP PUSH2 0x165 PUSH2 0x239 CALLDATASIZE PUSH1 0x4 PUSH2 0x108F JUMP JUMPDEST PUSH2 0x539 JUMP JUMPDEST CALLVALUE DUP1 ISZERO PUSH2 0x24A JUMPI PUSH1 0x0 DUP1 REVERT JUMPDEST POP PUSH2 0x10D PUSH2 0x558 JUMP JUMPDEST CALLVALUE DUP1 ISZERO PUSH2 0x25F JUMPI PUSH1 0x0 DUP1 REVERT JUMPDEST POP PUSH2 0x143 PUSH2 0x26E CALLDATASIZE PUSH1 0x4 PUSH2 0x111D JUMP JUMPDEST PUSH2 0x567 JUMP JUMPDEST CALLVALUE DUP1 ISZERO PUSH2 0x27F JUMPI PUSH1 0x0 DUP1 REVERT JUMPDEST POP PUSH2 0x1F4 PUSH2 0x28E CALLDATASIZE PUSH1 0x4 PUSH2 0x1146 JUMP JUMPDEST PUSH2 0x5E0 JUMP JUMPDEST CALLVALUE DUP1 ISZERO PUSH2 0x29F JUMPI PUSH1 0x0 DUP1 REVERT JUMPDEST POP PUSH2 0x143 PUSH2 0x2AE CALLDATASIZE PUSH1 0x4 PUSH2 0x111D JUMP JUMPDEST PUSH2 0x61D JUMP JUMPDEST CALLVALUE DUP1 ISZERO PUSH2 0x2BF JUMPI PUSH1 0x0 DUP1 REVERT JUMPDEST POP PUSH2 0x165 PUSH2 0x2CE CALLDATASIZE PUSH1 0x4 PUSH2 0x10B0 JUMP JUMPDEST PUSH2 0x631 JUMP JUMPDEST CALLVALUE DUP1 ISZERO PUSH2 0x2DF JUMPI PUSH1 0x0 DUP1 REVERT JUMPDEST POP PUSH2 0x2F3 PUSH2 0x2EE CALLDATASIZE PUSH1 0x4 PUSH2 0x108F JUMP JUMPDEST PUSH2 0x65C JUMP JUMPDEST PUSH1 0x40 MLOAD PUSH2 0x11A SWAP2 SWAP1 PUSH2 0x15E0 JUMP JUMPDEST PUSH1 0x60 PUSH1 0x3 DUP1 SLOAD PUSH2 0x30F SWAP1 PUSH2 0x16FB JUMP JUMPDEST DUP1 PUSH1 0x1F ADD PUSH1 0x20 DUP1 SWAP2 DIV MUL PUSH1 0x20 ADD PUSH1 0x40 MLOAD SWAP1 DUP2 ADD PUSH1 0x40 MSTORE DUP1 SWAP3 SWAP2 SWAP1 DUP2 DUP2 MSTORE PUSH1 0x20 ADD DUP3 DUP1 SLOAD PUSH2 0x33B SWAP1 PUSH2 0x16FB JUMP JUMPDEST DUP1 ISZERO PUSH2 0x388 JUMPI DUP1 PUSH1 0x1F LT PUSH2 0x35D JUMPI PUSH2 0x100 DUP1 DUP4 SLOAD DIV MUL DUP4 MSTORE SWAP2 PUSH1 0x20 ADD SWAP2 PUSH2 0x388 JUMP JUMPDEST DUP3 ADD SWAP2 SWAP1 PUSH1 0x0 MSTORE PUSH1 0x20 PUSH1 0x0 KECCAK256 SWAP1 JUMPDEST DUP2 SLOAD DUP2 MSTORE SWAP1 PUSH1 0x1 ADD SWAP1 PUSH1 0x20 ADD DUP1 DUP4 GT PUSH2 0x36B JUMPI DUP3 SWAP1 SUB PUSH1 0x1F AND DUP3 ADD SWAP2 JUMPDEST POP POP POP POP POP SWAP1 POP SWAP1 JUMP JUMPDEST PUSH1 0x0 PUSH2 0x3A6 PUSH2 0x39F PUSH2 0x82D JUMP JUMPDEST DUP5 DUP5 PUSH2 0x831 JUMP JUMPDEST POP PUSH1 0x1 SWAP3 SWAP2 POP POP JUMP JUMPDEST PUSH1 0x2 SLOAD SWAP1 JUMP JUMPDEST PUSH1 0x0 PUSH2 0x3C2 DUP5 DUP5 DUP5 PUSH2 0x8E5 JUMP JUMPDEST PUSH1 0x1 PUSH1 0x1 PUSH1 0xA0 SHL SUB DUP5 AND PUSH1 0x0 SWAP1 DUP2 MSTORE PUSH1 0x1 PUSH1 0x20 MSTORE PUSH1 0x40 DUP2 KECCAK256 DUP2 PUSH2 0x3E3 PUSH2 0x82D JUMP JUMPDEST PUSH1 0x1 PUSH1 0x1 PUSH1 0xA0 SHL SUB AND PUSH1 0x1 PUSH1 0x1 PUSH1 0xA0 SHL SUB AND DUP2 MSTORE PUSH1 0x20 ADD SWAP1 DUP2 MSTORE PUSH1 0x20 ADD PUSH1 0x0 KECCAK256 SLOAD SWAP1 POP DUP3 DUP2 LT ISZERO PUSH2 0x42F JUMPI PUSH1 0x40 MLOAD PUSH3 0x461BCD PUSH1 0xE5 SHL DUP2 MSTORE PUSH1 0x4 ADD PUSH2 0x426 SWAP1 PUSH2 0x141B JUMP JUMPDEST PUSH1 0x40 MLOAD DUP1 SWAP2 SUB SWAP1 REVERT JUMPDEST PUSH2 0x443 DUP6 PUSH2 0x43B PUSH2 0x82D JUMP JUMPDEST DUP6 DUP5 SUB PUSH2 0x831 JUMP JUMPDEST POP PUSH1 0x1 SWAP5 SWAP4 POP POP POP POP JUMP JUMPDEST PUSH1 0x12 SWAP1 JUMP JUMPDEST PUSH1 0x0 PUSH2 0x3A6 PUSH2 0x460 PUSH2 0x82D JUMP JUMPDEST DUP5 DUP5 PUSH1 0x1 PUSH1 0x0 PUSH2 0x46E PUSH2 0x82D JUMP JUMPDEST PUSH1 0x1 PUSH1 0x1 PUSH1 0xA0 SHL SUB SWAP1 DUP2 AND DUP3 MSTORE PUSH1 0x20 DUP1 DUP4 ADD SWAP4 SWAP1 SWAP4 MSTORE PUSH1 0x40 SWAP2 DUP3 ADD PUSH1 0x0 SWAP1 DUP2 KECCAK256 SWAP2 DUP12 AND DUP2 MSTORE SWAP3 MSTORE SWAP1 KECCAK256 SLOAD PUSH2 0x4A2 SWAP2 SWAP1 PUSH2 0x168D JUMP JUMPDEST PUSH2 0x831 JUMP JUMPDEST PUSH2 0x4B1 DUP3 DUP3 PUSH2 0xA0F JUMP JUMPDEST POP POP JUMP JUMPDEST PUSH1 0x0 PUSH2 0x4C1 DUP4 DUP4 PUSH2 0xAD7 JUMP JUMPDEST SWAP1 POP PUSH2 0x4CD CALLER DUP3 PUSH2 0xA0F JUMP JUMPDEST POP POP POP JUMP JUMPDEST PUSH1 0x0 CALLVALUE GT PUSH2 0x4F2 JUMPI PUSH1 0x40 MLOAD PUSH3 0x461BCD PUSH1 0xE5 SHL DUP2 MSTORE PUSH1 0x4 ADD PUSH2 0x426 SWAP1 PUSH2 0x1463 JUMP JUMPDEST PUSH1 0x0 PUSH2 0x4FC PUSH2 0x3AF JUMP JUMPDEST SWAP1 POP PUSH1 0x0 DUP2 PUSH1 0x9 SLOAD PUSH2 0x50E SWAP2 SWAP1 PUSH2 0x16E4 JUMP JUMPDEST SWAP1 POP DUP1 CALLVALUE LT PUSH2 0x52F JUMPI PUSH1 0x40 MLOAD PUSH3 0x461BCD PUSH1 0xE5 SHL DUP2 MSTORE PUSH1 0x4 ADD PUSH2 0x426 SWAP1 PUSH2 0x1341 JUMP JUMPDEST PUSH2 0x4B1 CALLER CALLVALUE PUSH2 0xA0F JUMP JUMPDEST PUSH1 0x1 PUSH1 0x1 PUSH1 0xA0 SHL SUB DUP2 AND PUSH1 0x0 SWAP1 DUP2 MSTORE PUSH1 0x20 DUP2 SWAP1 MSTORE PUSH1 0x40 SWAP1 KECCAK256 SLOAD JUMPDEST SWAP2 SWAP1 POP JUMP JUMPDEST PUSH1 0x60 PUSH1 0x4 DUP1 SLOAD PUSH2 0x30F SWAP1 PUSH2 0x16FB JUMP JUMPDEST PUSH1 0x0 DUP1 PUSH1 0x1 PUSH1 0x0 PUSH2 0x576 PUSH2 0x82D JUMP JUMPDEST PUSH1 0x1 PUSH1 0x1 PUSH1 0xA0 SHL SUB SWAP1 DUP2 AND DUP3 MSTORE PUSH1 0x20 DUP1 DUP4 ADD SWAP4 SWAP1 SWAP4 MSTORE PUSH1 0x40 SWAP2 DUP3 ADD PUSH1 0x0 SWAP1 DUP2 KECCAK256 SWAP2 DUP9 AND DUP2 MSTORE SWAP3 MSTORE SWAP1 KECCAK256 SLOAD SWAP1 POP DUP3 DUP2 LT ISZERO PUSH2 0x5C2 JUMPI PUSH1 0x40 MLOAD PUSH3 0x461BCD PUSH1 0xE5 SHL DUP2 MSTORE PUSH1 0x4 ADD PUSH2 0x426 SWAP1 PUSH2 0x1564 JUMP JUMPDEST PUSH2 0x5D6 PUSH2 0x5CD PUSH2 0x82D JUMP JUMPDEST DUP6 DUP6 DUP5 SUB PUSH2 0x831 JUMP JUMPDEST POP PUSH1 0x1 SWAP4 SWAP3 POP POP POP JUMP JUMPDEST PUSH2 0x5E9 CALLER PUSH2 0x539 JUMP JUMPDEST DUP2 LT PUSH2 0x607 JUMPI PUSH1 0x40 MLOAD PUSH3 0x461BCD PUSH1 0xE5 SHL DUP2 MSTORE PUSH1 0x4 ADD PUSH2 0x426 SWAP1 PUSH2 0x1220 JUMP JUMPDEST PUSH2 0x610 DUP2 PUSH2 0xD82 JUMP JUMPDEST PUSH2 0x61A CALLER DUP3 PUSH2 0xEA8 JUMP JUMPDEST POP JUMP JUMPDEST PUSH1 0x0 PUSH2 0x3A6 PUSH2 0x62A PUSH2 0x82D JUMP JUMPDEST DUP5 DUP5 PUSH2 0x8E5 JUMP JUMPDEST PUSH1 0x1 PUSH1 0x1 PUSH1 0xA0 SHL SUB SWAP2 DUP3 AND PUSH1 0x0 SWAP1 DUP2 MSTORE PUSH1 0x1 PUSH1 0x20 SWAP1 DUP2 MSTORE PUSH1 0x40 DUP1 DUP4 KECCAK256 SWAP4 SWAP1 SWAP5 AND DUP3 MSTORE SWAP2 SWAP1 SWAP2 MSTORE KECCAK256 SLOAD SWAP1 JUMP JUMPDEST PUSH2 0x664 PUSH2 0x105E JUMP JUMPDEST PUSH1 0x0 DUP1 PUSH1 0x40 MLOAD DUP1 PUSH1 0x40 ADD PUSH1 0x40 MSTORE DUP1 PUSH1 0x0 DUP2 MSTORE PUSH1 0x20 ADD PUSH1 0x6 PUSH1 0x7 PUSH1 0x0 DUP9 PUSH1 0x1 PUSH1 0x1 PUSH1 0xA0 SHL SUB AND PUSH1 0x1 PUSH1 0x1 PUSH1 0xA0 SHL SUB AND DUP2 MSTORE PUSH1 0x20 ADD SWAP1 DUP2 MSTORE PUSH1 0x20 ADD PUSH1 0x0 KECCAK256 SLOAD DUP2 SLOAD DUP2 LT PUSH2 0x6BF JUMPI PUSH4 0x4E487B71 PUSH1 0xE0 SHL PUSH1 0x0 MSTORE PUSH1 0x32 PUSH1 0x4 MSTORE PUSH1 0x24 PUSH1 0x0 REVERT JUMPDEST SWAP1 PUSH1 0x0 MSTORE PUSH1 0x20 PUSH1 0x0 KECCAK256 SWAP1 PUSH1 0x2 MUL ADD PUSH1 0x1 ADD DUP1 SLOAD DUP1 PUSH1 0x20 MUL PUSH1 0x20 ADD PUSH1 0x40 MLOAD SWAP1 DUP2 ADD PUSH1 0x40 MSTORE DUP1 SWAP3 SWAP2 SWAP1 DUP2 DUP2 MSTORE PUSH1 0x20 ADD PUSH1 0x0 SWAP1 JUMPDEST DUP3 DUP3 LT ISZERO PUSH2 0x74D JUMPI PUSH1 0x0 DUP5 DUP2 MSTORE PUSH1 0x20 SWAP1 DUP2 SWAP1 KECCAK256 PUSH1 0x40 DUP1 MLOAD PUSH1 0x80 DUP2 ADD DUP3 MSTORE PUSH1 0x4 DUP7 MUL SWAP1 SWAP3 ADD DUP1 SLOAD PUSH1 0x1 PUSH1 0x1 PUSH1 0xA0 SHL SUB AND DUP4 MSTORE PUSH1 0x1 DUP1 DUP3 ADD SLOAD DUP5 DUP7 ADD MSTORE PUSH1 0x2 DUP3 ADD SLOAD SWAP3 DUP5 ADD SWAP3 SWAP1 SWAP3 MSTORE PUSH1 0x3 ADD SLOAD PUSH1 0x60 DUP4 ADD MSTORE SWAP1 DUP4 MSTORE SWAP1 SWAP3 ADD SWAP2 ADD PUSH2 0x6F0 JUMP JUMPDEST POP POP POP SWAP2 MSTORE POP SWAP1 POP PUSH1 0x0 JUMPDEST DUP2 PUSH1 0x20 ADD MLOAD MLOAD DUP2 LT ISZERO PUSH2 0x823 JUMPI PUSH1 0x0 PUSH2 0x79B DUP4 PUSH1 0x20 ADD MLOAD DUP4 DUP2 MLOAD DUP2 LT PUSH2 0x78E JUMPI PUSH4 0x4E487B71 PUSH1 0xE0 SHL PUSH1 0x0 MSTORE PUSH1 0x32 PUSH1 0x4 MSTORE PUSH1 0x24 PUSH1 0x0 REVERT JUMPDEST PUSH1 0x20 MUL PUSH1 0x20 ADD ADD MLOAD PUSH2 0xF99 JUMP JUMPDEST SWAP1 POP DUP1 DUP4 PUSH1 0x20 ADD MLOAD DUP4 DUP2 MLOAD DUP2 LT PUSH2 0x7C2 JUMPI PUSH4 0x4E487B71 PUSH1 0xE0 SHL PUSH1 0x0 MSTORE PUSH1 0x32 PUSH1 0x4 MSTORE PUSH1 0x24 PUSH1 0x0 REVERT JUMPDEST PUSH1 0x20 MUL PUSH1 0x20 ADD ADD MLOAD PUSH1 0x60 ADD DUP2 DUP2 MSTORE POP POP DUP3 PUSH1 0x20 ADD MLOAD DUP3 DUP2 MLOAD DUP2 LT PUSH2 0x7F6 JUMPI PUSH4 0x4E487B71 PUSH1 0xE0 SHL PUSH1 0x0 MSTORE PUSH1 0x32 PUSH1 0x4 MSTORE PUSH1 0x24 PUSH1 0x0 REVERT JUMPDEST PUSH1 0x20 MUL PUSH1 0x20 ADD ADD MLOAD PUSH1 0x20 ADD MLOAD DUP5 PUSH2 0x80D SWAP2 SWAP1 PUSH2 0x168D JUMP JUMPDEST SWAP4 POP PUSH2 0x81C SWAP1 POP PUSH1 0x1 DUP3 PUSH2 0x168D JUMP JUMPDEST SWAP1 POP PUSH2 0x758 JUMP JUMPDEST POP SWAP1 DUP2 MSTORE SWAP3 SWAP2 POP POP JUMP JUMPDEST CALLER SWAP1 JUMP JUMPDEST PUSH1 0x1 PUSH1 0x1 PUSH1 0xA0 SHL SUB DUP4 AND PUSH2 0x857 JUMPI PUSH1 0x40 MLOAD PUSH3 0x461BCD PUSH1 0xE5 SHL DUP2 MSTORE PUSH1 0x4 ADD PUSH2 0x426 SWAP1 PUSH2 0x1520 JUMP JUMPDEST PUSH1 0x1 PUSH1 0x1 PUSH1 0xA0 SHL SUB DUP3 AND PUSH2 0x87D JUMPI PUSH1 0x40 MLOAD PUSH3 0x461BCD PUSH1 0xE5 SHL DUP2 MSTORE PUSH1 0x4 ADD PUSH2 0x426 SWAP1 PUSH2 0x12FF JUMP JUMPDEST PUSH1 0x1 PUSH1 0x1 PUSH1 0xA0 SHL SUB DUP1 DUP5 AND PUSH1 0x0 DUP2 DUP2 MSTORE PUSH1 0x1 PUSH1 0x20 SWAP1 DUP2 MSTORE PUSH1 0x40 DUP1 DUP4 KECCAK256 SWAP5 DUP8 AND DUP1 DUP5 MSTORE SWAP5 SWAP1 SWAP2 MSTORE SWAP1 DUP2 SWAP1 KECCAK256 DUP5 SWAP1 SSTORE MLOAD PUSH32 0x8C5BE1E5EBEC7D5BD14F71427D1E84F3DD0314C0F7B2291E5B200AC8C7C3B925 SWAP1 PUSH2 0x8D8 SWAP1 DUP6 SWAP1 PUSH2 0x1660 JUMP JUMPDEST PUSH1 0x40 MLOAD DUP1 SWAP2 SUB SWAP1 LOG3 POP POP POP JUMP JUMPDEST PUSH1 0x1 PUSH1 0x1 PUSH1 0xA0 SHL SUB DUP4 AND PUSH2 0x90B JUMPI PUSH1 0x40 MLOAD PUSH3 0x461BCD PUSH1 0xE5 SHL DUP2 MSTORE PUSH1 0x4 ADD PUSH2 0x426 SWAP1 PUSH2 0x14DB JUMP JUMPDEST PUSH1 0x1 PUSH1 0x1 PUSH1 0xA0 SHL SUB DUP3 AND PUSH2 0x931 JUMPI PUSH1 0x40 MLOAD PUSH3 0x461BCD PUSH1 0xE5 SHL DUP2 MSTORE PUSH1 0x4 ADD PUSH2 0x426 SWAP1 PUSH2 0x11DD JUMP JUMPDEST PUSH2 0x93C DUP4 DUP4 DUP4 PUSH2 0x4CD JUMP JUMPDEST PUSH1 0x1 PUSH1 0x1 PUSH1 0xA0 SHL SUB DUP4 AND PUSH1 0x0 SWAP1 DUP2 MSTORE PUSH1 0x20 DUP2 SWAP1 MSTORE PUSH1 0x40 SWAP1 KECCAK256 SLOAD DUP2 DUP2 LT ISZERO PUSH2 0x975 JUMPI PUSH1 0x40 MLOAD PUSH3 0x461BCD PUSH1 0xE5 SHL DUP2 MSTORE PUSH1 0x4 ADD PUSH2 0x426 SWAP1 PUSH2 0x13D5 JUMP JUMPDEST PUSH1 0x1 PUSH1 0x1 PUSH1 0xA0 SHL SUB DUP1 DUP6 AND PUSH1 0x0 SWAP1 DUP2 MSTORE PUSH1 0x20 DUP2 SWAP1 MSTORE PUSH1 0x40 DUP1 DUP3 KECCAK256 DUP6 DUP6 SUB SWAP1 SSTORE SWAP2 DUP6 AND DUP2 MSTORE SWAP1 DUP2 KECCAK256 DUP1 SLOAD DUP5 SWAP3 SWAP1 PUSH2 0x9AC SWAP1 DUP5 SWAP1 PUSH2 0x168D JUMP JUMPDEST SWAP3 POP POP DUP2 SWAP1 SSTORE POP DUP3 PUSH1 0x1 PUSH1 0x1 PUSH1 0xA0 SHL SUB AND DUP5 PUSH1 0x1 PUSH1 0x1 PUSH1 0xA0 SHL SUB AND PUSH32 0xDDF252AD1BE2C89B69C2B068FC378DAA952BA7F163C4A11628F55A4DF523B3EF DUP5 PUSH1 0x40 MLOAD PUSH2 0x9F6 SWAP2 SWAP1 PUSH2 0x1660 JUMP JUMPDEST PUSH1 0x40 MLOAD DUP1 SWAP2 SUB SWAP1 LOG3 PUSH2 0xA09 DUP5 DUP5 DUP5 PUSH2 0x4CD JUMP JUMPDEST POP POP POP POP JUMP JUMPDEST PUSH1 0x1 PUSH1 0x1 PUSH1 0xA0 SHL SUB DUP3 AND PUSH2 0xA35 JUMPI PUSH1 0x40 MLOAD PUSH3 0x461BCD PUSH1 0xE5 SHL DUP2 MSTORE PUSH1 0x4 ADD PUSH2 0x426 SWAP1 PUSH2 0x15A9 JUMP JUMPDEST PUSH2 0xA41 PUSH1 0x0 DUP4 DUP4 PUSH2 0x4CD JUMP JUMPDEST DUP1 PUSH1 0x2 PUSH1 0x0 DUP3 DUP3 SLOAD PUSH2 0xA53 SWAP2 SWAP1 PUSH2 0x168D JUMP JUMPDEST SWAP1 SWAP2 SSTORE POP POP PUSH1 0x1 PUSH1 0x1 PUSH1 0xA0 SHL SUB DUP3 AND PUSH1 0x0 SWAP1 DUP2 MSTORE PUSH1 0x20 DUP2 SWAP1 MSTORE PUSH1 0x40 DUP2 KECCAK256 DUP1 SLOAD DUP4 SWAP3 SWAP1 PUSH2 0xA80 SWAP1 DUP5 SWAP1 PUSH2 0x168D JUMP JUMPDEST SWAP1 SWAP2 SSTORE POP POP PUSH1 0x40 MLOAD PUSH1 0x1 PUSH1 0x1 PUSH1 0xA0 SHL SUB DUP4 AND SWAP1 PUSH1 0x0 SWAP1 PUSH32 0xDDF252AD1BE2C89B69C2B068FC378DAA952BA7F163C4A11628F55A4DF523B3EF SWAP1 PUSH2 0xAC3 SWAP1 DUP6 SWAP1 PUSH2 0x1660 JUMP JUMPDEST PUSH1 0x40 MLOAD DUP1 SWAP2 SUB SWAP1 LOG3 PUSH2 0x4B1 PUSH1 0x0 DUP4 DUP4 PUSH2 0x4CD JUMP JUMPDEST CALLER PUSH1 0x0 SWAP1 DUP2 MSTORE PUSH1 0x7 PUSH1 0x20 MSTORE PUSH1 0x40 DUP2 KECCAK256 SLOAD PUSH1 0x6 DUP1 SLOAD DUP4 SWAP2 SWAP1 DUP4 SWAP1 DUP2 LT PUSH2 0xB0C JUMPI PUSH4 0x4E487B71 PUSH1 0xE0 SHL PUSH1 0x0 MSTORE PUSH1 0x32 PUSH1 0x4 MSTORE PUSH1 0x24 PUSH1 0x0 REVERT JUMPDEST SWAP1 PUSH1 0x0 MSTORE PUSH1 0x20 PUSH1 0x0 KECCAK256 SWAP1 PUSH1 0x2 MUL ADD PUSH1 0x1 ADD DUP5 DUP2 SLOAD DUP2 LT PUSH2 0xB3C JUMPI PUSH4 0x4E487B71 PUSH1 0xE0 SHL PUSH1 0x0 MSTORE PUSH1 0x32 PUSH1 0x4 MSTORE PUSH1 0x24 PUSH1 0x0 REVERT JUMPDEST PUSH1 0x0 SWAP2 DUP3 MSTORE PUSH1 0x20 SWAP2 DUP3 SWAP1 KECCAK256 PUSH1 0x40 DUP1 MLOAD PUSH1 0x80 DUP2 ADD DUP3 MSTORE PUSH1 0x4 SWAP1 SWAP4 MUL SWAP1 SWAP2 ADD DUP1 SLOAD PUSH1 0x1 PUSH1 0x1 PUSH1 0xA0 SHL SUB AND DUP4 MSTORE PUSH1 0x1 DUP2 ADD SLOAD SWAP4 DUP4 ADD DUP5 SWAP1 MSTORE PUSH1 0x2 DUP2 ADD SLOAD SWAP2 DUP4 ADD SWAP2 SWAP1 SWAP2 MSTORE PUSH1 0x3 ADD SLOAD PUSH1 0x60 DUP3 ADD MSTORE SWAP2 POP DUP6 GT ISZERO PUSH2 0xBA7 JUMPI PUSH1 0x40 MLOAD PUSH3 0x461BCD PUSH1 0xE5 SHL DUP2 MSTORE PUSH1 0x4 ADD PUSH2 0x426 SWAP1 PUSH2 0x1271 JUMP JUMPDEST TIMESTAMP PUSH1 0x0 PUSH2 0xBB3 DUP4 PUSH2 0xF99 JUMP JUMPDEST SWAP1 POP DUP7 DUP4 PUSH1 0x20 ADD MLOAD PUSH2 0xBC5 SWAP2 SWAP1 PUSH2 0x16E4 JUMP JUMPDEST PUSH1 0x20 DUP5 ADD DUP2 SWAP1 MSTORE PUSH2 0xC55 JUMPI PUSH1 0x6 DUP5 DUP2 SLOAD DUP2 LT PUSH2 0xBF1 JUMPI PUSH4 0x4E487B71 PUSH1 0xE0 SHL PUSH1 0x0 MSTORE PUSH1 0x32 PUSH1 0x4 MSTORE PUSH1 0x24 PUSH1 0x0 REVERT JUMPDEST SWAP1 PUSH1 0x0 MSTORE PUSH1 0x20 PUSH1 0x0 KECCAK256 SWAP1 PUSH1 0x2 MUL ADD PUSH1 0x1 ADD DUP7 DUP2 SLOAD DUP2 LT PUSH2 0xC21 JUMPI PUSH4 0x4E487B71 PUSH1 0xE0 SHL PUSH1 0x0 MSTORE PUSH1 0x32 PUSH1 0x4 MSTORE PUSH1 0x24 PUSH1 0x0 REVERT JUMPDEST PUSH1 0x0 SWAP2 DUP3 MSTORE PUSH1 0x20 DUP3 KECCAK256 PUSH1 0x4 SWAP1 SWAP2 MUL ADD DUP1 SLOAD PUSH1 0x1 PUSH1 0x1 PUSH1 0xA0 SHL SUB NOT AND DUP2 SSTORE PUSH1 0x1 DUP2 ADD DUP3 SWAP1 SSTORE PUSH1 0x2 DUP2 ADD DUP3 SWAP1 SSTORE PUSH1 0x3 ADD SSTORE PUSH2 0xD28 JUMP JUMPDEST DUP3 PUSH1 0x20 ADD MLOAD PUSH1 0x6 DUP6 DUP2 SLOAD DUP2 LT PUSH2 0xC7B JUMPI PUSH4 0x4E487B71 PUSH1 0xE0 SHL PUSH1 0x0 MSTORE PUSH1 0x32 PUSH1 0x4 MSTORE PUSH1 0x24 PUSH1 0x0 REVERT JUMPDEST SWAP1 PUSH1 0x0 MSTORE PUSH1 0x20 PUSH1 0x0 KECCAK256 SWAP1 PUSH1 0x2 MUL ADD PUSH1 0x1 ADD DUP8 DUP2 SLOAD DUP2 LT PUSH2 0xCAB JUMPI PUSH4 0x4E487B71 PUSH1 0xE0 SHL PUSH1 0x0 MSTORE PUSH1 0x32 PUSH1 0x4 MSTORE PUSH1 0x24 PUSH1 0x0 REVERT JUMPDEST SWAP1 PUSH1 0x0 MSTORE PUSH1 0x20 PUSH1 0x0 KECCAK256 SWAP1 PUSH1 0x4 MUL ADD PUSH1 0x1 ADD DUP2 SWAP1 SSTORE POP TIMESTAMP PUSH1 0x6 DUP6 DUP2 SLOAD DUP2 LT PUSH2 0xCE2 JUMPI PUSH4 0x4E487B71 PUSH1 0xE0 SHL PUSH1 0x0 MSTORE PUSH1 0x32 PUSH1 0x4 MSTORE PUSH1 0x24 PUSH1 0x0 REVERT JUMPDEST SWAP1 PUSH1 0x0 MSTORE PUSH1 0x20 PUSH1 0x0 KECCAK256 SWAP1 PUSH1 0x2 MUL ADD PUSH1 0x1 ADD DUP8 DUP2 SLOAD DUP2 LT PUSH2 0xD12 JUMPI PUSH4 0x4E487B71 PUSH1 0xE0 SHL PUSH1 0x0 MSTORE PUSH1 0x32 PUSH1 0x4 MSTORE PUSH1 0x24 PUSH1 0x0 REVERT JUMPDEST SWAP1 PUSH1 0x0 MSTORE PUSH1 0x20 PUSH1 0x0 KECCAK256 SWAP1 PUSH1 0x4 MUL ADD PUSH1 0x2 ADD DUP2 SWAP1 SSTORE POP JUMPDEST CALLER PUSH1 0x1 PUSH1 0x1 PUSH1 0xA0 SHL SUB AND PUSH32 0x204FCCF0D92ED8D48F204ADB39B2E81E92BAD0DEDB93F5716CA9478CFB57DE00 DUP9 DUP9 DUP6 PUSH1 0x40 MLOAD PUSH2 0xD65 SWAP4 SWAP3 SWAP2 SWAP1 PUSH2 0x1669 JUMP JUMPDEST PUSH1 0x40 MLOAD DUP1 SWAP2 SUB SWAP1 LOG2 PUSH2 0xD77 DUP2 DUP9 PUSH2 0x168D JUMP JUMPDEST SWAP8 SWAP7 POP POP POP POP POP POP POP JUMP JUMPDEST PUSH1 0x0 DUP2 GT PUSH2 0xDA2 JUMPI PUSH1 0x40 MLOAD PUSH3 0x461BCD PUSH1 0xE5 SHL DUP2 MSTORE PUSH1 0x4 ADD PUSH2 0x426 SWAP1 PUSH2 0x139E JUMP JUMPDEST CALLER PUSH1 0x0 SWAP1 DUP2 MSTORE PUSH1 0x7 PUSH1 0x20 MSTORE PUSH1 0x40 SWAP1 KECCAK256 SLOAD TIMESTAMP DUP2 PUSH2 0xDC4 JUMPI PUSH2 0xDC1 CALLER PUSH2 0xFDA JUMP JUMPDEST SWAP2 POP JUMPDEST PUSH1 0x6 DUP3 DUP2 SLOAD DUP2 LT PUSH2 0xDE5 JUMPI PUSH4 0x4E487B71 PUSH1 0xE0 SHL PUSH1 0x0 MSTORE PUSH1 0x32 PUSH1 0x4 MSTORE PUSH1 0x24 PUSH1 0x0 REVERT JUMPDEST PUSH1 0x0 SWAP2 DUP3 MSTORE PUSH1 0x20 DUP1 DUP4 KECCAK256 PUSH1 0x40 DUP1 MLOAD PUSH1 0x80 DUP2 ADD DUP3 MSTORE CALLER DUP1 DUP3 MSTORE DUP2 DUP6 ADD DUP11 DUP2 MSTORE DUP3 DUP5 ADD DUP10 DUP2 MSTORE PUSH1 0x60 DUP5 ADD DUP10 DUP2 MSTORE PUSH1 0x2 SWAP9 DUP10 MUL SWAP1 SWAP7 ADD PUSH1 0x1 SWAP1 DUP2 ADD DUP1 SLOAD DUP1 DUP4 ADD DUP3 SSTORE SWAP1 DUP12 MSTORE SWAP8 SWAP1 SWAP10 KECCAK256 SWAP4 MLOAD PUSH1 0x4 SWAP1 SWAP8 MUL SWAP1 SWAP4 ADD DUP1 SLOAD PUSH1 0x1 PUSH1 0x1 PUSH1 0xA0 SHL SUB NOT AND PUSH1 0x1 PUSH1 0x1 PUSH1 0xA0 SHL SUB SWAP1 SWAP8 AND SWAP7 SWAP1 SWAP7 OR DUP7 SSTORE MLOAD SWAP7 DUP6 ADD SWAP7 SWAP1 SWAP7 SSTORE MLOAD SWAP4 DUP4 ADD SWAP4 SWAP1 SWAP4 SSTORE MLOAD PUSH1 0x3 SWAP1 SWAP2 ADD SSTORE MLOAD PUSH32 0xB4CAAF29ADDA3EEFEE3AD552A8E85058589BF834C7466CAE4EE58787F70589ED SWAP1 PUSH2 0xE9B SWAP1 DUP7 SWAP1 DUP7 SWAP1 DUP7 SWAP1 PUSH2 0x1669 JUMP JUMPDEST PUSH1 0x40 MLOAD DUP1 SWAP2 SUB SWAP1 LOG2 POP POP POP JUMP JUMPDEST PUSH1 0x1 PUSH1 0x1 PUSH1 0xA0 SHL SUB DUP3 AND PUSH2 0xECE JUMPI PUSH1 0x40 MLOAD PUSH3 0x461BCD PUSH1 0xE5 SHL DUP2 MSTORE PUSH1 0x4 ADD PUSH2 0x426 SWAP1 PUSH2 0x149A JUMP JUMPDEST PUSH2 0xEDA DUP3 PUSH1 0x0 DUP4 PUSH2 0x4CD JUMP JUMPDEST PUSH1 0x1 PUSH1 0x1 PUSH1 0xA0 SHL SUB DUP3 AND PUSH1 0x0 SWAP1 DUP2 MSTORE PUSH1 0x20 DUP2 SWAP1 MSTORE PUSH1 0x40 SWAP1 KECCAK256 SLOAD DUP2 DUP2 LT ISZERO PUSH2 0xF13 JUMPI PUSH1 0x40 MLOAD PUSH3 0x461BCD PUSH1 0xE5 SHL DUP2 MSTORE PUSH1 0x4 ADD PUSH2 0x426 SWAP1 PUSH2 0x12BD JUMP JUMPDEST PUSH1 0x1 PUSH1 0x1 PUSH1 0xA0 SHL SUB DUP4 AND PUSH1 0x0 SWAP1 DUP2 MSTORE PUSH1 0x20 DUP2 SWAP1 MSTORE PUSH1 0x40 DUP2 KECCAK256 DUP4 DUP4 SUB SWAP1 SSTORE PUSH1 0x2 DUP1 SLOAD DUP5 SWAP3 SWAP1 PUSH2 0xF42 SWAP1 DUP5 SWAP1 PUSH2 0x16E4 JUMP JUMPDEST SWAP1 SWAP2 SSTORE POP POP PUSH1 0x40 MLOAD PUSH1 0x0 SWAP1 PUSH1 0x1 PUSH1 0x1 PUSH1 0xA0 SHL SUB DUP6 AND SWAP1 PUSH32 0xDDF252AD1BE2C89B69C2B068FC378DAA952BA7F163C4A11628F55A4DF523B3EF SWAP1 PUSH2 0xF85 SWAP1 DUP7 SWAP1 PUSH2 0x1660 JUMP JUMPDEST PUSH1 0x40 MLOAD DUP1 SWAP2 SUB SWAP1 LOG3 PUSH2 0x4CD DUP4 PUSH1 0x0 DUP5 PUSH2 0x4CD JUMP JUMPDEST PUSH1 0x0 PUSH1 0x5 SLOAD DUP3 PUSH1 0x20 ADD MLOAD PUSH2 0xE10 DUP5 PUSH1 0x40 ADD MLOAD TIMESTAMP PUSH2 0xFB6 SWAP2 SWAP1 PUSH2 0x16E4 JUMP JUMPDEST PUSH2 0xFC0 SWAP2 SWAP1 PUSH2 0x16A5 JUMP JUMPDEST PUSH2 0xFCA SWAP2 SWAP1 PUSH2 0x16C5 JUMP JUMPDEST PUSH2 0xFD4 SWAP2 SWAP1 PUSH2 0x16A5 JUMP JUMPDEST SWAP3 SWAP2 POP POP JUMP JUMPDEST PUSH1 0x6 DUP1 SLOAD PUSH1 0x1 SWAP1 DUP2 ADD DUP1 DUP4 SSTORE PUSH1 0x0 SWAP3 DUP4 MSTORE DUP3 SWAP2 PUSH2 0xFF6 SWAP2 PUSH2 0x16E4 JUMP JUMPDEST SWAP1 POP DUP3 PUSH1 0x6 DUP3 DUP2 SLOAD DUP2 LT PUSH2 0x101A JUMPI PUSH4 0x4E487B71 PUSH1 0xE0 SHL PUSH1 0x0 MSTORE PUSH1 0x32 PUSH1 0x4 MSTORE PUSH1 0x24 PUSH1 0x0 REVERT JUMPDEST PUSH1 0x0 SWAP2 DUP3 MSTORE PUSH1 0x20 DUP1 DUP4 KECCAK256 PUSH1 0x2 SWAP3 SWAP1 SWAP3 MUL SWAP1 SWAP2 ADD DUP1 SLOAD PUSH1 0x1 PUSH1 0x1 PUSH1 0xA0 SHL SUB NOT AND PUSH1 0x1 PUSH1 0x1 PUSH1 0xA0 SHL SUB SWAP5 DUP6 AND OR SWAP1 SSTORE SWAP5 SWAP1 SWAP2 AND DUP2 MSTORE PUSH1 0x7 SWAP1 SWAP4 MSTORE PUSH1 0x40 SWAP1 SWAP3 KECCAK256 DUP3 SWAP1 SSTORE POP SWAP1 JUMP JUMPDEST PUSH1 0x40 MLOAD DUP1 PUSH1 0x40 ADD PUSH1 0x40 MSTORE DUP1 PUSH1 0x0 DUP2 MSTORE PUSH1 0x20 ADD PUSH1 0x60 DUP2 MSTORE POP SWAP1 JUMP JUMPDEST DUP1 CALLDATALOAD PUSH1 0x1 PUSH1 0x1 PUSH1 0xA0 SHL SUB DUP2 AND DUP2 EQ PUSH2 0x553 JUMPI PUSH1 0x0 DUP1 REVERT JUMPDEST PUSH1 0x0 PUSH1 0x20 DUP3 DUP5 SUB SLT ISZERO PUSH2 0x10A0 JUMPI DUP1 DUP2 REVERT JUMPDEST PUSH2 0x10A9 DUP3 PUSH2 0x1078 JUMP JUMPDEST SWAP4 SWAP3 POP POP POP JUMP JUMPDEST PUSH1 0x0 DUP1 PUSH1 0x40 DUP4 DUP6 SUB SLT ISZERO PUSH2 0x10C2 JUMPI DUP1 DUP2 REVERT JUMPDEST PUSH2 0x10CB DUP4 PUSH2 0x1078 JUMP JUMPDEST SWAP2 POP PUSH2 0x10D9 PUSH1 0x20 DUP5 ADD PUSH2 0x1078 JUMP JUMPDEST SWAP1 POP SWAP3 POP SWAP3 SWAP1 POP JUMP JUMPDEST PUSH1 0x0 DUP1 PUSH1 0x0 PUSH1 0x60 DUP5 DUP7 SUB SLT ISZERO PUSH2 0x10F6 JUMPI DUP1 DUP2 REVERT JUMPDEST PUSH2 0x10FF DUP5 PUSH2 0x1078 JUMP JUMPDEST SWAP3 POP PUSH2 0x110D PUSH1 0x20 DUP6 ADD PUSH2 0x1078 JUMP JUMPDEST SWAP2 POP PUSH1 0x40 DUP5 ADD CALLDATALOAD SWAP1 POP SWAP3 POP SWAP3 POP SWAP3 JUMP JUMPDEST PUSH1 0x0 DUP1 PUSH1 0x40 DUP4 DUP6 SUB SLT ISZERO PUSH2 0x112F JUMPI DUP2 DUP3 REVERT JUMPDEST PUSH2 0x1138 DUP4 PUSH2 0x1078 JUMP JUMPDEST SWAP5 PUSH1 0x20 SWAP4 SWAP1 SWAP4 ADD CALLDATALOAD SWAP4 POP POP POP JUMP JUMPDEST PUSH1 0x0 PUSH1 0x20 DUP3 DUP5 SUB SLT ISZERO PUSH2 0x1157 JUMPI DUP1 DUP2 REVERT JUMPDEST POP CALLDATALOAD SWAP2 SWAP1 POP JUMP JUMPDEST PUSH1 0x0 DUP1 PUSH1 0x40 DUP4 DUP6 SUB SLT ISZERO PUSH2 0x1170 JUMPI DUP2 DUP3 REVERT JUMPDEST POP POP DUP1 CALLDATALOAD SWAP3 PUSH1 0x20 SWAP1 SWAP2 ADD CALLDATALOAD SWAP2 POP JUMP JUMPDEST SWAP1 ISZERO ISZERO DUP2 MSTORE PUSH1 0x20 ADD SWAP1 JUMP JUMPDEST PUSH1 0x0 PUSH1 0x20 DUP1 DUP4 MSTORE DUP4 MLOAD DUP1 DUP3 DUP6 ADD MSTORE DUP3 JUMPDEST DUP2 DUP2 LT ISZERO PUSH2 0x11B6 JUMPI DUP6 DUP2 ADD DUP4 ADD MLOAD DUP6 DUP3 ADD PUSH1 0x40 ADD MSTORE DUP3 ADD PUSH2 0x119A JUMP JUMPDEST DUP2 DUP2 GT ISZERO PUSH2 0x11C7 JUMPI DUP4 PUSH1 0x40 DUP4 DUP8 ADD ADD MSTORE JUMPDEST POP PUSH1 0x1F ADD PUSH1 0x1F NOT AND SWAP3 SWAP1 SWAP3 ADD PUSH1 0x40 ADD SWAP4 SWAP3 POP POP POP JUMP JUMPDEST PUSH1 0x20 DUP1 DUP3 MSTORE PUSH1 0x23 SWAP1 DUP3 ADD MSTORE PUSH32 0x45524332303A207472616E7366657220746F20746865207A65726F2061646472 PUSH1 0x40 DUP3 ADD MSTORE PUSH3 0x657373 PUSH1 0xE8 SHL PUSH1 0x60 DUP3 ADD MSTORE PUSH1 0x80 ADD SWAP1 JUMP JUMPDEST PUSH1 0x20 DUP1 DUP3 MSTORE PUSH1 0x31 SWAP1 DUP3 ADD MSTORE PUSH32 0x596F7520646F6E2774206861766520656E6F75676820746F6B656E7320746F20 PUSH1 0x40 DUP3 ADD MSTORE PUSH17 0x1CDD185AD9481D1A185D08185B5BDD5B9D PUSH1 0x7A SHL PUSH1 0x60 DUP3 ADD MSTORE PUSH1 0x80 ADD SWAP1 JUMP JUMPDEST PUSH1 0x20 DUP1 DUP3 MSTORE PUSH1 0x2C SWAP1 DUP3 ADD MSTORE PUSH32 0x43616E6E6F7420756E7374616B65206D6F7265207468616E20796F7572207374 PUSH1 0x40 DUP3 ADD MSTORE PUSH12 0x616B65642062616C616E6365 PUSH1 0xA0 SHL PUSH1 0x60 DUP3 ADD MSTORE PUSH1 0x80 ADD SWAP1 JUMP JUMPDEST PUSH1 0x20 DUP1 DUP3 MSTORE PUSH1 0x22 SWAP1 DUP3 ADD MSTORE PUSH32 0x45524332303A206275726E20616D6F756E7420657863656564732062616C616E PUSH1 0x40 DUP3 ADD MSTORE PUSH2 0x6365 PUSH1 0xF0 SHL PUSH1 0x60 DUP3 ADD MSTORE PUSH1 0x80 ADD SWAP1 JUMP JUMPDEST PUSH1 0x20 DUP1 DUP3 MSTORE PUSH1 0x22 SWAP1 DUP3 ADD MSTORE PUSH32 0x45524332303A20617070726F766520746F20746865207A65726F206164647265 PUSH1 0x40 DUP3 ADD MSTORE PUSH2 0x7373 PUSH1 0xF0 SHL PUSH1 0x60 DUP3 ADD MSTORE PUSH1 0x80 ADD SWAP1 JUMP JUMPDEST PUSH1 0x20 DUP1 DUP3 MSTORE PUSH1 0x3D SWAP1 DUP3 ADD MSTORE PUSH32 0x43616E6E6F74207075726368617365206D6F7265207468616E2072656D61696E PUSH1 0x40 DUP3 ADD MSTORE PUSH32 0x696E6720756E6D696E74656420737570706C79206F66204855534B5921000000 PUSH1 0x60 DUP3 ADD MSTORE PUSH1 0x80 ADD SWAP1 JUMP JUMPDEST PUSH1 0x20 DUP1 DUP3 MSTORE PUSH1 0x1E SWAP1 DUP3 ADD MSTORE PUSH32 0x416D6F756E742070726F76696465642063616E6E6F74206265203D3D20300000 PUSH1 0x40 DUP3 ADD MSTORE PUSH1 0x60 ADD SWAP1 JUMP JUMPDEST PUSH1 0x20 DUP1 DUP3 MSTORE PUSH1 0x26 SWAP1 DUP3 ADD MSTORE PUSH32 0x45524332303A207472616E7366657220616D6F756E7420657863656564732062 PUSH1 0x40 DUP3 ADD MSTORE PUSH6 0x616C616E6365 PUSH1 0xD0 SHL PUSH1 0x60 DUP3 ADD MSTORE PUSH1 0x80 ADD SWAP1 JUMP JUMPDEST PUSH1 0x20 DUP1 DUP3 MSTORE PUSH1 0x28 SWAP1 DUP3 ADD MSTORE PUSH32 0x45524332303A207472616E7366657220616D6F756E7420657863656564732061 PUSH1 0x40 DUP3 ADD MSTORE PUSH8 0x6C6C6F77616E6365 PUSH1 0xC0 SHL PUSH1 0x60 DUP3 ADD MSTORE PUSH1 0x80 ADD SWAP1 JUMP JUMPDEST PUSH1 0x20 DUP1 DUP3 MSTORE PUSH1 0x1B SWAP1 DUP3 ADD MSTORE PUSH32 0x507572636861736520616D6F756E74206D757374206265203E20300000000000 PUSH1 0x40 DUP3 ADD MSTORE PUSH1 0x60 ADD SWAP1 JUMP JUMPDEST PUSH1 0x20 DUP1 DUP3 MSTORE PUSH1 0x21 SWAP1 DUP3 ADD MSTORE PUSH32 0x45524332303A206275726E2066726F6D20746865207A65726F20616464726573 PUSH1 0x40 DUP3 ADD MSTORE PUSH1 0x73 PUSH1 0xF8 SHL PUSH1 0x60 DUP3 ADD MSTORE PUSH1 0x80 ADD SWAP1 JUMP JUMPDEST PUSH1 0x20 DUP1 DUP3 MSTORE PUSH1 0x25 SWAP1 DUP3 ADD MSTORE PUSH32 0x45524332303A207472616E736665722066726F6D20746865207A65726F206164 PUSH1 0x40 DUP3 ADD MSTORE PUSH5 0x6472657373 PUSH1 0xD8 SHL PUSH1 0x60 DUP3 ADD MSTORE PUSH1 0x80 ADD SWAP1 JUMP JUMPDEST PUSH1 0x20 DUP1 DUP3 MSTORE PUSH1 0x24 SWAP1 DUP3 ADD MSTORE PUSH32 0x45524332303A20617070726F76652066726F6D20746865207A65726F20616464 PUSH1 0x40 DUP3 ADD MSTORE PUSH4 0x72657373 PUSH1 0xE0 SHL PUSH1 0x60 DUP3 ADD MSTORE PUSH1 0x80 ADD SWAP1 JUMP JUMPDEST PUSH1 0x20 DUP1 DUP3 MSTORE PUSH1 0x25 SWAP1 DUP3 ADD MSTORE PUSH32 0x45524332303A2064656372656173656420616C6C6F77616E63652062656C6F77 PUSH1 0x40 DUP3 ADD MSTORE PUSH5 0x207A65726F PUSH1 0xD8 SHL PUSH1 0x60 DUP3 ADD MSTORE PUSH1 0x80 ADD SWAP1 JUMP JUMPDEST PUSH1 0x20 DUP1 DUP3 MSTORE PUSH1 0x1F SWAP1 DUP3 ADD MSTORE PUSH32 0x45524332303A206D696E7420746F20746865207A65726F206164647265737300 PUSH1 0x40 DUP3 ADD MSTORE PUSH1 0x60 ADD SWAP1 JUMP JUMPDEST PUSH1 0x0 PUSH1 0x20 DUP1 DUP4 MSTORE PUSH1 0x60 DUP1 DUP5 ADD DUP6 MLOAD DUP4 DUP7 ADD MSTORE DUP3 DUP7 ADD MLOAD PUSH1 0x40 DUP1 DUP2 DUP9 ADD MSTORE DUP3 DUP3 MLOAD DUP1 DUP6 MSTORE PUSH1 0x80 SWAP5 POP DUP5 DUP10 ADD SWAP2 POP DUP7 DUP5 ADD SWAP4 POP DUP8 JUMPDEST DUP2 DUP2 LT ISZERO PUSH2 0x1651 JUMPI DUP5 MLOAD DUP1 MLOAD PUSH1 0x1 PUSH1 0x1 PUSH1 0xA0 SHL SUB AND DUP5 MSTORE DUP9 DUP2 ADD MLOAD DUP10 DUP6 ADD MSTORE DUP5 DUP2 ADD MLOAD DUP6 DUP6 ADD MSTORE DUP8 ADD MLOAD DUP8 DUP5 ADD MSTORE SWAP4 DUP8 ADD SWAP4 SWAP2 DUP6 ADD SWAP2 PUSH1 0x1 ADD PUSH2 0x1613 JUMP JUMPDEST POP SWAP1 SWAP10 SWAP9 POP POP POP POP POP POP POP POP POP JUMP JUMPDEST SWAP1 DUP2 MSTORE PUSH1 0x20 ADD SWAP1 JUMP JUMPDEST SWAP3 DUP4 MSTORE PUSH1 0x20 DUP4 ADD SWAP2 SWAP1 SWAP2 MSTORE PUSH1 0x40 DUP3 ADD MSTORE PUSH1 0x60 ADD SWAP1 JUMP JUMPDEST PUSH1 0xFF SWAP2 SWAP1 SWAP2 AND DUP2 MSTORE PUSH1 0x20 ADD SWAP1 JUMP JUMPDEST PUSH1 0x0 DUP3 NOT DUP3 GT ISZERO PUSH2 0x16A0 JUMPI PUSH2 0x16A0 PUSH2 0x1736 JUMP JUMPDEST POP ADD SWAP1 JUMP JUMPDEST PUSH1 0x0 DUP3 PUSH2 0x16C0 JUMPI PUSH4 0x4E487B71 PUSH1 0xE0 SHL DUP2 MSTORE PUSH1 0x12 PUSH1 0x4 MSTORE PUSH1 0x24 DUP2 REVERT JUMPDEST POP DIV SWAP1 JUMP JUMPDEST PUSH1 0x0 DUP2 PUSH1 0x0 NOT DIV DUP4 GT DUP3 ISZERO ISZERO AND ISZERO PUSH2 0x16DF JUMPI PUSH2 0x16DF PUSH2 0x1736 JUMP JUMPDEST POP MUL SWAP1 JUMP JUMPDEST PUSH1 0x0 DUP3 DUP3 LT ISZERO PUSH2 0x16F6 JUMPI PUSH2 0x16F6 PUSH2 0x1736 JUMP JUMPDEST POP SUB SWAP1 JUMP JUMPDEST PUSH1 0x2 DUP2 DIV PUSH1 0x1 DUP3 AND DUP1 PUSH2 0x170F JUMPI PUSH1 0x7F DUP3 AND SWAP2 POP JUMPDEST PUSH1 0x20 DUP3 LT DUP2 EQ ISZERO PUSH2 0x1730 JUMPI PUSH4 0x4E487B71 PUSH1 0xE0 SHL PUSH1 0x0 MSTORE PUSH1 0x22 PUSH1 0x4 MSTORE PUSH1 0x24 PUSH1 0x0 REVERT JUMPDEST POP SWAP2 SWAP1 POP JUMP JUMPDEST PUSH4 0x4E487B71 PUSH1 0xE0 SHL PUSH1 0x0 MSTORE PUSH1 0x11 PUSH1 0x4 MSTORE PUSH1 0x24 PUSH1 0x0 REVERT INVALID LOG2 PUSH5 0x6970667358 0x22 SLT KECCAK256 KECCAK256 DUP15 SWAP14 EXTCODESIZE 0xDC SLOAD SWAP7 0xD DUP7 0xF7 PUSH2 0x5B66 0xC 0x2E SWAP13 0x1E STATICCALL 0x23 0xB2 0xB1 0xAF DUP6 0xB2 0xBE MLOAD 0x49 SWAP2 0xEF LOG0 0xDB RETURNDATASIZE PUSH5 0x736F6C6343 STOP ADDMOD STOP STOP CALLER "
        },
        "methodIdentifiers": {
          "allowance(address,address)": "dd62ed3e",
          "approve(address,uint256)": "095ea7b3",
          "balanceOf(address)": "70a08231",
          "decimals()": "313ce567",
          "decreaseAllowance(address,uint256)": "a457c2d7",
          "hasStake(address)": "e73e14bf",
          "increaseAllowance(address,uint256)": "39509351",
          "mint(address,uint256)": "40c10f19",
          "name()": "06fdde03",
          "purchase()": "64edfbf0",
          "stake(uint256)": "a694fc3a",
          "symbol()": "95d89b41",
          "totalSupply()": "18160ddd",
          "transfer(address,uint256)": "a9059cbb",
          "transferFrom(address,address,uint256)": "23b872dd",
          "withdraw(uint256,uint256)": "441a3e70"
        }
      }
    }
  }
}