{
  "_format": "hh-sol-artifact-1",
  "contractName": "Stakeable",
  "sourceName": "contracts/Stakeable.sol",
  "abi": [
    {
      "inputs": [],
      "stateMutability": "nonpayable",
      "type": "constructor"
    },
    {
      "anonymous": false,
      "inputs": [
        {
          "indexed": true,
          "internalType": "address",
          "name": "user",
          "type": "address"
        },
        {
          "indexed": false,
          "internalType": "uint256",
          "name": "amount",
          "type": "uint256"
        },
        {
          "indexed": false,
          "internalType": "uint256",
          "name": "index",
          "type": "uint256"
        },
        {
          "indexed": false,
          "internalType": "uint256",
          "name": "timestamp",
          "type": "uint256"
        }
      ],
      "name": "Staked",
      "type": "event"
    },
    {
      "anonymous": false,
      "inputs": [
        {
          "indexed": true,
          "internalType": "address",
          "name": "user",
          "type": "address"
        },
        {
          "indexed": false,
          "internalType": "uint256",
          "name": "amount",
          "type": "uint256"
        },
        {
          "indexed": false,
          "internalType": "uint256",
          "name": "index",
          "type": "uint256"
        },
        {
          "indexed": false,
          "internalType": "uint256",
          "name": "timestamp",
          "type": "uint256"
        }
      ],
      "name": "Unstaked",
      "type": "event"
    },
    {
      "inputs": [
        {
          "internalType": "address",
          "name": "_staker",
          "type": "address"
        }
      ],
      "name": "hasStake",
      "outputs": [
        {
          "components": [
            {
              "internalType": "uint256",
              "name": "originalStake",
              "type": "uint256"
            },
            {
              "internalType": "uint256",
              "name": "totalAmount",
              "type": "uint256"
            },
            {
              "components": [
                {
                  "internalType": "address",
                  "name": "user",
                  "type": "address"
                },
                {
                  "internalType": "uint256",
                  "name": "amount",
                  "type": "uint256"
                },
                {
                  "internalType": "uint256",
                  "name": "timeStamp",
                  "type": "uint256"
                },
                {
                  "internalType": "uint256",
                  "name": "claimable",
                  "type": "uint256"
                }
              ],
              "internalType": "struct Stakeable.Stake[]",
              "name": "stakes",
              "type": "tuple[]"
            }
          ],
          "internalType": "struct Stakeable.StakingSummary",
          "name": "",
          "type": "tuple"
        }
      ],
      "stateMutability": "view",
      "type": "function"
    }
  ],
  "bytecode": "0x6080604052606460005534801561001557600080fd5b50600180548101815560005261045a806100306000396000f3fe608060405234801561001057600080fd5b506004361061002b5760003560e01c8063e73e14bf14610030575b600080fd5b61004361003e3660046102e3565b610059565b6040516100509190610311565b60405180910390f35b6100616102c2565b600080600060405180606001604052806000815260200160008152602001600160026000896001600160a01b03166001600160a01b0316815260200190815260200160002054815481106100c557634e487b7160e01b600052603260045260246000fd5b9060005260206000209060020201600101805480602002602001604051908101604052809291908181526020016000905b82821015610153576000848152602090819020604080516080810182526004860290920180546001600160a01b031683526001808201548486015260028201549284019290925260030154606083015290835290920191016100f6565b505050915250905060005b816040015151811015610271578160400151818151811061018f57634e487b7160e01b600052603260045260246000fd5b602002602001015160200151836101a691906103a0565b925060006101de836040015183815181106101d157634e487b7160e01b600052603260045260246000fd5b6020026020010151610283565b9050808360400151838151811061020557634e487b7160e01b600052603260045260246000fd5b60200260200101516060018181525050808360400151838151811061023a57634e487b7160e01b600052603260045260246000fd5b6020026020010151602001518661025191906103a0565b61025b91906103a0565b945061026a90506001826103a0565b905061015e565b50908152602081019190915292915050565b600080548260200151600a84604001514261029e91906103f7565b6102a891906103b8565b6102b291906103d8565b6102bc91906103b8565b92915050565b60405180606001604052806000815260200160008152602001606081525090565b6000602082840312156102f4578081fd5b81356001600160a01b038116811461030a578182fd5b9392505050565b60006020808352608080840185518386015282860151604081818801528088015191506060808189015283835180865260a08a01915087850195508894505b8085101561039257855180516001600160a01b031683528881015189840152848101518584015283015183830152948701946001949094019390860190610350565b509998505050505050505050565b600082198211156103b3576103b361040e565b500190565b6000826103d357634e487b7160e01b81526012600452602481fd5b500490565b60008160001904831182151516156103f2576103f261040e565b500290565b6000828210156104095761040961040e565b500390565b634e487b7160e01b600052601160045260246000fdfea2646970667358221220766f5ba965e0bffd87622536393748f25539bca8d21a541ee1ea13eb3fd716c664736f6c63430008000033",
  "linkReferences": {},
  "deployedLinkReferences": {}
}