{
  "_format": "hh-sol-artifact-1",
  "contractName": "Stakeable",
  "sourceName": "contracts/Stakeable.sol",
  "abi": [
    {
      "inputs": [],
      "stateMutability": "nonpayable",
      "type": "constructor"
    },
    {
      "anonymous": false,
      "inputs": [
        {
          "indexed": true,
          "internalType": "address",
          "name": "user",
          "type": "address"
        },
        {
          "indexed": false,
          "internalType": "uint256",
          "name": "amount",
          "type": "uint256"
        },
        {
          "indexed": false,
          "internalType": "uint256",
          "name": "index",
          "type": "uint256"
        },
        {
          "indexed": false,
          "internalType": "uint256",
          "name": "timestamp",
          "type": "uint256"
        }
      ],
      "name": "Staked",
      "type": "event"
    },
    {
      "anonymous": false,
      "inputs": [
        {
          "indexed": true,
          "internalType": "address",
          "name": "user",
          "type": "address"
        },
        {
          "indexed": false,
          "internalType": "uint256",
          "name": "amount",
          "type": "uint256"
        },
        {
          "indexed": false,
          "internalType": "uint256",
          "name": "index",
          "type": "uint256"
        },
        {
          "indexed": false,
          "internalType": "uint256",
          "name": "timestamp",
          "type": "uint256"
        }
      ],
      "name": "Unstaked",
      "type": "event"
    },
    {
      "inputs": [
        {
          "internalType": "address",
          "name": "_staker",
          "type": "address"
        }
      ],
      "name": "hasStake",
      "outputs": [
        {
          "components": [
            {
              "internalType": "uint256",
              "name": "totalAmount",
              "type": "uint256"
            },
            {
              "components": [
                {
                  "internalType": "address",
                  "name": "user",
                  "type": "address"
                },
                {
                  "internalType": "uint256",
                  "name": "amount",
                  "type": "uint256"
                },
                {
                  "internalType": "uint256",
                  "name": "timeStamp",
                  "type": "uint256"
                },
                {
                  "internalType": "uint256",
                  "name": "claimable",
                  "type": "uint256"
                }
              ],
              "internalType": "struct Stakeable.Stake[]",
              "name": "stakes",
              "type": "tuple[]"
            }
          ],
          "internalType": "struct Stakeable.StakingSummary",
          "name": "",
          "type": "tuple"
        }
      ],
      "stateMutability": "view",
      "type": "function"
    }
  ],
  "bytecode": "0x60806040526103e860005534801561001657600080fd5b5060018054810181556000526103f7806100316000396000f3fe608060405234801561001057600080fd5b506004361061002b5760003560e01c8063e73e14bf14610030575b600080fd5b61004361003e36600461028f565b610059565b60405161005091906102bd565b60405180910390f35b610061610275565b600080604051806040016040528060008152602001600160026000886001600160a01b03166001600160a01b0316815260200190815260200160002054815481106100bc57634e487b7160e01b600052603260045260246000fd5b9060005260206000209060020201600101805480602002602001604051908101604052809291908181526020016000905b8282101561014a576000848152602090819020604080516080810182526004860290920180546001600160a01b031683526001808201548486015260028201549284019290925260030154606083015290835290920191016100ed565b505050915250905060005b81602001515181101561022b5760006101988360200151838151811061018b57634e487b7160e01b600052603260045260246000fd5b6020026020010151610235565b905080836020015183815181106101bf57634e487b7160e01b600052603260045260246000fd5b6020026020010151606001818152505080836020015183815181106101f457634e487b7160e01b600052603260045260246000fd5b6020026020010151602001518561020b919061033d565b610215919061033d565b9350610224905060018261033d565b9050610155565b5090815292915050565b600080548260200151610e108460400151426102519190610394565b61025b9190610355565b6102659190610375565b61026f9190610355565b92915050565b604051806040016040528060008152602001606081525090565b6000602082840312156102a0578081fd5b81356001600160a01b03811681146102b6578182fd5b9392505050565b60006020808352606080840185518386015282860151604080818801528282518085526080945084890191508684019350875b8181101561032e57845180516001600160a01b03168452888101518985015284810151858501528701518784015293870193918501916001016102f0565b50909998505050505050505050565b60008219821115610350576103506103ab565b500190565b60008261037057634e487b7160e01b81526012600452602481fd5b500490565b600081600019048311821515161561038f5761038f6103ab565b500290565b6000828210156103a6576103a66103ab565b500390565b634e487b7160e01b600052601160045260246000fdfea264697066735822122019cda05e81a129c66cc79610b26d4f9b51d1cfec09766226e637a461ece20f6b64736f6c63430008000033",
  "linkReferences": {},
  "deployedLinkReferences": {}
}