{
  "_format": "hh-sol-artifact-1",
  "contractName": "HuskyCoin",
  "sourceName": "contracts/HuskyCoin.sol",
  "abi": [
    {
      "inputs": [],
      "stateMutability": "nonpayable",
      "type": "constructor"
    },
    {
      "anonymous": false,
      "inputs": [
        {
          "indexed": true,
          "internalType": "address",
          "name": "owner",
          "type": "address"
        },
        {
          "indexed": true,
          "internalType": "address",
          "name": "spender",
          "type": "address"
        },
        {
          "indexed": false,
          "internalType": "uint256",
          "name": "value",
          "type": "uint256"
        }
      ],
      "name": "Approval",
      "type": "event"
    },
    {
      "anonymous": false,
      "inputs": [
        {
          "indexed": true,
          "internalType": "address",
          "name": "user",
          "type": "address"
        },
        {
          "indexed": false,
          "internalType": "uint256",
          "name": "amount",
          "type": "uint256"
        },
        {
          "indexed": false,
          "internalType": "uint256",
          "name": "index",
          "type": "uint256"
        },
        {
          "indexed": false,
          "internalType": "uint256",
          "name": "timestamp",
          "type": "uint256"
        }
      ],
      "name": "Staked",
      "type": "event"
    },
    {
      "anonymous": false,
      "inputs": [
        {
          "indexed": true,
          "internalType": "address",
          "name": "from",
          "type": "address"
        },
        {
          "indexed": true,
          "internalType": "address",
          "name": "to",
          "type": "address"
        },
        {
          "indexed": false,
          "internalType": "uint256",
          "name": "value",
          "type": "uint256"
        }
      ],
      "name": "Transfer",
      "type": "event"
    },
    {
      "anonymous": false,
      "inputs": [
        {
          "indexed": true,
          "internalType": "address",
          "name": "user",
          "type": "address"
        },
        {
          "indexed": false,
          "internalType": "uint256",
          "name": "amount",
          "type": "uint256"
        },
        {
          "indexed": false,
          "internalType": "uint256",
          "name": "index",
          "type": "uint256"
        },
        {
          "indexed": false,
          "internalType": "uint256",
          "name": "timestamp",
          "type": "uint256"
        }
      ],
      "name": "Unstaked",
      "type": "event"
    },
    {
      "inputs": [
        {
          "internalType": "address",
          "name": "owner",
          "type": "address"
        },
        {
          "internalType": "address",
          "name": "spender",
          "type": "address"
        }
      ],
      "name": "allowance",
      "outputs": [
        {
          "internalType": "uint256",
          "name": "",
          "type": "uint256"
        }
      ],
      "stateMutability": "view",
      "type": "function"
    },
    {
      "inputs": [
        {
          "internalType": "address",
          "name": "spender",
          "type": "address"
        },
        {
          "internalType": "uint256",
          "name": "amount",
          "type": "uint256"
        }
      ],
      "name": "approve",
      "outputs": [
        {
          "internalType": "bool",
          "name": "",
          "type": "bool"
        }
      ],
      "stateMutability": "nonpayable",
      "type": "function"
    },
    {
      "inputs": [
        {
          "internalType": "address",
          "name": "account",
          "type": "address"
        }
      ],
      "name": "balanceOf",
      "outputs": [
        {
          "internalType": "uint256",
          "name": "",
          "type": "uint256"
        }
      ],
      "stateMutability": "view",
      "type": "function"
    },
    {
      "inputs": [],
      "name": "decimals",
      "outputs": [
        {
          "internalType": "uint8",
          "name": "",
          "type": "uint8"
        }
      ],
      "stateMutability": "view",
      "type": "function"
    },
    {
      "inputs": [
        {
          "internalType": "address",
          "name": "spender",
          "type": "address"
        },
        {
          "internalType": "uint256",
          "name": "subtractedValue",
          "type": "uint256"
        }
      ],
      "name": "decreaseAllowance",
      "outputs": [
        {
          "internalType": "bool",
          "name": "",
          "type": "bool"
        }
      ],
      "stateMutability": "nonpayable",
      "type": "function"
    },
    {
      "inputs": [],
      "name": "dispense",
      "outputs": [],
      "stateMutability": "payable",
      "type": "function"
    },
    {
      "inputs": [],
      "name": "getBalance",
      "outputs": [
        {
          "internalType": "uint256",
          "name": "",
          "type": "uint256"
        }
      ],
      "stateMutability": "view",
      "type": "function"
    },
    {
      "inputs": [],
      "name": "getStakeholderIndex",
      "outputs": [
        {
          "internalType": "uint256",
          "name": "",
          "type": "uint256"
        }
      ],
      "stateMutability": "view",
      "type": "function"
    },
    {
      "inputs": [
        {
          "internalType": "address",
          "name": "_staker",
          "type": "address"
        }
      ],
      "name": "hasStake",
      "outputs": [
        {
          "components": [
            {
              "internalType": "uint256",
              "name": "originalStake",
              "type": "uint256"
            },
            {
              "internalType": "uint256",
              "name": "totalAmount",
              "type": "uint256"
            },
            {
              "components": [
                {
                  "internalType": "address",
                  "name": "user",
                  "type": "address"
                },
                {
                  "internalType": "uint256",
                  "name": "amount",
                  "type": "uint256"
                },
                {
                  "internalType": "uint256",
                  "name": "timeStamp",
                  "type": "uint256"
                },
                {
                  "internalType": "uint256",
                  "name": "claimable",
                  "type": "uint256"
                }
              ],
              "internalType": "struct Stakeable.Stake[]",
              "name": "stakes",
              "type": "tuple[]"
            }
          ],
          "internalType": "struct Stakeable.StakingSummary",
          "name": "",
          "type": "tuple"
        }
      ],
      "stateMutability": "view",
      "type": "function"
    },
    {
      "inputs": [
        {
          "internalType": "address",
          "name": "spender",
          "type": "address"
        },
        {
          "internalType": "uint256",
          "name": "addedValue",
          "type": "uint256"
        }
      ],
      "name": "increaseAllowance",
      "outputs": [
        {
          "internalType": "bool",
          "name": "",
          "type": "bool"
        }
      ],
      "stateMutability": "nonpayable",
      "type": "function"
    },
    {
      "inputs": [
        {
          "internalType": "address",
          "name": "recipient",
          "type": "address"
        },
        {
          "internalType": "uint256",
          "name": "amount",
          "type": "uint256"
        }
      ],
      "name": "mint",
      "outputs": [],
      "stateMutability": "nonpayable",
      "type": "function"
    },
    {
      "inputs": [],
      "name": "name",
      "outputs": [
        {
          "internalType": "string",
          "name": "",
          "type": "string"
        }
      ],
      "stateMutability": "view",
      "type": "function"
    },
    {
      "inputs": [],
      "name": "purchase",
      "outputs": [],
      "stateMutability": "payable",
      "type": "function"
    },
    {
      "inputs": [
        {
          "internalType": "uint256",
          "name": "_amount",
          "type": "uint256"
        }
      ],
      "name": "stake",
      "outputs": [],
      "stateMutability": "nonpayable",
      "type": "function"
    },
    {
      "inputs": [],
      "name": "symbol",
      "outputs": [
        {
          "internalType": "string",
          "name": "",
          "type": "string"
        }
      ],
      "stateMutability": "view",
      "type": "function"
    },
    {
      "inputs": [],
      "name": "totalSupply",
      "outputs": [
        {
          "internalType": "uint256",
          "name": "",
          "type": "uint256"
        }
      ],
      "stateMutability": "view",
      "type": "function"
    },
    {
      "inputs": [
        {
          "internalType": "address",
          "name": "recipient",
          "type": "address"
        },
        {
          "internalType": "uint256",
          "name": "amount",
          "type": "uint256"
        }
      ],
      "name": "transfer",
      "outputs": [
        {
          "internalType": "bool",
          "name": "",
          "type": "bool"
        }
      ],
      "stateMutability": "nonpayable",
      "type": "function"
    },
    {
      "inputs": [
        {
          "internalType": "address",
          "name": "sender",
          "type": "address"
        },
        {
          "internalType": "address",
          "name": "recipient",
          "type": "address"
        },
        {
          "internalType": "uint256",
          "name": "amount",
          "type": "uint256"
        }
      ],
      "name": "transferFrom",
      "outputs": [
        {
          "internalType": "bool",
          "name": "",
          "type": "bool"
        }
      ],
      "stateMutability": "nonpayable",
      "type": "function"
    },
    {
      "inputs": [
        {
          "internalType": "uint256",
          "name": "amount",
          "type": "uint256"
        },
        {
          "internalType": "uint256",
          "name": "stakeIndex",
          "type": "uint256"
        }
      ],
      "name": "withdraw",
      "outputs": [],
      "stateMutability": "nonpayable",
      "type": "function"
    }
  ],
  "bytecode": "0x608060405260646005553480156200001657600080fd5b506040805180820182526009815268243ab9b5bca1b7b4b760b91b6020808301918252835180850190945260058452644855534b5960d81b9084015281519192916200006591600391620001a4565b5080516200007b906004906020840190620001a4565b5050600680546001018155600052506b168532bdc48cb0ddb5840000600955620000b033690eb344079513a1300000620000b6565b620002ec565b620000c28282620000c6565b5050565b6001600160a01b038216620000f85760405162461bcd60e51b8152600401620000ef906200024a565b60405180910390fd5b62000106600083836200019f565b80600260008282546200011a91906200028a565b90915550506001600160a01b03821660009081526020819052604081208054839290620001499084906200028a565b90915550506040516001600160a01b038316906000907fddf252ad1be2c89b69c2b068fc378daa952ba7f163c4a11628f55a4df523b3ef906200018e90859062000281565b60405180910390a3620000c2600083835b505050565b828054620001b290620002af565b90600052602060002090601f016020900481019282620001d6576000855562000221565b82601f10620001f157805160ff191683800117855562000221565b8280016001018555821562000221579182015b828111156200022157825182559160200191906001019062000204565b506200022f92915062000233565b5090565b5b808211156200022f576000815560010162000234565b6020808252601f908201527f45524332303a206d696e7420746f20746865207a65726f206164647265737300604082015260600190565b90815260200190565b60008219821115620002aa57634e487b7160e01b81526011600452602481fd5b500190565b600281046001821680620002c457607f821691505b60208210811415620002e657634e487b7160e01b600052602260045260246000fd5b50919050565b6119f180620002fc6000396000f3fe6080604052600436106101145760003560e01c806340c10f19116100a0578063a457c2d711610064578063a457c2d7146102a6578063a694fc3a146102c6578063a9059cbb146102e6578063dd62ed3e14610306578063e73e14bf1461032657610114565b806340c10f1914610229578063441a3e701461024957806364edfbf01461026957806370a082311461027157806395d89b411461029157610114565b806318160ddd116100e757806318160ddd1461019d57806323b872dd146101b25780632b71b072146101d2578063313ce567146101e7578063395093511461020957610114565b806306fdde0314610119578063095ea7b3146101445780630adb1a9a1461017157806312065fe01461017b575b600080fd5b34801561012557600080fd5b5061012e610353565b60405161013b91906112ee565b60405180910390f35b34801561015057600080fd5b5061016461015f366004611281565b6103e5565b60405161013b91906112e3565b610179610402565b005b34801561018757600080fd5b50610190610490565b60405161013b91906118cf565b3480156101a957600080fd5b506101906104a0565b3480156101be57600080fd5b506101646101cd366004611246565b6104a6565b3480156101de57600080fd5b50610190610536565b3480156101f357600080fd5b506101fc610557565b60405161013b91906118ee565b34801561021557600080fd5b50610164610224366004611281565b61055c565b34801561023557600080fd5b50610179610244366004611281565b6105b0565b34801561025557600080fd5b506101796102643660046112c2565b6105ba565b6101796105d7565b34801561027d57600080fd5b5061019061028c3660046111f3565b61063e565b34801561029d57600080fd5b5061012e61065d565b3480156102b257600080fd5b506101646102c1366004611281565b61066c565b3480156102d257600080fd5b506101796102e13660046112aa565b6106e5565b3480156102f257600080fd5b50610164610301366004611281565b610722565b34801561031257600080fd5b50610190610321366004611214565b610736565b34801561033257600080fd5b506103466103413660046111f3565b610761565b60405161013b9190611840565b6060600380546103629061196a565b80601f016020809104026020016040519081016040528092919081815260200182805461038e9061196a565b80156103db5780601f106103b0576101008083540402835291602001916103db565b820191906000526020600020905b8154815290600101906020018083116103be57829003601f168201915b5050505050905090565b60006103f96103f261098b565b848461098f565b50600192915050565b61040b3361063e565b156104315760405162461bcd60e51b8152600401610428906116d2565b60405180910390fd5b600061043b6104a0565b905060008160095461044d9190611953565b9050690eb344079513a130000081116104785760405162461bcd60e51b8152600401610428906115fe565b61048c33690eb344079513a1300000610a43565b5050565b600061049b3361063e565b905090565b60025490565b60006104b3848484610b0b565b6001600160a01b0384166000908152600160205260408120816104d461098b565b6001600160a01b03166001600160a01b03168152602001908152602001600020549050828110156105175760405162461bcd60e51b81526004016104289061157f565b61052b8561052361098b565b85840361098f565b506001949350505050565b33600090815260076020526040812054610551600182611953565b91505090565b601290565b60006103f961056961098b565b84846001600061057761098b565b6001600160a01b03908116825260208083019390935260409182016000908120918b16815292529020546105ab91906118fc565b61098f565b61048c8282610a43565b60006105c68383610c35565b90506105d23382610a43565b505050565b600034116105f75760405162461bcd60e51b8152600401610428906115c7565b60006106016104a0565b90506000816009546106139190611953565b90508034106106345760405162461bcd60e51b8152600401610428906114a5565b61048c3334610a43565b6001600160a01b0381166000908152602081905260409020545b919050565b6060600480546103629061196a565b6000806001600061067b61098b565b6001600160a01b03908116825260208083019390935260409182016000908120918816815292529020549050828110156106c75760405162461bcd60e51b8152600401610428906117c4565b6106db6106d261098b565b8585840361098f565b5060019392505050565b6106ee3361063e565b811061070c5760405162461bcd60e51b815260040161042890611384565b61071581610ee0565b61071f3382611006565b50565b60006103f961072f61098b565b8484610b0b565b6001600160a01b03918216600090815260016020908152604080832093909416825291909152205490565b6107696111bb565b600080600060405180606001604052806000815260200160008152602001600660076000896001600160a01b03166001600160a01b0316815260200190815260200160002054815481106107cd57634e487b7160e01b600052603260045260246000fd5b9060005260206000209060020201600101805480602002602001604051908101604052809291908181526020016000905b8282101561085b576000848152602090819020604080516080810182526004860290920180546001600160a01b031683526001808201548486015260028201549284019290925260030154606083015290835290920191016107fe565b505050915250905060005b816040015151811015610979578160400151818151811061089757634e487b7160e01b600052603260045260246000fd5b602002602001015160200151836108ae91906118fc565b925060006108e6836040015183815181106108d957634e487b7160e01b600052603260045260246000fd5b60200260200101516110f7565b9050808360400151838151811061090d57634e487b7160e01b600052603260045260246000fd5b60200260200101516060018181525050808360400151838151811061094257634e487b7160e01b600052603260045260246000fd5b6020026020010151602001518661095991906118fc565b61096391906118fc565b945061097290506001826118fc565b9050610866565b50908152602081019190915292915050565b3390565b6001600160a01b0383166109b55760405162461bcd60e51b815260040161042890611780565b6001600160a01b0382166109db5760405162461bcd60e51b815260040161042890611463565b6001600160a01b0380841660008181526001602090815260408083209487168084529490915290819020849055517f8c5be1e5ebec7d5bd14f71427d1e84f3dd0314c0f7b2291e5b200ac8c7c3b92590610a369085906118cf565b60405180910390a3505050565b6001600160a01b038216610a695760405162461bcd60e51b815260040161042890611809565b610a75600083836105d2565b8060026000828254610a8791906118fc565b90915550506001600160a01b03821660009081526020819052604081208054839290610ab49084906118fc565b90915550506040516001600160a01b038316906000907fddf252ad1be2c89b69c2b068fc378daa952ba7f163c4a11628f55a4df523b3ef90610af79085906118cf565b60405180910390a361048c600083836105d2565b6001600160a01b038316610b315760405162461bcd60e51b81526004016104289061173b565b6001600160a01b038216610b575760405162461bcd60e51b815260040161042890611341565b610b628383836105d2565b6001600160a01b03831660009081526020819052604090205481811015610b9b5760405162461bcd60e51b815260040161042890611502565b6001600160a01b03808516600090815260208190526040808220858503905591851681529081208054849290610bd29084906118fc565b92505081905550826001600160a01b0316846001600160a01b03167fddf252ad1be2c89b69c2b068fc378daa952ba7f163c4a11628f55a4df523b3ef84604051610c1c91906118cf565b60405180910390a3610c2f8484846105d2565b50505050565b336000908152600760205260408120546006805483919083908110610c6a57634e487b7160e01b600052603260045260246000fd5b90600052602060002090600202016001018481548110610c9a57634e487b7160e01b600052603260045260246000fd5b600091825260209182902060408051608081018252600490930290910180546001600160a01b0316835260018101549383018490526002810154918301919091526003015460608201529150851115610d055760405162461bcd60e51b8152600401610428906113d5565b426000610d11836110f7565b9050868360200151610d239190611953565b60208401819052610db35760068481548110610d4f57634e487b7160e01b600052603260045260246000fd5b90600052602060002090600202016001018681548110610d7f57634e487b7160e01b600052603260045260246000fd5b60009182526020822060049091020180546001600160a01b0319168155600181018290556002810182905560030155610e86565b826020015160068581548110610dd957634e487b7160e01b600052603260045260246000fd5b90600052602060002090600202016001018781548110610e0957634e487b7160e01b600052603260045260246000fd5b9060005260206000209060040201600101819055504260068581548110610e4057634e487b7160e01b600052603260045260246000fd5b90600052602060002090600202016001018781548110610e7057634e487b7160e01b600052603260045260246000fd5b9060005260206000209060040201600201819055505b336001600160a01b03167f204fccf0d92ed8d48f204adb39b2e81e92bad0dedb93f5716ca9478cfb57de00888885604051610ec3939291906118d8565b60405180910390a2610ed581886118fc565b979650505050505050565b60008111610f005760405162461bcd60e51b815260040161042890611548565b336000908152600760205260409020544281610f2257610f1f33611137565b91505b60068281548110610f4357634e487b7160e01b600052603260045260246000fd5b6000918252602080832060408051608081018252338082528185018a8152828401898152606084018981526002988902909601600190810180548083018255908b52979099209351600490970290930180546001600160a01b0319166001600160a01b039097169690961786555196850196909655519383019390935551600390910155517fb4caaf29adda3eefee3ad552a8e85058589bf834c7466cae4ee58787f70589ed90610ff9908690869086906118d8565b60405180910390a2505050565b6001600160a01b03821661102c5760405162461bcd60e51b815260040161042890611691565b611038826000836105d2565b6001600160a01b038216600090815260208190526040902054818110156110715760405162461bcd60e51b815260040161042890611421565b6001600160a01b03831660009081526020819052604081208383039055600280548492906110a0908490611953565b90915550506040516000906001600160a01b038516907fddf252ad1be2c89b69c2b068fc378daa952ba7f163c4a11628f55a4df523b3ef906110e39086906118cf565b60405180910390a36105d2836000846105d2565b60006005548260200151600a8460400151426111139190611953565b61111d9190611914565b6111279190611934565b6111319190611914565b92915050565b6006805460019081018083556000928352829161115391611953565b9050826006828154811061117757634e487b7160e01b600052603260045260246000fd5b6000918252602080832060029290920290910180546001600160a01b0319166001600160a01b03948516179055949091168152600790935260409092208290555090565b60405180606001604052806000815260200160008152602001606081525090565b80356001600160a01b038116811461065857600080fd5b600060208284031215611204578081fd5b61120d826111dc565b9392505050565b60008060408385031215611226578081fd5b61122f836111dc565b915061123d602084016111dc565b90509250929050565b60008060006060848603121561125a578081fd5b611263846111dc565b9250611271602085016111dc565b9150604084013590509250925092565b60008060408385031215611293578182fd5b61129c836111dc565b946020939093013593505050565b6000602082840312156112bb578081fd5b5035919050565b600080604083850312156112d4578182fd5b50508035926020909101359150565b901515815260200190565b6000602080835283518082850152825b8181101561131a578581018301518582016040015282016112fe565b8181111561132b5783604083870101525b50601f01601f1916929092016040019392505050565b60208082526023908201527f45524332303a207472616e7366657220746f20746865207a65726f206164647260408201526265737360e81b606082015260800190565b60208082526031908201527f596f7520646f6e2774206861766520656e6f75676820746f6b656e7320746f206040820152701cdd185ad9481d1a185d08185b5bdd5b9d607a1b606082015260800190565b6020808252602c908201527f43616e6e6f7420756e7374616b65206d6f7265207468616e20796f757220737460408201526b616b65642062616c616e636560a01b606082015260800190565b60208082526022908201527f45524332303a206275726e20616d6f756e7420657863656564732062616c616e604082015261636560f01b606082015260800190565b60208082526022908201527f45524332303a20617070726f766520746f20746865207a65726f206164647265604082015261737360f01b606082015260800190565b6020808252603d908201527f43616e6e6f74207075726368617365206d6f7265207468616e2072656d61696e60408201527f696e6720756e6d696e74656420737570706c79206f66204855534b5921000000606082015260800190565b60208082526026908201527f45524332303a207472616e7366657220616d6f756e7420657863656564732062604082015265616c616e636560d01b606082015260800190565b6020808252601b908201527f416d6f756e742070726f76696465642063616e6e6f7420626520300000000000604082015260600190565b60208082526028908201527f45524332303a207472616e7366657220616d6f756e74206578636565647320616040820152676c6c6f77616e636560c01b606082015260800190565b6020808252601b908201527f507572636861736520616d6f756e74206d757374206265203e20300000000000604082015260600190565b60208082526067908201527f4d6178696d756d20737570706c79206f66204875736b79436f696e732068617360408201527f206265656e206d65742e20436f6e7461637420686f726e6f73657875616c2e6560608201527f746820616e642061736b2068696d20746f2073656e6420796f7520736f6d65206080820152661a5b9cdd19585960ca1b60a082015260c00190565b60208082526021908201527f45524332303a206275726e2066726f6d20746865207a65726f206164647265736040820152607360f81b606082015260800190565b60208082526043908201527f596f7520616c72656164792068617665204875736b79436f696e732120476f2060408201527f7374616b65207468656d206f722073656e6420746f20796f757220667269656e60608201526232399760e91b608082015260a00190565b60208082526025908201527f45524332303a207472616e736665722066726f6d20746865207a65726f206164604082015264647265737360d81b606082015260800190565b60208082526024908201527f45524332303a20617070726f76652066726f6d20746865207a65726f206164646040820152637265737360e01b606082015260800190565b60208082526025908201527f45524332303a2064656372656173656420616c6c6f77616e63652062656c6f77604082015264207a65726f60d81b606082015260800190565b6020808252601f908201527f45524332303a206d696e7420746f20746865207a65726f206164647265737300604082015260600190565b60006020808352608080840185518386015282860151604081818801528088015191506060808189015283835180865260a08a01915087850195508894505b808510156118c157855180516001600160a01b03168352888101518984015284810151858401528301518383015294870194600194909401939086019061187f565b509998505050505050505050565b90815260200190565b9283526020830191909152604082015260600190565b60ff91909116815260200190565b6000821982111561190f5761190f6119a5565b500190565b60008261192f57634e487b7160e01b81526012600452602481fd5b500490565b600081600019048311821515161561194e5761194e6119a5565b500290565b600082821015611965576119656119a5565b500390565b60028104600182168061197e57607f821691505b6020821081141561199f57634e487b7160e01b600052602260045260246000fd5b50919050565b634e487b7160e01b600052601160045260246000fdfea26469706673582212203495b533b249a6d5ea286d60c456532226f7931e87a8d9c8d0b3e18bc72c7abf64736f6c63430008000033",
  "linkReferences": {},
  "deployedLinkReferences": {}
}