{
  "_format": "hh-sol-artifact-1",
  "contractName": "HuskyCoin",
  "sourceName": "contracts/HuskyCoin.sol",
  "abi": [
    {
      "inputs": [],
      "stateMutability": "nonpayable",
      "type": "constructor"
    },
    {
      "anonymous": false,
      "inputs": [
        {
          "indexed": true,
          "internalType": "address",
          "name": "owner",
          "type": "address"
        },
        {
          "indexed": true,
          "internalType": "address",
          "name": "spender",
          "type": "address"
        },
        {
          "indexed": false,
          "internalType": "uint256",
          "name": "value",
          "type": "uint256"
        }
      ],
      "name": "Approval",
      "type": "event"
    },
    {
      "anonymous": false,
      "inputs": [
        {
          "indexed": true,
          "internalType": "address",
          "name": "user",
          "type": "address"
        },
        {
          "indexed": false,
          "internalType": "uint256",
          "name": "amount",
          "type": "uint256"
        },
        {
          "indexed": false,
          "internalType": "uint256",
          "name": "index",
          "type": "uint256"
        },
        {
          "indexed": false,
          "internalType": "uint256",
          "name": "timestamp",
          "type": "uint256"
        }
      ],
      "name": "Staked",
      "type": "event"
    },
    {
      "anonymous": false,
      "inputs": [
        {
          "indexed": true,
          "internalType": "address",
          "name": "from",
          "type": "address"
        },
        {
          "indexed": true,
          "internalType": "address",
          "name": "to",
          "type": "address"
        },
        {
          "indexed": false,
          "internalType": "uint256",
          "name": "value",
          "type": "uint256"
        }
      ],
      "name": "Transfer",
      "type": "event"
    },
    {
      "anonymous": false,
      "inputs": [
        {
          "indexed": true,
          "internalType": "address",
          "name": "user",
          "type": "address"
        },
        {
          "indexed": false,
          "internalType": "uint256",
          "name": "amount",
          "type": "uint256"
        },
        {
          "indexed": false,
          "internalType": "uint256",
          "name": "index",
          "type": "uint256"
        },
        {
          "indexed": false,
          "internalType": "uint256",
          "name": "timestamp",
          "type": "uint256"
        }
      ],
      "name": "Unstaked",
      "type": "event"
    },
    {
      "inputs": [
        {
          "internalType": "address",
          "name": "owner",
          "type": "address"
        },
        {
          "internalType": "address",
          "name": "spender",
          "type": "address"
        }
      ],
      "name": "allowance",
      "outputs": [
        {
          "internalType": "uint256",
          "name": "",
          "type": "uint256"
        }
      ],
      "stateMutability": "view",
      "type": "function"
    },
    {
      "inputs": [
        {
          "internalType": "address",
          "name": "spender",
          "type": "address"
        },
        {
          "internalType": "uint256",
          "name": "amount",
          "type": "uint256"
        }
      ],
      "name": "approve",
      "outputs": [
        {
          "internalType": "bool",
          "name": "",
          "type": "bool"
        }
      ],
      "stateMutability": "nonpayable",
      "type": "function"
    },
    {
      "inputs": [
        {
          "internalType": "address",
          "name": "account",
          "type": "address"
        }
      ],
      "name": "balanceOf",
      "outputs": [
        {
          "internalType": "uint256",
          "name": "",
          "type": "uint256"
        }
      ],
      "stateMutability": "view",
      "type": "function"
    },
    {
      "inputs": [],
      "name": "decimals",
      "outputs": [
        {
          "internalType": "uint8",
          "name": "",
          "type": "uint8"
        }
      ],
      "stateMutability": "view",
      "type": "function"
    },
    {
      "inputs": [
        {
          "internalType": "address",
          "name": "spender",
          "type": "address"
        },
        {
          "internalType": "uint256",
          "name": "subtractedValue",
          "type": "uint256"
        }
      ],
      "name": "decreaseAllowance",
      "outputs": [
        {
          "internalType": "bool",
          "name": "",
          "type": "bool"
        }
      ],
      "stateMutability": "nonpayable",
      "type": "function"
    },
    {
      "inputs": [
        {
          "internalType": "address",
          "name": "_staker",
          "type": "address"
        }
      ],
      "name": "hasStake",
      "outputs": [
        {
          "components": [
            {
              "internalType": "uint256",
              "name": "totalAmount",
              "type": "uint256"
            },
            {
              "components": [
                {
                  "internalType": "address",
                  "name": "user",
                  "type": "address"
                },
                {
                  "internalType": "uint256",
                  "name": "amount",
                  "type": "uint256"
                },
                {
                  "internalType": "uint256",
                  "name": "timeStamp",
                  "type": "uint256"
                },
                {
                  "internalType": "uint256",
                  "name": "claimable",
                  "type": "uint256"
                }
              ],
              "internalType": "struct Stakeable.Stake[]",
              "name": "stakes",
              "type": "tuple[]"
            }
          ],
          "internalType": "struct Stakeable.StakingSummary",
          "name": "",
          "type": "tuple"
        }
      ],
      "stateMutability": "view",
      "type": "function"
    },
    {
      "inputs": [
        {
          "internalType": "address",
          "name": "spender",
          "type": "address"
        },
        {
          "internalType": "uint256",
          "name": "addedValue",
          "type": "uint256"
        }
      ],
      "name": "increaseAllowance",
      "outputs": [
        {
          "internalType": "bool",
          "name": "",
          "type": "bool"
        }
      ],
      "stateMutability": "nonpayable",
      "type": "function"
    },
    {
      "inputs": [
        {
          "internalType": "address",
          "name": "recipient",
          "type": "address"
        },
        {
          "internalType": "uint256",
          "name": "amount",
          "type": "uint256"
        }
      ],
      "name": "mint",
      "outputs": [],
      "stateMutability": "nonpayable",
      "type": "function"
    },
    {
      "inputs": [],
      "name": "name",
      "outputs": [
        {
          "internalType": "string",
          "name": "",
          "type": "string"
        }
      ],
      "stateMutability": "view",
      "type": "function"
    },
    {
      "inputs": [],
      "name": "purchase",
      "outputs": [],
      "stateMutability": "payable",
      "type": "function"
    },
    {
      "inputs": [
        {
          "internalType": "uint256",
          "name": "_amount",
          "type": "uint256"
        }
      ],
      "name": "stake",
      "outputs": [],
      "stateMutability": "nonpayable",
      "type": "function"
    },
    {
      "inputs": [],
      "name": "symbol",
      "outputs": [
        {
          "internalType": "string",
          "name": "",
          "type": "string"
        }
      ],
      "stateMutability": "view",
      "type": "function"
    },
    {
      "inputs": [],
      "name": "totalSupply",
      "outputs": [
        {
          "internalType": "uint256",
          "name": "",
          "type": "uint256"
        }
      ],
      "stateMutability": "view",
      "type": "function"
    },
    {
      "inputs": [
        {
          "internalType": "address",
          "name": "recipient",
          "type": "address"
        },
        {
          "internalType": "uint256",
          "name": "amount",
          "type": "uint256"
        }
      ],
      "name": "transfer",
      "outputs": [
        {
          "internalType": "bool",
          "name": "",
          "type": "bool"
        }
      ],
      "stateMutability": "nonpayable",
      "type": "function"
    },
    {
      "inputs": [
        {
          "internalType": "address",
          "name": "sender",
          "type": "address"
        },
        {
          "internalType": "address",
          "name": "recipient",
          "type": "address"
        },
        {
          "internalType": "uint256",
          "name": "amount",
          "type": "uint256"
        }
      ],
      "name": "transferFrom",
      "outputs": [
        {
          "internalType": "bool",
          "name": "",
          "type": "bool"
        }
      ],
      "stateMutability": "nonpayable",
      "type": "function"
    },
    {
      "inputs": [
        {
          "internalType": "uint256",
          "name": "amount",
          "type": "uint256"
        },
        {
          "internalType": "uint256",
          "name": "stakeIndex",
          "type": "uint256"
        }
      ],
      "name": "withdraw",
      "outputs": [],
      "stateMutability": "nonpayable",
      "type": "function"
    }
  ],
  "bytecode": "0x60806040526103e86005553480156200001757600080fd5b506040805180820182526009815268243ab9b5bca1b7b4b760b91b6020808301918252835180850190945260058452644855534b5960d81b908401528151919291620000669160039162000091565b5080516200007c90600490602084019062000091565b50506006805460010181556000525062000174565b8280546200009f9062000137565b90600052602060002090601f016020900481019282620000c357600085556200010e565b82601f10620000de57805160ff19168380011785556200010e565b828001600101855582156200010e579182015b828111156200010e578251825591602001919060010190620000f1565b506200011c92915062000120565b5090565b5b808211156200011c576000815560010162000121565b6002810460018216806200014c57607f821691505b602082108114156200016e57634e487b7160e01b600052602260045260246000fd5b50919050565b61178280620001846000396000f3fe6080604052600436106100f35760003560e01c806364edfbf01161008a578063a694fc3a11610059578063a694fc3a14610273578063a9059cbb14610293578063dd62ed3e146102b3578063e73e14bf146102d3576100f3565b806364edfbf01461021657806370a082311461021e57806395d89b411461023e578063a457c2d714610253576100f3565b8063313ce567116100c6578063313ce5671461019257806339509351146101b457806340c10f19146101d4578063441a3e70146101f6576100f3565b806306fdde03146100f8578063095ea7b31461012357806318160ddd1461015057806323b872dd14610172575b600080fd5b34801561010457600080fd5b5061010d610300565b60405161011a919061118a565b60405180910390f35b34801561012f57600080fd5b5061014361013e36600461111d565b610392565b60405161011a919061117f565b34801561015c57600080fd5b506101656103af565b60405161011a9190611660565b34801561017e57600080fd5b5061014361018d3660046110e2565b6103b5565b34801561019e57600080fd5b506101a761044e565b60405161011a919061167f565b3480156101c057600080fd5b506101436101cf36600461111d565b610453565b3480156101e057600080fd5b506101f46101ef36600461111d565b6104a7565b005b34801561020257600080fd5b506101f461021136600461115e565b6104b5565b6101f46104d2565b34801561022a57600080fd5b5061016561023936600461108f565b610539565b34801561024a57600080fd5b5061010d610558565b34801561025f57600080fd5b5061014361026e36600461111d565b610567565b34801561027f57600080fd5b506101f461028e366004611146565b6105e0565b34801561029f57600080fd5b506101436102ae36600461111d565b61061d565b3480156102bf57600080fd5b506101656102ce3660046110b0565b610631565b3480156102df57600080fd5b506102f36102ee36600461108f565b61065c565b60405161011a91906115e0565b60606003805461030f906116fb565b80601f016020809104026020016040519081016040528092919081815260200182805461033b906116fb565b80156103885780601f1061035d57610100808354040283529160200191610388565b820191906000526020600020905b81548152906001019060200180831161036b57829003601f168201915b5050505050905090565b60006103a661039f61082d565b8484610831565b50600192915050565b60025490565b60006103c28484846108e5565b6001600160a01b0384166000908152600160205260408120816103e361082d565b6001600160a01b03166001600160a01b031681526020019081526020016000205490508281101561042f5760405162461bcd60e51b81526004016104269061141b565b60405180910390fd5b6104438561043b61082d565b858403610831565b506001949350505050565b601290565b60006103a661046061082d565b84846001600061046e61082d565b6001600160a01b03908116825260208083019390935260409182016000908120918b16815292529020546104a2919061168d565b610831565b6104b18282610a0f565b5050565b60006104c18383610ad7565b90506104cd3382610a0f565b505050565b600034116104f25760405162461bcd60e51b815260040161042690611463565b60006104fc6103af565b905060008160095461050e91906116e4565b905080341061052f5760405162461bcd60e51b815260040161042690611341565b6104b13334610a0f565b6001600160a01b0381166000908152602081905260409020545b919050565b60606004805461030f906116fb565b6000806001600061057661082d565b6001600160a01b03908116825260208083019390935260409182016000908120918816815292529020549050828110156105c25760405162461bcd60e51b815260040161042690611564565b6105d66105cd61082d565b85858403610831565b5060019392505050565b6105e933610539565b81106106075760405162461bcd60e51b815260040161042690611220565b61061081610d82565b61061a3382610ea8565b50565b60006103a661062a61082d565b84846108e5565b6001600160a01b03918216600090815260016020908152604080832093909416825291909152205490565b61066461105e565b600080604051806040016040528060008152602001600660076000886001600160a01b03166001600160a01b0316815260200190815260200160002054815481106106bf57634e487b7160e01b600052603260045260246000fd5b9060005260206000209060020201600101805480602002602001604051908101604052809291908181526020016000905b8282101561074d576000848152602090819020604080516080810182526004860290920180546001600160a01b031683526001808201548486015260028201549284019290925260030154606083015290835290920191016106f0565b505050915250905060005b81602001515181101561082357600061079b8360200151838151811061078e57634e487b7160e01b600052603260045260246000fd5b6020026020010151610f99565b905080836020015183815181106107c257634e487b7160e01b600052603260045260246000fd5b60200260200101516060018181525050826020015182815181106107f657634e487b7160e01b600052603260045260246000fd5b6020026020010151602001518461080d919061168d565b935061081c905060018261168d565b9050610758565b5090815292915050565b3390565b6001600160a01b0383166108575760405162461bcd60e51b815260040161042690611520565b6001600160a01b03821661087d5760405162461bcd60e51b8152600401610426906112ff565b6001600160a01b0380841660008181526001602090815260408083209487168084529490915290819020849055517f8c5be1e5ebec7d5bd14f71427d1e84f3dd0314c0f7b2291e5b200ac8c7c3b925906108d8908590611660565b60405180910390a3505050565b6001600160a01b03831661090b5760405162461bcd60e51b8152600401610426906114db565b6001600160a01b0382166109315760405162461bcd60e51b8152600401610426906111dd565b61093c8383836104cd565b6001600160a01b038316600090815260208190526040902054818110156109755760405162461bcd60e51b8152600401610426906113d5565b6001600160a01b038085166000908152602081905260408082208585039055918516815290812080548492906109ac90849061168d565b92505081905550826001600160a01b0316846001600160a01b03167fddf252ad1be2c89b69c2b068fc378daa952ba7f163c4a11628f55a4df523b3ef846040516109f69190611660565b60405180910390a3610a098484846104cd565b50505050565b6001600160a01b038216610a355760405162461bcd60e51b8152600401610426906115a9565b610a41600083836104cd565b8060026000828254610a53919061168d565b90915550506001600160a01b03821660009081526020819052604081208054839290610a8090849061168d565b90915550506040516001600160a01b038316906000907fddf252ad1be2c89b69c2b068fc378daa952ba7f163c4a11628f55a4df523b3ef90610ac3908590611660565b60405180910390a36104b1600083836104cd565b336000908152600760205260408120546006805483919083908110610b0c57634e487b7160e01b600052603260045260246000fd5b90600052602060002090600202016001018481548110610b3c57634e487b7160e01b600052603260045260246000fd5b600091825260209182902060408051608081018252600490930290910180546001600160a01b0316835260018101549383018490526002810154918301919091526003015460608201529150851115610ba75760405162461bcd60e51b815260040161042690611271565b426000610bb383610f99565b9050868360200151610bc591906116e4565b60208401819052610c555760068481548110610bf157634e487b7160e01b600052603260045260246000fd5b90600052602060002090600202016001018681548110610c2157634e487b7160e01b600052603260045260246000fd5b60009182526020822060049091020180546001600160a01b0319168155600181018290556002810182905560030155610d28565b826020015160068581548110610c7b57634e487b7160e01b600052603260045260246000fd5b90600052602060002090600202016001018781548110610cab57634e487b7160e01b600052603260045260246000fd5b9060005260206000209060040201600101819055504260068581548110610ce257634e487b7160e01b600052603260045260246000fd5b90600052602060002090600202016001018781548110610d1257634e487b7160e01b600052603260045260246000fd5b9060005260206000209060040201600201819055505b336001600160a01b03167f204fccf0d92ed8d48f204adb39b2e81e92bad0dedb93f5716ca9478cfb57de00888885604051610d6593929190611669565b60405180910390a2610d77818861168d565b979650505050505050565b60008111610da25760405162461bcd60e51b81526004016104269061139e565b336000908152600760205260409020544281610dc457610dc133610fda565b91505b60068281548110610de557634e487b7160e01b600052603260045260246000fd5b6000918252602080832060408051608081018252338082528185018a8152828401898152606084018981526002988902909601600190810180548083018255908b52979099209351600490970290930180546001600160a01b0319166001600160a01b039097169690961786555196850196909655519383019390935551600390910155517fb4caaf29adda3eefee3ad552a8e85058589bf834c7466cae4ee58787f70589ed90610e9b90869086908690611669565b60405180910390a2505050565b6001600160a01b038216610ece5760405162461bcd60e51b81526004016104269061149a565b610eda826000836104cd565b6001600160a01b03821660009081526020819052604090205481811015610f135760405162461bcd60e51b8152600401610426906112bd565b6001600160a01b0383166000908152602081905260408120838303905560028054849290610f429084906116e4565b90915550506040516000906001600160a01b038516907fddf252ad1be2c89b69c2b068fc378daa952ba7f163c4a11628f55a4df523b3ef90610f85908690611660565b60405180910390a36104cd836000846104cd565b60006005548260200151610e10846040015142610fb691906116e4565b610fc091906116a5565b610fca91906116c5565b610fd491906116a5565b92915050565b60068054600190810180835560009283528291610ff6916116e4565b9050826006828154811061101a57634e487b7160e01b600052603260045260246000fd5b6000918252602080832060029290920290910180546001600160a01b0319166001600160a01b03948516179055949091168152600790935260409092208290555090565b604051806040016040528060008152602001606081525090565b80356001600160a01b038116811461055357600080fd5b6000602082840312156110a0578081fd5b6110a982611078565b9392505050565b600080604083850312156110c2578081fd5b6110cb83611078565b91506110d960208401611078565b90509250929050565b6000806000606084860312156110f6578081fd5b6110ff84611078565b925061110d60208501611078565b9150604084013590509250925092565b6000806040838503121561112f578182fd5b61113883611078565b946020939093013593505050565b600060208284031215611157578081fd5b5035919050565b60008060408385031215611170578182fd5b50508035926020909101359150565b901515815260200190565b6000602080835283518082850152825b818110156111b65785810183015185820160400152820161119a565b818111156111c75783604083870101525b50601f01601f1916929092016040019392505050565b60208082526023908201527f45524332303a207472616e7366657220746f20746865207a65726f206164647260408201526265737360e81b606082015260800190565b60208082526031908201527f596f7520646f6e2774206861766520656e6f75676820746f6b656e7320746f206040820152701cdd185ad9481d1a185d08185b5bdd5b9d607a1b606082015260800190565b6020808252602c908201527f43616e6e6f7420756e7374616b65206d6f7265207468616e20796f757220737460408201526b616b65642062616c616e636560a01b606082015260800190565b60208082526022908201527f45524332303a206275726e20616d6f756e7420657863656564732062616c616e604082015261636560f01b606082015260800190565b60208082526022908201527f45524332303a20617070726f766520746f20746865207a65726f206164647265604082015261737360f01b606082015260800190565b6020808252603d908201527f43616e6e6f74207075726368617365206d6f7265207468616e2072656d61696e60408201527f696e6720756e6d696e74656420737570706c79206f66204855534b5921000000606082015260800190565b6020808252601e908201527f416d6f756e742070726f76696465642063616e6e6f74206265203d3d20300000604082015260600190565b60208082526026908201527f45524332303a207472616e7366657220616d6f756e7420657863656564732062604082015265616c616e636560d01b606082015260800190565b60208082526028908201527f45524332303a207472616e7366657220616d6f756e74206578636565647320616040820152676c6c6f77616e636560c01b606082015260800190565b6020808252601b908201527f507572636861736520616d6f756e74206d757374206265203e20300000000000604082015260600190565b60208082526021908201527f45524332303a206275726e2066726f6d20746865207a65726f206164647265736040820152607360f81b606082015260800190565b60208082526025908201527f45524332303a207472616e736665722066726f6d20746865207a65726f206164604082015264647265737360d81b606082015260800190565b60208082526024908201527f45524332303a20617070726f76652066726f6d20746865207a65726f206164646040820152637265737360e01b606082015260800190565b60208082526025908201527f45524332303a2064656372656173656420616c6c6f77616e63652062656c6f77604082015264207a65726f60d81b606082015260800190565b6020808252601f908201527f45524332303a206d696e7420746f20746865207a65726f206164647265737300604082015260600190565b60006020808352606080840185518386015282860151604080818801528282518085526080945084890191508684019350875b8181101561165157845180516001600160a01b0316845288810151898501528481015185850152870151878401529387019391850191600101611613565b50909998505050505050505050565b90815260200190565b9283526020830191909152604082015260600190565b60ff91909116815260200190565b600082198211156116a0576116a0611736565b500190565b6000826116c057634e487b7160e01b81526012600452602481fd5b500490565b60008160001904831182151516156116df576116df611736565b500290565b6000828210156116f6576116f6611736565b500390565b60028104600182168061170f57607f821691505b6020821081141561173057634e487b7160e01b600052602260045260246000fd5b50919050565b634e487b7160e01b600052601160045260246000fdfea2646970667358221220208e9d3bdc54960d86f7615b660c2e9c1efa23b2b1af85b2be514991efa0db3d64736f6c63430008000033",
  "linkReferences": {},
  "deployedLinkReferences": {}
}