{
  "_format": "hh-sol-artifact-1",
  "contractName": "HuskyCoin",
  "sourceName": "contracts/HuskyCoin.sol",
  "abi": [
    {
      "inputs": [],
      "stateMutability": "nonpayable",
      "type": "constructor"
    },
    {
      "anonymous": false,
      "inputs": [
        {
          "indexed": true,
          "internalType": "address",
          "name": "owner",
          "type": "address"
        },
        {
          "indexed": true,
          "internalType": "address",
          "name": "spender",
          "type": "address"
        },
        {
          "indexed": false,
          "internalType": "uint256",
          "name": "value",
          "type": "uint256"
        }
      ],
      "name": "Approval",
      "type": "event"
    },
    {
      "anonymous": false,
      "inputs": [
        {
          "indexed": true,
          "internalType": "address",
          "name": "user",
          "type": "address"
        },
        {
          "indexed": false,
          "internalType": "uint256",
          "name": "amount",
          "type": "uint256"
        },
        {
          "indexed": false,
          "internalType": "uint256",
          "name": "index",
          "type": "uint256"
        },
        {
          "indexed": false,
          "internalType": "uint256",
          "name": "timestamp",
          "type": "uint256"
        }
      ],
      "name": "Staked",
      "type": "event"
    },
    {
      "anonymous": false,
      "inputs": [
        {
          "indexed": true,
          "internalType": "address",
          "name": "from",
          "type": "address"
        },
        {
          "indexed": true,
          "internalType": "address",
          "name": "to",
          "type": "address"
        },
        {
          "indexed": false,
          "internalType": "uint256",
          "name": "value",
          "type": "uint256"
        }
      ],
      "name": "Transfer",
      "type": "event"
    },
    {
      "anonymous": false,
      "inputs": [
        {
          "indexed": true,
          "internalType": "address",
          "name": "user",
          "type": "address"
        },
        {
          "indexed": false,
          "internalType": "uint256",
          "name": "amount",
          "type": "uint256"
        },
        {
          "indexed": false,
          "internalType": "uint256",
          "name": "index",
          "type": "uint256"
        },
        {
          "indexed": false,
          "internalType": "uint256",
          "name": "timestamp",
          "type": "uint256"
        }
      ],
      "name": "Unstaked",
      "type": "event"
    },
    {
      "stateMutability": "payable",
      "type": "fallback"
    },
    {
      "inputs": [
        {
          "internalType": "address",
          "name": "owner",
          "type": "address"
        },
        {
          "internalType": "address",
          "name": "spender",
          "type": "address"
        }
      ],
      "name": "allowance",
      "outputs": [
        {
          "internalType": "uint256",
          "name": "",
          "type": "uint256"
        }
      ],
      "stateMutability": "view",
      "type": "function"
    },
    {
      "inputs": [
        {
          "internalType": "address",
          "name": "spender",
          "type": "address"
        },
        {
          "internalType": "uint256",
          "name": "amount",
          "type": "uint256"
        }
      ],
      "name": "approve",
      "outputs": [
        {
          "internalType": "bool",
          "name": "",
          "type": "bool"
        }
      ],
      "stateMutability": "nonpayable",
      "type": "function"
    },
    {
      "inputs": [
        {
          "internalType": "address",
          "name": "account",
          "type": "address"
        }
      ],
      "name": "balanceOf",
      "outputs": [
        {
          "internalType": "uint256",
          "name": "",
          "type": "uint256"
        }
      ],
      "stateMutability": "view",
      "type": "function"
    },
    {
      "inputs": [],
      "name": "decimals",
      "outputs": [
        {
          "internalType": "uint8",
          "name": "",
          "type": "uint8"
        }
      ],
      "stateMutability": "view",
      "type": "function"
    },
    {
      "inputs": [
        {
          "internalType": "address",
          "name": "spender",
          "type": "address"
        },
        {
          "internalType": "uint256",
          "name": "subtractedValue",
          "type": "uint256"
        }
      ],
      "name": "decreaseAllowance",
      "outputs": [
        {
          "internalType": "bool",
          "name": "",
          "type": "bool"
        }
      ],
      "stateMutability": "nonpayable",
      "type": "function"
    },
    {
      "inputs": [],
      "name": "dispense",
      "outputs": [],
      "stateMutability": "payable",
      "type": "function"
    },
    {
      "inputs": [],
      "name": "getBalance",
      "outputs": [
        {
          "internalType": "uint256",
          "name": "",
          "type": "uint256"
        }
      ],
      "stateMutability": "view",
      "type": "function"
    },
    {
      "inputs": [],
      "name": "getStakeholderIndex",
      "outputs": [
        {
          "internalType": "uint256",
          "name": "",
          "type": "uint256"
        }
      ],
      "stateMutability": "view",
      "type": "function"
    },
    {
      "inputs": [
        {
          "internalType": "address",
          "name": "_staker",
          "type": "address"
        }
      ],
      "name": "hasStake",
      "outputs": [
        {
          "components": [
            {
              "internalType": "uint256",
              "name": "originalStake",
              "type": "uint256"
            },
            {
              "internalType": "uint256",
              "name": "totalAmount",
              "type": "uint256"
            },
            {
              "components": [
                {
                  "internalType": "address",
                  "name": "user",
                  "type": "address"
                },
                {
                  "internalType": "uint256",
                  "name": "amount",
                  "type": "uint256"
                },
                {
                  "internalType": "uint256",
                  "name": "timeStamp",
                  "type": "uint256"
                },
                {
                  "internalType": "uint256",
                  "name": "claimable",
                  "type": "uint256"
                }
              ],
              "internalType": "struct Stakeable.Stake[]",
              "name": "stakes",
              "type": "tuple[]"
            }
          ],
          "internalType": "struct Stakeable.StakingSummary",
          "name": "",
          "type": "tuple"
        }
      ],
      "stateMutability": "view",
      "type": "function"
    },
    {
      "inputs": [
        {
          "internalType": "address",
          "name": "spender",
          "type": "address"
        },
        {
          "internalType": "uint256",
          "name": "addedValue",
          "type": "uint256"
        }
      ],
      "name": "increaseAllowance",
      "outputs": [
        {
          "internalType": "bool",
          "name": "",
          "type": "bool"
        }
      ],
      "stateMutability": "nonpayable",
      "type": "function"
    },
    {
      "inputs": [
        {
          "internalType": "address",
          "name": "recipient",
          "type": "address"
        },
        {
          "internalType": "uint256",
          "name": "amount",
          "type": "uint256"
        }
      ],
      "name": "mint",
      "outputs": [],
      "stateMutability": "nonpayable",
      "type": "function"
    },
    {
      "inputs": [],
      "name": "name",
      "outputs": [
        {
          "internalType": "string",
          "name": "",
          "type": "string"
        }
      ],
      "stateMutability": "view",
      "type": "function"
    },
    {
      "inputs": [],
      "name": "purchase",
      "outputs": [],
      "stateMutability": "payable",
      "type": "function"
    },
    {
      "inputs": [],
      "name": "reclaim",
      "outputs": [],
      "stateMutability": "nonpayable",
      "type": "function"
    },
    {
      "inputs": [
        {
          "internalType": "uint256",
          "name": "_amount",
          "type": "uint256"
        }
      ],
      "name": "stake",
      "outputs": [],
      "stateMutability": "nonpayable",
      "type": "function"
    },
    {
      "inputs": [],
      "name": "symbol",
      "outputs": [
        {
          "internalType": "string",
          "name": "",
          "type": "string"
        }
      ],
      "stateMutability": "view",
      "type": "function"
    },
    {
      "inputs": [],
      "name": "totalSupply",
      "outputs": [
        {
          "internalType": "uint256",
          "name": "",
          "type": "uint256"
        }
      ],
      "stateMutability": "view",
      "type": "function"
    },
    {
      "inputs": [
        {
          "internalType": "address",
          "name": "recipient",
          "type": "address"
        },
        {
          "internalType": "uint256",
          "name": "amount",
          "type": "uint256"
        }
      ],
      "name": "transfer",
      "outputs": [
        {
          "internalType": "bool",
          "name": "",
          "type": "bool"
        }
      ],
      "stateMutability": "nonpayable",
      "type": "function"
    },
    {
      "inputs": [
        {
          "internalType": "address",
          "name": "sender",
          "type": "address"
        },
        {
          "internalType": "address",
          "name": "recipient",
          "type": "address"
        },
        {
          "internalType": "uint256",
          "name": "amount",
          "type": "uint256"
        }
      ],
      "name": "transferFrom",
      "outputs": [
        {
          "internalType": "bool",
          "name": "",
          "type": "bool"
        }
      ],
      "stateMutability": "nonpayable",
      "type": "function"
    },
    {
      "inputs": [
        {
          "internalType": "uint256",
          "name": "amount",
          "type": "uint256"
        },
        {
          "internalType": "uint256",
          "name": "stakeIndex",
          "type": "uint256"
        }
      ],
      "name": "withdraw",
      "outputs": [],
      "stateMutability": "nonpayable",
      "type": "function"
    },
    {
      "stateMutability": "payable",
      "type": "receive"
    }
  ],
  "bytecode": "0x6080604052629896806005553480156200001857600080fd5b506040805180820182526009815268243ab9b5bca1b7b4b760b91b6020808301918252835180850190945260058452644855534b5960d81b9084015281519192916200006791600391620001d3565b5080516200007d906004906020840190620001d3565b505060068054600101815560005250600880546001600160a01b031916339081179091556b168532bdc48cb0ddb5840000600955620000c790690eb344079513a1300000620000cd565b6200031b565b6008546001600160a01b03163314620000e557600080fd5b620000f18282620000f5565b5050565b6001600160a01b038216620001275760405162461bcd60e51b81526004016200011e9062000279565b60405180910390fd5b6200013560008383620001ce565b8060026000828254620001499190620002b9565b90915550506001600160a01b0382166000908152602081905260408120805483929062000178908490620002b9565b90915550506040516001600160a01b038316906000907fddf252ad1be2c89b69c2b068fc378daa952ba7f163c4a11628f55a4df523b3ef90620001bd908590620002b0565b60405180910390a3620000f1600083835b505050565b828054620001e190620002de565b90600052602060002090601f01602090048101928262000205576000855562000250565b82601f106200022057805160ff191683800117855562000250565b8280016001018555821562000250579182015b828111156200025057825182559160200191906001019062000233565b506200025e92915062000262565b5090565b5b808211156200025e576000815560010162000263565b6020808252601f908201527f45524332303a206d696e7420746f20746865207a65726f206164647265737300604082015260600190565b90815260200190565b60008219821115620002d957634e487b7160e01b81526011600452602481fd5b500190565b600281046001821680620002f357607f821691505b602082108114156200031557634e487b7160e01b600052602260045260246000fd5b50919050565b611af0806200032b6000396000f3fe6080604052600436106101235760003560e01c8063441a3e70116100a0578063a457c2d711610064578063a457c2d7146102cc578063a694fc3a146102ec578063a9059cbb1461030c578063dd62ed3e1461032c578063e73e14bf1461034c5761012a565b8063441a3e701461025a57806364edfbf01461027a57806370a082311461028257806380e9071b146102a257806395d89b41146102b75761012a565b806323b872dd116100e757806323b872dd146101c35780632b71b072146101e3578063313ce567146101f8578063395093511461021a57806340c10f191461023a5761012a565b806306fdde031461012c578063095ea7b3146101575780630adb1a9a1461018457806312065fe01461018c57806318160ddd146101ae5761012a565b3661012a57005b005b34801561013857600080fd5b50610141610379565b60405161014e91906113c8565b60405180910390f35b34801561016357600080fd5b50610177610172366004611358565b61040b565b60405161014e91906113bd565b61012a610428565b34801561019857600080fd5b506101a16104b6565b60405161014e91906119ce565b3480156101ba57600080fd5b506101a16104c6565b3480156101cf57600080fd5b506101776101de36600461131d565b6104cc565b3480156101ef57600080fd5b506101a161055c565b34801561020457600080fd5b5061020d61057d565b60405161014e91906119ed565b34801561022657600080fd5b50610177610235366004611358565b610582565b34801561024657600080fd5b5061012a610255366004611358565b6105d6565b34801561026657600080fd5b5061012a610275366004611399565b6105f7565b61012a610614565b34801561028e57600080fd5b506101a161029d3660046112ca565b61067b565b3480156102ae57600080fd5b5061012a61069a565b3480156102c357600080fd5b50610141610734565b3480156102d857600080fd5b506101776102e7366004611358565b610743565b3480156102f857600080fd5b5061012a610307366004611381565b6107bc565b34801561031857600080fd5b50610177610327366004611358565b6107f9565b34801561033857600080fd5b506101a16103473660046112eb565b61080d565b34801561035857600080fd5b5061036c6103673660046112ca565b610838565b60405161014e919061193f565b60606003805461038890611a69565b80601f01602080910402602001604051908101604052809291908181526020018280546103b490611a69565b80156104015780601f106103d657610100808354040283529160200191610401565b820191906000526020600020905b8154815290600101906020018083116103e457829003601f168201915b5050505050905090565b600061041f610418610a62565b8484610a66565b50600192915050565b6104313361067b565b156104575760405162461bcd60e51b815260040161044e906117d1565b60405180910390fd5b60006104616104c6565b90506000816009546104739190611a52565b9050690eb344079513a1300000811161049e5760405162461bcd60e51b815260040161044e906116fd565b6104b233690eb344079513a1300000610b1a565b5050565b60006104c13361067b565b905090565b60025490565b60006104d9848484610be2565b6001600160a01b0384166000908152600160205260408120816104fa610a62565b6001600160a01b03166001600160a01b031681526020019081526020016000205490508281101561053d5760405162461bcd60e51b815260040161044e9061167e565b61055185610549610a62565b858403610a66565b506001949350505050565b33600090815260076020526040812054610577600182611a52565b91505090565b601290565b600061041f61058f610a62565b84846001600061059d610a62565b6001600160a01b03908116825260208083019390935260409182016000908120918b16815292529020546105d191906119fb565b610a66565b6008546001600160a01b031633146105ed57600080fd5b6104b28282610b1a565b60006106038383610d0c565b905061060f3382610b1a565b505050565b600034116106345760405162461bcd60e51b815260040161044e906116c6565b600061063e6104c6565b90506000816009546106509190611a52565b90508034106106715760405162461bcd60e51b815260040161044e906115a4565b6104b23334610b1a565b6001600160a01b0381166000908152602081905260409020545b919050565b6008546001600160a01b031633146106b157600080fd5b6000479050600080336001600160a01b0316836040516106d0906113ba565b60006040518083038185875af1925050503d806000811461070d576040519150601f19603f3d011682016040523d82523d6000602084013e610712565b606091505b50915091508161060f5760405162461bcd60e51b815260040161044e9061145e565b60606004805461038890611a69565b60008060016000610752610a62565b6001600160a01b039081168252602080830193909352604091820160009081209188168152925290205490508281101561079e5760405162461bcd60e51b815260040161044e906118c3565b6107b26107a9610a62565b85858403610a66565b5060019392505050565b6107c53361067b565b81106107e35760405162461bcd60e51b815260040161044e90611483565b6107ec81610fb7565b6107f633826110dd565b50565b600061041f610806610a62565b8484610be2565b6001600160a01b03918216600090815260016020908152604080832093909416825291909152205490565b610840611292565b600080600060405180606001604052806000815260200160008152602001600660076000896001600160a01b03166001600160a01b0316815260200190815260200160002054815481106108a457634e487b7160e01b600052603260045260246000fd5b9060005260206000209060020201600101805480602002602001604051908101604052809291908181526020016000905b82821015610932576000848152602090819020604080516080810182526004860290920180546001600160a01b031683526001808201548486015260028201549284019290925260030154606083015290835290920191016108d5565b505050915250905060005b816040015151811015610a50578160400151818151811061096e57634e487b7160e01b600052603260045260246000fd5b6020026020010151602001518361098591906119fb565b925060006109bd836040015183815181106109b057634e487b7160e01b600052603260045260246000fd5b60200260200101516111ce565b905080836040015183815181106109e457634e487b7160e01b600052603260045260246000fd5b602002602001015160600181815250508083604001518381518110610a1957634e487b7160e01b600052603260045260246000fd5b60200260200101516020015186610a3091906119fb565b610a3a91906119fb565b9450610a4990506001826119fb565b905061093d565b50908152602081019190915292915050565b3390565b6001600160a01b038316610a8c5760405162461bcd60e51b815260040161044e9061187f565b6001600160a01b038216610ab25760405162461bcd60e51b815260040161044e90611562565b6001600160a01b0380841660008181526001602090815260408083209487168084529490915290819020849055517f8c5be1e5ebec7d5bd14f71427d1e84f3dd0314c0f7b2291e5b200ac8c7c3b92590610b0d9085906119ce565b60405180910390a3505050565b6001600160a01b038216610b405760405162461bcd60e51b815260040161044e90611908565b610b4c6000838361060f565b8060026000828254610b5e91906119fb565b90915550506001600160a01b03821660009081526020819052604081208054839290610b8b9084906119fb565b90915550506040516001600160a01b038316906000907fddf252ad1be2c89b69c2b068fc378daa952ba7f163c4a11628f55a4df523b3ef90610bce9085906119ce565b60405180910390a36104b26000838361060f565b6001600160a01b038316610c085760405162461bcd60e51b815260040161044e9061183a565b6001600160a01b038216610c2e5760405162461bcd60e51b815260040161044e9061141b565b610c3983838361060f565b6001600160a01b03831660009081526020819052604090205481811015610c725760405162461bcd60e51b815260040161044e90611601565b6001600160a01b03808516600090815260208190526040808220858503905591851681529081208054849290610ca99084906119fb565b92505081905550826001600160a01b0316846001600160a01b03167fddf252ad1be2c89b69c2b068fc378daa952ba7f163c4a11628f55a4df523b3ef84604051610cf391906119ce565b60405180910390a3610d0684848461060f565b50505050565b336000908152600760205260408120546006805483919083908110610d4157634e487b7160e01b600052603260045260246000fd5b90600052602060002090600202016001018481548110610d7157634e487b7160e01b600052603260045260246000fd5b600091825260209182902060408051608081018252600490930290910180546001600160a01b0316835260018101549383018490526002810154918301919091526003015460608201529150851115610ddc5760405162461bcd60e51b815260040161044e906114d4565b426000610de8836111ce565b9050868360200151610dfa9190611a52565b60208401819052610e8a5760068481548110610e2657634e487b7160e01b600052603260045260246000fd5b90600052602060002090600202016001018681548110610e5657634e487b7160e01b600052603260045260246000fd5b60009182526020822060049091020180546001600160a01b0319168155600181018290556002810182905560030155610f5d565b826020015160068581548110610eb057634e487b7160e01b600052603260045260246000fd5b90600052602060002090600202016001018781548110610ee057634e487b7160e01b600052603260045260246000fd5b9060005260206000209060040201600101819055504260068581548110610f1757634e487b7160e01b600052603260045260246000fd5b90600052602060002090600202016001018781548110610f4757634e487b7160e01b600052603260045260246000fd5b9060005260206000209060040201600201819055505b336001600160a01b03167f204fccf0d92ed8d48f204adb39b2e81e92bad0dedb93f5716ca9478cfb57de00888885604051610f9a939291906119d7565b60405180910390a2610fac81886119fb565b979650505050505050565b60008111610fd75760405162461bcd60e51b815260040161044e90611647565b336000908152600760205260409020544281610ff957610ff63361120e565b91505b6006828154811061101a57634e487b7160e01b600052603260045260246000fd5b6000918252602080832060408051608081018252338082528185018a8152828401898152606084018981526002988902909601600190810180548083018255908b52979099209351600490970290930180546001600160a01b0319166001600160a01b039097169690961786555196850196909655519383019390935551600390910155517fb4caaf29adda3eefee3ad552a8e85058589bf834c7466cae4ee58787f70589ed906110d0908690869086906119d7565b60405180910390a2505050565b6001600160a01b0382166111035760405162461bcd60e51b815260040161044e90611790565b61110f8260008361060f565b6001600160a01b038216600090815260208190526040902054818110156111485760405162461bcd60e51b815260040161044e90611520565b6001600160a01b0383166000908152602081905260408120838303905560028054849290611177908490611a52565b90915550506040516000906001600160a01b038516907fddf252ad1be2c89b69c2b068fc378daa952ba7f163c4a11628f55a4df523b3ef906111ba9086906119ce565b60405180910390a361060f8360008461060f565b60006005548260200151600a8460400151426111ea9190611a52565b6111f49190611a13565b6111fe9190611a33565b6112089190611a13565b92915050565b6006805460019081018083556000928352829161122a91611a52565b9050826006828154811061124e57634e487b7160e01b600052603260045260246000fd5b6000918252602080832060029290920290910180546001600160a01b0319166001600160a01b03948516179055949091168152600790935260409092208290555090565b60405180606001604052806000815260200160008152602001606081525090565b80356001600160a01b038116811461069557600080fd5b6000602082840312156112db578081fd5b6112e4826112b3565b9392505050565b600080604083850312156112fd578081fd5b611306836112b3565b9150611314602084016112b3565b90509250929050565b600080600060608486031215611331578081fd5b61133a846112b3565b9250611348602085016112b3565b9150604084013590509250925092565b6000806040838503121561136a578182fd5b611373836112b3565b946020939093013593505050565b600060208284031215611392578081fd5b5035919050565b600080604083850312156113ab578182fd5b50508035926020909101359150565b90565b901515815260200190565b6000602080835283518082850152825b818110156113f4578581018301518582016040015282016113d8565b818111156114055783604083870101525b50601f01601f1916929092016040019392505050565b60208082526023908201527f45524332303a207472616e7366657220746f20746865207a65726f206164647260408201526265737360e81b606082015260800190565b6020808252600b908201526a11985a5b1959081cd95b9960aa1b604082015260600190565b60208082526031908201527f596f7520646f6e2774206861766520656e6f75676820746f6b656e7320746f206040820152701cdd185ad9481d1a185d08185b5bdd5b9d607a1b606082015260800190565b6020808252602c908201527f43616e6e6f7420756e7374616b65206d6f7265207468616e20796f757220737460408201526b616b65642062616c616e636560a01b606082015260800190565b60208082526022908201527f45524332303a206275726e20616d6f756e7420657863656564732062616c616e604082015261636560f01b606082015260800190565b60208082526022908201527f45524332303a20617070726f766520746f20746865207a65726f206164647265604082015261737360f01b606082015260800190565b6020808252603d908201527f43616e6e6f74207075726368617365206d6f7265207468616e2072656d61696e60408201527f696e6720756e6d696e74656420737570706c79206f66204855534b5921000000606082015260800190565b60208082526026908201527f45524332303a207472616e7366657220616d6f756e7420657863656564732062604082015265616c616e636560d01b606082015260800190565b6020808252601b908201527f416d6f756e742070726f76696465642063616e6e6f7420626520300000000000604082015260600190565b60208082526028908201527f45524332303a207472616e7366657220616d6f756e74206578636565647320616040820152676c6c6f77616e636560c01b606082015260800190565b6020808252601b908201527f507572636861736520616d6f756e74206d757374206265203e20300000000000604082015260600190565b60208082526067908201527f4d6178696d756d20737570706c79206f66204875736b79436f696e732068617360408201527f206265656e206d65742e20436f6e7461637420686f726e6f73657875616c2e6560608201527f746820616e642061736b2068696d20746f2073656e6420796f7520736f6d65206080820152661a5b9cdd19585960ca1b60a082015260c00190565b60208082526021908201527f45524332303a206275726e2066726f6d20746865207a65726f206164647265736040820152607360f81b606082015260800190565b60208082526043908201527f596f7520616c72656164792068617665204875736b79436f696e732120476f2060408201527f7374616b65207468656d206f722073656e6420746f20796f757220667269656e60608201526232399760e91b608082015260a00190565b60208082526025908201527f45524332303a207472616e736665722066726f6d20746865207a65726f206164604082015264647265737360d81b606082015260800190565b60208082526024908201527f45524332303a20617070726f76652066726f6d20746865207a65726f206164646040820152637265737360e01b606082015260800190565b60208082526025908201527f45524332303a2064656372656173656420616c6c6f77616e63652062656c6f77604082015264207a65726f60d81b606082015260800190565b6020808252601f908201527f45524332303a206d696e7420746f20746865207a65726f206164647265737300604082015260600190565b60006020808352608080840185518386015282860151604081818801528088015191506060808189015283835180865260a08a01915087850195508894505b808510156119c057855180516001600160a01b03168352888101518984015284810151858401528301518383015294870194600194909401939086019061197e565b509998505050505050505050565b90815260200190565b9283526020830191909152604082015260600190565b60ff91909116815260200190565b60008219821115611a0e57611a0e611aa4565b500190565b600082611a2e57634e487b7160e01b81526012600452602481fd5b500490565b6000816000190483118215151615611a4d57611a4d611aa4565b500290565b600082821015611a6457611a64611aa4565b500390565b600281046001821680611a7d57607f821691505b60208210811415611a9e57634e487b7160e01b600052602260045260246000fd5b50919050565b634e487b7160e01b600052601160045260246000fdfea264697066735822122036a487596bda62872d22f8f458351627c5b5cb1606f3a4c9a057ab4abd4308eb64736f6c63430008000033",
  "linkReferences": {},
  "deployedLinkReferences": {}
}