{
  "_format": "hh-sol-artifact-1",
  "contractName": "HuskyCoin",
  "sourceName": "contracts/HuskyCoin.sol",
  "abi": [
    {
      "inputs": [],
      "stateMutability": "nonpayable",
      "type": "constructor"
    },
    {
      "anonymous": false,
      "inputs": [
        {
          "indexed": true,
          "internalType": "address",
          "name": "owner",
          "type": "address"
        },
        {
          "indexed": true,
          "internalType": "address",
          "name": "spender",
          "type": "address"
        },
        {
          "indexed": false,
          "internalType": "uint256",
          "name": "value",
          "type": "uint256"
        }
      ],
      "name": "Approval",
      "type": "event"
    },
    {
      "anonymous": false,
      "inputs": [
        {
          "indexed": true,
          "internalType": "address",
          "name": "user",
          "type": "address"
        },
        {
          "indexed": false,
          "internalType": "uint256",
          "name": "amount",
          "type": "uint256"
        },
        {
          "indexed": false,
          "internalType": "uint256",
          "name": "index",
          "type": "uint256"
        },
        {
          "indexed": false,
          "internalType": "uint256",
          "name": "timestamp",
          "type": "uint256"
        }
      ],
      "name": "Staked",
      "type": "event"
    },
    {
      "anonymous": false,
      "inputs": [
        {
          "indexed": true,
          "internalType": "address",
          "name": "from",
          "type": "address"
        },
        {
          "indexed": true,
          "internalType": "address",
          "name": "to",
          "type": "address"
        },
        {
          "indexed": false,
          "internalType": "uint256",
          "name": "value",
          "type": "uint256"
        }
      ],
      "name": "Transfer",
      "type": "event"
    },
    {
      "anonymous": false,
      "inputs": [
        {
          "indexed": true,
          "internalType": "address",
          "name": "user",
          "type": "address"
        },
        {
          "indexed": false,
          "internalType": "uint256",
          "name": "amount",
          "type": "uint256"
        },
        {
          "indexed": false,
          "internalType": "uint256",
          "name": "index",
          "type": "uint256"
        },
        {
          "indexed": false,
          "internalType": "uint256",
          "name": "timestamp",
          "type": "uint256"
        }
      ],
      "name": "Unstaked",
      "type": "event"
    },
    {
      "inputs": [
        {
          "internalType": "address",
          "name": "owner",
          "type": "address"
        },
        {
          "internalType": "address",
          "name": "spender",
          "type": "address"
        }
      ],
      "name": "allowance",
      "outputs": [
        {
          "internalType": "uint256",
          "name": "",
          "type": "uint256"
        }
      ],
      "stateMutability": "view",
      "type": "function"
    },
    {
      "inputs": [
        {
          "internalType": "address",
          "name": "spender",
          "type": "address"
        },
        {
          "internalType": "uint256",
          "name": "amount",
          "type": "uint256"
        }
      ],
      "name": "approve",
      "outputs": [
        {
          "internalType": "bool",
          "name": "",
          "type": "bool"
        }
      ],
      "stateMutability": "nonpayable",
      "type": "function"
    },
    {
      "inputs": [
        {
          "internalType": "address",
          "name": "account",
          "type": "address"
        }
      ],
      "name": "balanceOf",
      "outputs": [
        {
          "internalType": "uint256",
          "name": "",
          "type": "uint256"
        }
      ],
      "stateMutability": "view",
      "type": "function"
    },
    {
      "inputs": [],
      "name": "decimals",
      "outputs": [
        {
          "internalType": "uint8",
          "name": "",
          "type": "uint8"
        }
      ],
      "stateMutability": "view",
      "type": "function"
    },
    {
      "inputs": [
        {
          "internalType": "address",
          "name": "spender",
          "type": "address"
        },
        {
          "internalType": "uint256",
          "name": "subtractedValue",
          "type": "uint256"
        }
      ],
      "name": "decreaseAllowance",
      "outputs": [
        {
          "internalType": "bool",
          "name": "",
          "type": "bool"
        }
      ],
      "stateMutability": "nonpayable",
      "type": "function"
    },
    {
      "inputs": [],
      "name": "dispense",
      "outputs": [],
      "stateMutability": "payable",
      "type": "function"
    },
    {
      "inputs": [
        {
          "internalType": "address",
          "name": "_staker",
          "type": "address"
        }
      ],
      "name": "hasStake",
      "outputs": [
        {
          "components": [
            {
              "internalType": "uint256",
              "name": "totalAmount",
              "type": "uint256"
            },
            {
              "components": [
                {
                  "internalType": "address",
                  "name": "user",
                  "type": "address"
                },
                {
                  "internalType": "uint256",
                  "name": "amount",
                  "type": "uint256"
                },
                {
                  "internalType": "uint256",
                  "name": "timeStamp",
                  "type": "uint256"
                },
                {
                  "internalType": "uint256",
                  "name": "claimable",
                  "type": "uint256"
                }
              ],
              "internalType": "struct Stakeable.Stake[]",
              "name": "stakes",
              "type": "tuple[]"
            }
          ],
          "internalType": "struct Stakeable.StakingSummary",
          "name": "",
          "type": "tuple"
        }
      ],
      "stateMutability": "view",
      "type": "function"
    },
    {
      "inputs": [
        {
          "internalType": "address",
          "name": "spender",
          "type": "address"
        },
        {
          "internalType": "uint256",
          "name": "addedValue",
          "type": "uint256"
        }
      ],
      "name": "increaseAllowance",
      "outputs": [
        {
          "internalType": "bool",
          "name": "",
          "type": "bool"
        }
      ],
      "stateMutability": "nonpayable",
      "type": "function"
    },
    {
      "inputs": [
        {
          "internalType": "address",
          "name": "recipient",
          "type": "address"
        },
        {
          "internalType": "uint256",
          "name": "amount",
          "type": "uint256"
        }
      ],
      "name": "mint",
      "outputs": [],
      "stateMutability": "nonpayable",
      "type": "function"
    },
    {
      "inputs": [],
      "name": "name",
      "outputs": [
        {
          "internalType": "string",
          "name": "",
          "type": "string"
        }
      ],
      "stateMutability": "view",
      "type": "function"
    },
    {
      "inputs": [],
      "name": "purchase",
      "outputs": [],
      "stateMutability": "payable",
      "type": "function"
    },
    {
      "inputs": [
        {
          "internalType": "uint256",
          "name": "_amount",
          "type": "uint256"
        }
      ],
      "name": "stake",
      "outputs": [],
      "stateMutability": "nonpayable",
      "type": "function"
    },
    {
      "inputs": [],
      "name": "symbol",
      "outputs": [
        {
          "internalType": "string",
          "name": "",
          "type": "string"
        }
      ],
      "stateMutability": "view",
      "type": "function"
    },
    {
      "inputs": [],
      "name": "totalSupply",
      "outputs": [
        {
          "internalType": "uint256",
          "name": "",
          "type": "uint256"
        }
      ],
      "stateMutability": "view",
      "type": "function"
    },
    {
      "inputs": [
        {
          "internalType": "address",
          "name": "recipient",
          "type": "address"
        },
        {
          "internalType": "uint256",
          "name": "amount",
          "type": "uint256"
        }
      ],
      "name": "transfer",
      "outputs": [
        {
          "internalType": "bool",
          "name": "",
          "type": "bool"
        }
      ],
      "stateMutability": "nonpayable",
      "type": "function"
    },
    {
      "inputs": [
        {
          "internalType": "address",
          "name": "sender",
          "type": "address"
        },
        {
          "internalType": "address",
          "name": "recipient",
          "type": "address"
        },
        {
          "internalType": "uint256",
          "name": "amount",
          "type": "uint256"
        }
      ],
      "name": "transferFrom",
      "outputs": [
        {
          "internalType": "bool",
          "name": "",
          "type": "bool"
        }
      ],
      "stateMutability": "nonpayable",
      "type": "function"
    },
    {
      "inputs": [
        {
          "internalType": "uint256",
          "name": "amount",
          "type": "uint256"
        },
        {
          "internalType": "uint256",
          "name": "stakeIndex",
          "type": "uint256"
        }
      ],
      "name": "withdraw",
      "outputs": [],
      "stateMutability": "nonpayable",
      "type": "function"
    }
  ],
  "bytecode": "0x60806040526103e86005553480156200001757600080fd5b506040805180820182526009815268243ab9b5bca1b7b4b760b91b6020808301918252835180850190945260058452644855534b5960d81b908401528151919291620000669160039162000197565b5080516200007c90600490602084019062000197565b50506006805460010181556000525064019f6d22c9600955620000a33362010f2c620000a9565b620002df565b620000b58282620000b9565b5050565b6001600160a01b038216620000eb5760405162461bcd60e51b8152600401620000e2906200023d565b60405180910390fd5b620000f96000838362000192565b80600260008282546200010d91906200027d565b90915550506001600160a01b038216600090815260208190526040812080548392906200013c9084906200027d565b90915550506040516001600160a01b038316906000907fddf252ad1be2c89b69c2b068fc378daa952ba7f163c4a11628f55a4df523b3ef906200018190859062000274565b60405180910390a3620000b5600083835b505050565b828054620001a590620002a2565b90600052602060002090601f016020900481019282620001c9576000855562000214565b82601f10620001e457805160ff191683800117855562000214565b8280016001018555821562000214579182015b8281111562000214578251825591602001919060010190620001f7565b506200022292915062000226565b5090565b5b8082111562000222576000815560010162000227565b6020808252601f908201527f45524332303a206d696e7420746f20746865207a65726f206164647265737300604082015260600190565b90815260200190565b600082198211156200029d57634e487b7160e01b81526011600452602481fd5b500190565b600281046001821680620002b757607f821691505b60208210811415620002d957634e487b7160e01b600052602260045260246000fd5b50919050565b61188080620002ef6000396000f3fe6080604052600436106100fe5760003560e01c8063441a3e7011610095578063a457c2d711610064578063a457c2d714610266578063a694fc3a14610286578063a9059cbb146102a6578063dd62ed3e146102c6578063e73e14bf146102e6576100fe565b8063441a3e701461020957806364edfbf01461022957806370a082311461023157806395d89b4114610251576100fe565b806323b872dd116100d157806323b872dd14610187578063313ce567146101a757806339509351146101c957806340c10f19146101e9576100fe565b806306fdde0314610103578063095ea7b31461012e5780630adb1a9a1461015b57806318160ddd14610165575b600080fd5b34801561010f57600080fd5b50610118610313565b60405161012591906111f5565b60405180910390f35b34801561013a57600080fd5b5061014e610149366004611188565b6103a5565b60405161012591906111ea565b6101636103c2565b005b34801561017157600080fd5b5061017a61041c565b604051610125919061175e565b34801561019357600080fd5b5061014e6101a236600461114d565b610422565b3480156101b357600080fd5b506101bc6104b2565b604051610125919061177d565b3480156101d557600080fd5b5061014e6101e4366004611188565b6104b7565b3480156101f557600080fd5b50610163610204366004611188565b61050b565b34801561021557600080fd5b506101636102243660046111c9565b610515565b610163610532565b34801561023d57600080fd5b5061017a61024c3660046110fa565b610599565b34801561025d57600080fd5b506101186105b8565b34801561027257600080fd5b5061014e610281366004611188565b6105c7565b34801561029257600080fd5b506101636102a13660046111b1565b610640565b3480156102b257600080fd5b5061014e6102c1366004611188565b61067d565b3480156102d257600080fd5b5061017a6102e136600461111b565b610691565b3480156102f257600080fd5b506103066103013660046110fa565b6106bc565b60405161012591906116de565b606060038054610322906117f9565b80601f016020809104026020016040519081016040528092919081815260200182805461034e906117f9565b801561039b5780601f106103705761010080835404028352916020019161039b565b820191906000526020600020905b81548152906001019060200180831161037e57829003601f168201915b5050505050905090565b60006103b96103b2610898565b848461089c565b50600192915050565b60006103cc61041c565b90506000816009546103de91906117e2565b905062010f2c811161040b5760405162461bcd60e51b815260040161040290611505565b60405180910390fd5b6104183362010f2c610950565b5050565b60025490565b600061042f848484610a18565b6001600160a01b038416600090815260016020526040812081610450610898565b6001600160a01b03166001600160a01b03168152602001908152602001600020549050828110156104935760405162461bcd60e51b815260040161040290611486565b6104a78561049f610898565b85840361089c565b506001949350505050565b601290565b60006103b96104c4610898565b8484600160006104d2610898565b6001600160a01b03908116825260208083019390935260409182016000908120918b1681529252902054610506919061178b565b61089c565b6104188282610950565b60006105218383610b42565b905061052d3382610950565b505050565b600034116105525760405162461bcd60e51b8152600401610402906114ce565b600061055c61041c565b905060008160095461056e91906117e2565b905080341061058f5760405162461bcd60e51b8152600401610402906113ac565b6104183334610950565b6001600160a01b0381166000908152602081905260409020545b919050565b606060048054610322906117f9565b600080600160006105d6610898565b6001600160a01b03908116825260208083019390935260409182016000908120918816815292529020549050828110156106225760405162461bcd60e51b815260040161040290611662565b61063661062d610898565b8585840361089c565b5060019392505050565b61064933610599565b81106106675760405162461bcd60e51b81526004016104029061128b565b61067081610ded565b61067a3382610f13565b50565b60006103b961068a610898565b8484610a18565b6001600160a01b03918216600090815260016020908152604080832093909416825291909152205490565b6106c46110c9565b600080604051806040016040528060008152602001600660076000886001600160a01b03166001600160a01b03168152602001908152602001600020548154811061071f57634e487b7160e01b600052603260045260246000fd5b9060005260206000209060020201600101805480602002602001604051908101604052809291908181526020016000905b828210156107ad576000848152602090819020604080516080810182526004860290920180546001600160a01b03168352600180820154848601526002820154928401929092526003015460608301529083529092019101610750565b505050915250905060005b81602001515181101561088e5760006107fb836020015183815181106107ee57634e487b7160e01b600052603260045260246000fd5b6020026020010151611004565b9050808360200151838151811061082257634e487b7160e01b600052603260045260246000fd5b60200260200101516060018181525050808360200151838151811061085757634e487b7160e01b600052603260045260246000fd5b6020026020010151602001518561086e919061178b565b610878919061178b565b9350610887905060018261178b565b90506107b8565b5090815292915050565b3390565b6001600160a01b0383166108c25760405162461bcd60e51b81526004016104029061161e565b6001600160a01b0382166108e85760405162461bcd60e51b81526004016104029061136a565b6001600160a01b0380841660008181526001602090815260408083209487168084529490915290819020849055517f8c5be1e5ebec7d5bd14f71427d1e84f3dd0314c0f7b2291e5b200ac8c7c3b9259061094390859061175e565b60405180910390a3505050565b6001600160a01b0382166109765760405162461bcd60e51b8152600401610402906116a7565b6109826000838361052d565b8060026000828254610994919061178b565b90915550506001600160a01b038216600090815260208190526040812080548392906109c190849061178b565b90915550506040516001600160a01b038316906000907fddf252ad1be2c89b69c2b068fc378daa952ba7f163c4a11628f55a4df523b3ef90610a0490859061175e565b60405180910390a36104186000838361052d565b6001600160a01b038316610a3e5760405162461bcd60e51b8152600401610402906115d9565b6001600160a01b038216610a645760405162461bcd60e51b815260040161040290611248565b610a6f83838361052d565b6001600160a01b03831660009081526020819052604090205481811015610aa85760405162461bcd60e51b815260040161040290611440565b6001600160a01b03808516600090815260208190526040808220858503905591851681529081208054849290610adf90849061178b565b92505081905550826001600160a01b0316846001600160a01b03167fddf252ad1be2c89b69c2b068fc378daa952ba7f163c4a11628f55a4df523b3ef84604051610b29919061175e565b60405180910390a3610b3c84848461052d565b50505050565b336000908152600760205260408120546006805483919083908110610b7757634e487b7160e01b600052603260045260246000fd5b90600052602060002090600202016001018481548110610ba757634e487b7160e01b600052603260045260246000fd5b600091825260209182902060408051608081018252600490930290910180546001600160a01b0316835260018101549383018490526002810154918301919091526003015460608201529150851115610c125760405162461bcd60e51b8152600401610402906112dc565b426000610c1e83611004565b9050868360200151610c3091906117e2565b60208401819052610cc05760068481548110610c5c57634e487b7160e01b600052603260045260246000fd5b90600052602060002090600202016001018681548110610c8c57634e487b7160e01b600052603260045260246000fd5b60009182526020822060049091020180546001600160a01b0319168155600181018290556002810182905560030155610d93565b826020015160068581548110610ce657634e487b7160e01b600052603260045260246000fd5b90600052602060002090600202016001018781548110610d1657634e487b7160e01b600052603260045260246000fd5b9060005260206000209060040201600101819055504260068581548110610d4d57634e487b7160e01b600052603260045260246000fd5b90600052602060002090600202016001018781548110610d7d57634e487b7160e01b600052603260045260246000fd5b9060005260206000209060040201600201819055505b336001600160a01b03167f204fccf0d92ed8d48f204adb39b2e81e92bad0dedb93f5716ca9478cfb57de00888885604051610dd093929190611767565b60405180910390a2610de2818861178b565b979650505050505050565b60008111610e0d5760405162461bcd60e51b815260040161040290611409565b336000908152600760205260409020544281610e2f57610e2c33611045565b91505b60068281548110610e5057634e487b7160e01b600052603260045260246000fd5b6000918252602080832060408051608081018252338082528185018a8152828401898152606084018981526002988902909601600190810180548083018255908b52979099209351600490970290930180546001600160a01b0319166001600160a01b039097169690961786555196850196909655519383019390935551600390910155517fb4caaf29adda3eefee3ad552a8e85058589bf834c7466cae4ee58787f70589ed90610f0690869086908690611767565b60405180910390a2505050565b6001600160a01b038216610f395760405162461bcd60e51b815260040161040290611598565b610f458260008361052d565b6001600160a01b03821660009081526020819052604090205481811015610f7e5760405162461bcd60e51b815260040161040290611328565b6001600160a01b0383166000908152602081905260408120838303905560028054849290610fad9084906117e2565b90915550506040516000906001600160a01b038516907fddf252ad1be2c89b69c2b068fc378daa952ba7f163c4a11628f55a4df523b3ef90610ff090869061175e565b60405180910390a361052d8360008461052d565b60006005548260200151610e1084604001514261102191906117e2565b61102b91906117a3565b61103591906117c3565b61103f91906117a3565b92915050565b60068054600190810180835560009283528291611061916117e2565b9050826006828154811061108557634e487b7160e01b600052603260045260246000fd5b6000918252602080832060029290920290910180546001600160a01b0319166001600160a01b03948516179055949091168152600790935260409092208290555090565b604051806040016040528060008152602001606081525090565b80356001600160a01b03811681146105b357600080fd5b60006020828403121561110b578081fd5b611114826110e3565b9392505050565b6000806040838503121561112d578081fd5b611136836110e3565b9150611144602084016110e3565b90509250929050565b600080600060608486031215611161578081fd5b61116a846110e3565b9250611178602085016110e3565b9150604084013590509250925092565b6000806040838503121561119a578182fd5b6111a3836110e3565b946020939093013593505050565b6000602082840312156111c2578081fd5b5035919050565b600080604083850312156111db578182fd5b50508035926020909101359150565b901515815260200190565b6000602080835283518082850152825b8181101561122157858101830151858201604001528201611205565b818111156112325783604083870101525b50601f01601f1916929092016040019392505050565b60208082526023908201527f45524332303a207472616e7366657220746f20746865207a65726f206164647260408201526265737360e81b606082015260800190565b60208082526031908201527f596f7520646f6e2774206861766520656e6f75676820746f6b656e7320746f206040820152701cdd185ad9481d1a185d08185b5bdd5b9d607a1b606082015260800190565b6020808252602c908201527f43616e6e6f7420756e7374616b65206d6f7265207468616e20796f757220737460408201526b616b65642062616c616e636560a01b606082015260800190565b60208082526022908201527f45524332303a206275726e20616d6f756e7420657863656564732062616c616e604082015261636560f01b606082015260800190565b60208082526022908201527f45524332303a20617070726f766520746f20746865207a65726f206164647265604082015261737360f01b606082015260800190565b6020808252603d908201527f43616e6e6f74207075726368617365206d6f7265207468616e2072656d61696e60408201527f696e6720756e6d696e74656420737570706c79206f66204855534b5921000000606082015260800190565b6020808252601e908201527f416d6f756e742070726f76696465642063616e6e6f74206265203d3d20300000604082015260600190565b60208082526026908201527f45524332303a207472616e7366657220616d6f756e7420657863656564732062604082015265616c616e636560d01b606082015260800190565b60208082526028908201527f45524332303a207472616e7366657220616d6f756e74206578636565647320616040820152676c6c6f77616e636560c01b606082015260800190565b6020808252601b908201527f507572636861736520616d6f756e74206d757374206265203e20300000000000604082015260600190565b60208082526067908201527f4d6178696d756d20737570706c79206f66204875736b79436f696e732068617360408201527f206265656e206d65742e20436f6e7461637420686f726e6f73657875616c2e6560608201527f746820616e642061736b2068696d20746f2073656e6420796f7520736f6d65206080820152661a5b9cdd19585960ca1b60a082015260c00190565b60208082526021908201527f45524332303a206275726e2066726f6d20746865207a65726f206164647265736040820152607360f81b606082015260800190565b60208082526025908201527f45524332303a207472616e736665722066726f6d20746865207a65726f206164604082015264647265737360d81b606082015260800190565b60208082526024908201527f45524332303a20617070726f76652066726f6d20746865207a65726f206164646040820152637265737360e01b606082015260800190565b60208082526025908201527f45524332303a2064656372656173656420616c6c6f77616e63652062656c6f77604082015264207a65726f60d81b606082015260800190565b6020808252601f908201527f45524332303a206d696e7420746f20746865207a65726f206164647265737300604082015260600190565b60006020808352606080840185518386015282860151604080818801528282518085526080945084890191508684019350875b8181101561174f57845180516001600160a01b0316845288810151898501528481015185850152870151878401529387019391850191600101611711565b50909998505050505050505050565b90815260200190565b9283526020830191909152604082015260600190565b60ff91909116815260200190565b6000821982111561179e5761179e611834565b500190565b6000826117be57634e487b7160e01b81526012600452602481fd5b500490565b60008160001904831182151516156117dd576117dd611834565b500290565b6000828210156117f4576117f4611834565b500390565b60028104600182168061180d57607f821691505b6020821081141561182e57634e487b7160e01b600052602260045260246000fd5b50919050565b634e487b7160e01b600052601160045260246000fdfea264697066735822122023fb5edd43ac56a0134a65310e52be431c08bcdae311fab110296dec0395fb4764736f6c63430008000033",
  "linkReferences": {},
  "deployedLinkReferences": {}
}