{
  "_format": "hh-sol-artifact-1",
  "contractName": "HuskyCoin",
  "sourceName": "contracts/HuskyCoin.sol",
  "abi": [
    {
      "inputs": [],
      "stateMutability": "nonpayable",
      "type": "constructor"
    },
    {
      "anonymous": false,
      "inputs": [
        {
          "indexed": true,
          "internalType": "address",
          "name": "owner",
          "type": "address"
        },
        {
          "indexed": true,
          "internalType": "address",
          "name": "spender",
          "type": "address"
        },
        {
          "indexed": false,
          "internalType": "uint256",
          "name": "value",
          "type": "uint256"
        }
      ],
      "name": "Approval",
      "type": "event"
    },
    {
      "anonymous": false,
      "inputs": [
        {
          "indexed": true,
          "internalType": "address",
          "name": "user",
          "type": "address"
        },
        {
          "indexed": false,
          "internalType": "uint256",
          "name": "amount",
          "type": "uint256"
        },
        {
          "indexed": false,
          "internalType": "uint256",
          "name": "index",
          "type": "uint256"
        },
        {
          "indexed": false,
          "internalType": "uint256",
          "name": "timestamp",
          "type": "uint256"
        }
      ],
      "name": "Staked",
      "type": "event"
    },
    {
      "anonymous": false,
      "inputs": [
        {
          "indexed": true,
          "internalType": "address",
          "name": "from",
          "type": "address"
        },
        {
          "indexed": true,
          "internalType": "address",
          "name": "to",
          "type": "address"
        },
        {
          "indexed": false,
          "internalType": "uint256",
          "name": "value",
          "type": "uint256"
        }
      ],
      "name": "Transfer",
      "type": "event"
    },
    {
      "anonymous": false,
      "inputs": [
        {
          "indexed": true,
          "internalType": "address",
          "name": "user",
          "type": "address"
        },
        {
          "indexed": false,
          "internalType": "uint256",
          "name": "amount",
          "type": "uint256"
        },
        {
          "indexed": false,
          "internalType": "uint256",
          "name": "timestamp",
          "type": "uint256"
        }
      ],
      "name": "Unstaked",
      "type": "event"
    },
    {
      "stateMutability": "payable",
      "type": "fallback"
    },
    {
      "inputs": [
        {
          "internalType": "address",
          "name": "owner",
          "type": "address"
        },
        {
          "internalType": "address",
          "name": "spender",
          "type": "address"
        }
      ],
      "name": "allowance",
      "outputs": [
        {
          "internalType": "uint256",
          "name": "",
          "type": "uint256"
        }
      ],
      "stateMutability": "view",
      "type": "function"
    },
    {
      "inputs": [
        {
          "internalType": "address",
          "name": "spender",
          "type": "address"
        },
        {
          "internalType": "uint256",
          "name": "amount",
          "type": "uint256"
        }
      ],
      "name": "approve",
      "outputs": [
        {
          "internalType": "bool",
          "name": "",
          "type": "bool"
        }
      ],
      "stateMutability": "nonpayable",
      "type": "function"
    },
    {
      "inputs": [
        {
          "internalType": "address",
          "name": "account",
          "type": "address"
        }
      ],
      "name": "balanceOf",
      "outputs": [
        {
          "internalType": "uint256",
          "name": "",
          "type": "uint256"
        }
      ],
      "stateMutability": "view",
      "type": "function"
    },
    {
      "inputs": [],
      "name": "decimals",
      "outputs": [
        {
          "internalType": "uint8",
          "name": "",
          "type": "uint8"
        }
      ],
      "stateMutability": "view",
      "type": "function"
    },
    {
      "inputs": [
        {
          "internalType": "address",
          "name": "spender",
          "type": "address"
        },
        {
          "internalType": "uint256",
          "name": "subtractedValue",
          "type": "uint256"
        }
      ],
      "name": "decreaseAllowance",
      "outputs": [
        {
          "internalType": "bool",
          "name": "",
          "type": "bool"
        }
      ],
      "stateMutability": "nonpayable",
      "type": "function"
    },
    {
      "inputs": [],
      "name": "dispense",
      "outputs": [],
      "stateMutability": "payable",
      "type": "function"
    },
    {
      "inputs": [],
      "name": "getBalance",
      "outputs": [
        {
          "internalType": "uint256",
          "name": "",
          "type": "uint256"
        }
      ],
      "stateMutability": "view",
      "type": "function"
    },
    {
      "inputs": [],
      "name": "getStakeholderIndex",
      "outputs": [
        {
          "internalType": "uint256",
          "name": "",
          "type": "uint256"
        }
      ],
      "stateMutability": "view",
      "type": "function"
    },
    {
      "inputs": [
        {
          "internalType": "address",
          "name": "_staker",
          "type": "address"
        }
      ],
      "name": "hasStake",
      "outputs": [
        {
          "components": [
            {
              "internalType": "uint256",
              "name": "originalStake",
              "type": "uint256"
            },
            {
              "internalType": "uint256",
              "name": "totalAmount",
              "type": "uint256"
            },
            {
              "components": [
                {
                  "internalType": "address",
                  "name": "user",
                  "type": "address"
                },
                {
                  "internalType": "uint256",
                  "name": "amount",
                  "type": "uint256"
                },
                {
                  "internalType": "uint256",
                  "name": "timeStamp",
                  "type": "uint256"
                },
                {
                  "internalType": "uint256",
                  "name": "claimable",
                  "type": "uint256"
                }
              ],
              "internalType": "struct Stakeable.Stake[]",
              "name": "stakes",
              "type": "tuple[]"
            }
          ],
          "internalType": "struct Stakeable.StakingSummary",
          "name": "",
          "type": "tuple"
        }
      ],
      "stateMutability": "view",
      "type": "function"
    },
    {
      "inputs": [
        {
          "internalType": "address",
          "name": "spender",
          "type": "address"
        },
        {
          "internalType": "uint256",
          "name": "addedValue",
          "type": "uint256"
        }
      ],
      "name": "increaseAllowance",
      "outputs": [
        {
          "internalType": "bool",
          "name": "",
          "type": "bool"
        }
      ],
      "stateMutability": "nonpayable",
      "type": "function"
    },
    {
      "inputs": [
        {
          "internalType": "address",
          "name": "recipient",
          "type": "address"
        },
        {
          "internalType": "uint256",
          "name": "amount",
          "type": "uint256"
        }
      ],
      "name": "mint",
      "outputs": [],
      "stateMutability": "nonpayable",
      "type": "function"
    },
    {
      "inputs": [],
      "name": "name",
      "outputs": [
        {
          "internalType": "string",
          "name": "",
          "type": "string"
        }
      ],
      "stateMutability": "view",
      "type": "function"
    },
    {
      "inputs": [],
      "name": "purchase",
      "outputs": [],
      "stateMutability": "payable",
      "type": "function"
    },
    {
      "inputs": [],
      "name": "reclaim",
      "outputs": [],
      "stateMutability": "nonpayable",
      "type": "function"
    },
    {
      "inputs": [
        {
          "internalType": "uint256",
          "name": "_amount",
          "type": "uint256"
        }
      ],
      "name": "stake",
      "outputs": [],
      "stateMutability": "nonpayable",
      "type": "function"
    },
    {
      "inputs": [],
      "name": "symbol",
      "outputs": [
        {
          "internalType": "string",
          "name": "",
          "type": "string"
        }
      ],
      "stateMutability": "view",
      "type": "function"
    },
    {
      "inputs": [],
      "name": "totalSupply",
      "outputs": [
        {
          "internalType": "uint256",
          "name": "",
          "type": "uint256"
        }
      ],
      "stateMutability": "view",
      "type": "function"
    },
    {
      "inputs": [
        {
          "internalType": "address",
          "name": "recipient",
          "type": "address"
        },
        {
          "internalType": "uint256",
          "name": "amount",
          "type": "uint256"
        }
      ],
      "name": "transfer",
      "outputs": [
        {
          "internalType": "bool",
          "name": "",
          "type": "bool"
        }
      ],
      "stateMutability": "nonpayable",
      "type": "function"
    },
    {
      "inputs": [
        {
          "internalType": "address",
          "name": "sender",
          "type": "address"
        },
        {
          "internalType": "address",
          "name": "recipient",
          "type": "address"
        },
        {
          "internalType": "uint256",
          "name": "amount",
          "type": "uint256"
        }
      ],
      "name": "transferFrom",
      "outputs": [
        {
          "internalType": "bool",
          "name": "",
          "type": "bool"
        }
      ],
      "stateMutability": "nonpayable",
      "type": "function"
    },
    {
      "inputs": [],
      "name": "withdraw",
      "outputs": [],
      "stateMutability": "nonpayable",
      "type": "function"
    },
    {
      "stateMutability": "payable",
      "type": "receive"
    }
  ],
  "bytecode": "0x6080604052629896806005553480156200001857600080fd5b506040805180820182526009815268243ab9b5bca1b7b4b760b91b6020808301918252835180850190945260058452644855534b5960d81b9084015281519192916200006791600391620001d3565b5080516200007d906004906020840190620001d3565b505060068054600101815560005250600880546001600160a01b031916339081179091556b168532bdc48cb0ddb5840000600955620000c790690eb344079513a1300000620000cd565b6200031b565b6008546001600160a01b03163314620000e557600080fd5b620000f18282620000f5565b5050565b6001600160a01b038216620001275760405162461bcd60e51b81526004016200011e9062000279565b60405180910390fd5b6200013560008383620001ce565b8060026000828254620001499190620002b9565b90915550506001600160a01b0382166000908152602081905260408120805483929062000178908490620002b9565b90915550506040516001600160a01b038316906000907fddf252ad1be2c89b69c2b068fc378daa952ba7f163c4a11628f55a4df523b3ef90620001bd908590620002b0565b60405180910390a3620000f1600083835b505050565b828054620001e190620002de565b90600052602060002090601f01602090048101928262000205576000855562000250565b82601f106200022057805160ff191683800117855562000250565b8280016001018555821562000250579182015b828111156200025057825182559160200191906001019062000233565b506200025e92915062000262565b5090565b5b808211156200025e576000815560010162000263565b6020808252601f908201527f45524332303a206d696e7420746f20746865207a65726f206164647265737300604082015260600190565b90815260200190565b60008219821115620002d957634e487b7160e01b81526011600452602481fd5b500190565b600281046001821680620002f357607f821691505b602082108114156200031557634e487b7160e01b600052602260045260246000fd5b50919050565b611b6b806200032b6000396000f3fe6080604052600436106101235760003560e01c806340c10f19116100a0578063a457c2d711610064578063a457c2d7146102c1578063a694fc3a146102e1578063a9059cbb14610301578063dd62ed3e14610321578063e73e14bf146103415761012a565b806340c10f191461024f57806364edfbf01461026f57806370a082311461027757806380e9071b1461029757806395d89b41146102ac5761012a565b806323b872dd116100e757806323b872dd146101c35780632b71b072146101e3578063313ce567146101f8578063395093511461021a5780633ccfd60b1461023a5761012a565b806306fdde031461012c578063095ea7b3146101575780630adb1a9a1461018457806312065fe01461018c57806318160ddd146101ae5761012a565b3661012a57005b005b34801561013857600080fd5b5061014161036e565b60405161014e9190611466565b60405180910390f35b34801561016357600080fd5b50610177610172366004611417565b610400565b60405161014e919061145b565b61012a61041d565b34801561019857600080fd5b506101a16104ab565b60405161014e9190611a20565b3480156101ba57600080fd5b506101a16104bb565b3480156101cf57600080fd5b506101776101de3660046113dc565b6104c1565b3480156101ef57600080fd5b506101a1610551565b34801561020457600080fd5b5061020d610572565b60405161014e9190611a4d565b34801561022657600080fd5b50610177610235366004611417565b610577565b34801561024657600080fd5b5061012a6105cb565b34801561025b57600080fd5b5061012a61026a366004611417565b6105e5565b61012a610606565b34801561028357600080fd5b506101a1610292366004611389565b61066d565b3480156102a357600080fd5b5061012a61068c565b3480156102b857600080fd5b5061014161072b565b3480156102cd57600080fd5b506101776102dc366004611417565b61073a565b3480156102ed57600080fd5b5061012a6102fc366004611440565b6107b3565b34801561030d57600080fd5b5061017761031c366004611417565b6107ed565b34801561032d57600080fd5b506101a161033c3660046113aa565b610801565b34801561034d57600080fd5b5061036161035c366004611389565b61082c565b60405161014e9190611991565b60606003805461037d90611ac9565b80601f01602080910402602001604051908101604052809291908181526020018280546103a990611ac9565b80156103f65780601f106103cb576101008083540402835291602001916103f6565b820191906000526020600020905b8154815290600101906020018083116103d957829003601f168201915b5050505050905090565b600061041461040d610a56565b8484610a5a565b50600192915050565b6104263361066d565b1561044c5760405162461bcd60e51b815260040161044390611823565b60405180910390fd5b60006104566104bb565b90506000816009546104689190611ab2565b9050690eb344079513a130000081116104935760405162461bcd60e51b81526004016104439061174f565b6104a733690eb344079513a1300000610b0e565b5050565b60006104b63361066d565b905090565b60025490565b60006104ce848484610bd6565b6001600160a01b0384166000908152600160205260408120816104ef610a56565b6001600160a01b03166001600160a01b03168152602001908152602001600020549050828110156105325760405162461bcd60e51b8152600401610443906116d0565b6105468561053e610a56565b858403610a5a565b506001949350505050565b3360009081526007602052604081205461056c600182611ab2565b91505090565b601290565b6000610414610584610a56565b848460016000610592610a56565b6001600160a01b03908116825260208083019390935260409182016000908120918b16815292529020546105c69190611a5b565b610a5a565b60006105d633610d00565b90506105e23382610b0e565b50565b6008546001600160a01b031633146105fc57600080fd5b6104a78282610b0e565b600034116106265760405162461bcd60e51b815260040161044390611718565b60006106306104bb565b90506000816009546106429190611ab2565b90508034106106635760405162461bcd60e51b8152600401610443906115f6565b6104a73334610b0e565b6001600160a01b0381166000908152602081905260409020545b919050565b6008546001600160a01b031633146106a357600080fd5b6000479050600080336001600160a01b0316836040516106c290611458565b60006040518083038185875af1925050503d80600081146106ff576040519150601f19603f3d011682016040523d82523d6000602084013e610704565b606091505b5091509150816107265760405162461bcd60e51b8152600401610443906114fc565b505050565b60606004805461037d90611ac9565b60008060016000610749610a56565b6001600160a01b03908116825260208083019390935260409182016000908120918816815292529020549050828110156107955760405162461bcd60e51b815260040161044390611915565b6107a96107a0610a56565b85858403610a5a565b5060019392505050565b6107bc3361066d565b81106107da5760405162461bcd60e51b815260040161044390611521565b6107e381610ff1565b6105e23382611117565b60006104146107fa610a56565b8484610bd6565b6001600160a01b03918216600090815260016020908152604080832093909416825291909152205490565b6108346112cc565b600080600060405180606001604052806000815260200160008152602001600660076000896001600160a01b03166001600160a01b03168152602001908152602001600020548154811061089857634e487b7160e01b600052603260045260246000fd5b9060005260206000209060020201600101805480602002602001604051908101604052809291908181526020016000905b82821015610926576000848152602090819020604080516080810182526004860290920180546001600160a01b031683526001808201548486015260028201549284019290925260030154606083015290835290920191016108c9565b505050915250905060005b816040015151811015610a44578160400151818151811061096257634e487b7160e01b600052603260045260246000fd5b602002602001015160200151836109799190611a5b565b925060006109b1836040015183815181106109a457634e487b7160e01b600052603260045260246000fd5b6020026020010151611208565b905080836040015183815181106109d857634e487b7160e01b600052603260045260246000fd5b602002602001015160600181815250508083604001518381518110610a0d57634e487b7160e01b600052603260045260246000fd5b60200260200101516020015186610a249190611a5b565b610a2e9190611a5b565b9450610a3d9050600182611a5b565b9050610931565b50908152602081019190915292915050565b3390565b6001600160a01b038316610a805760405162461bcd60e51b8152600401610443906118d1565b6001600160a01b038216610aa65760405162461bcd60e51b8152600401610443906115b4565b6001600160a01b0380841660008181526001602090815260408083209487168084529490915290819020849055517f8c5be1e5ebec7d5bd14f71427d1e84f3dd0314c0f7b2291e5b200ac8c7c3b92590610b01908590611a20565b60405180910390a3505050565b6001600160a01b038216610b345760405162461bcd60e51b81526004016104439061195a565b610b4060008383610726565b8060026000828254610b529190611a5b565b90915550506001600160a01b03821660009081526020819052604081208054839290610b7f908490611a5b565b90915550506040516001600160a01b038316906000907fddf252ad1be2c89b69c2b068fc378daa952ba7f163c4a11628f55a4df523b3ef90610bc2908590611a20565b60405180910390a36104a760008383610726565b6001600160a01b038316610bfc5760405162461bcd60e51b81526004016104439061188c565b6001600160a01b038216610c225760405162461bcd60e51b8152600401610443906114b9565b610c2d838383610726565b6001600160a01b03831660009081526020819052604090205481811015610c665760405162461bcd60e51b815260040161044390611653565b6001600160a01b03808516600090815260208190526040808220858503905591851681529081208054849290610c9d908490611a5b565b92505081905550826001600160a01b0316846001600160a01b03167fddf252ad1be2c89b69c2b068fc378daa952ba7f163c4a11628f55a4df523b3ef84604051610ce79190611a20565b60405180910390a3610cfa848484610726565b50505050565b60008060008060405180606001604052806000815260200160008152602001600660076000896001600160a01b03166001600160a01b031681526020019081526020016000205481548110610d6557634e487b7160e01b600052603260045260246000fd5b9060005260206000209060020201600101805480602002602001604051908101604052809291908181526020016000905b82821015610df3576000848152602090819020604080516080810182526004860290920180546001600160a01b03168352600180820154848601526002820154928401929092526003015460608301529083529092019101610d96565b505050915250905060005b816040015151811015610f4557600082604001518281518110610e3157634e487b7160e01b600052603260045260246000fd5b60200260200101516020015190508085610e4b9190611a5b565b94506000610e76846040015184815181106109a457634e487b7160e01b600052603260045260246000fd5b9050600084604001518481518110610e9e57634e487b7160e01b600052603260045260246000fd5b60200260200101516020018181525050600084604001518481518110610ed457634e487b7160e01b600052603260045260246000fd5b6020026020010151606001818152505083604001518381518110610f0857634e487b7160e01b600052603260045260246000fd5b60200260200101610f176112ed565b905280610f248387611a5b565b610f2e9190611a5b565b945050508080610f3d90611b04565b915050610dfe565b506001600160a01b038516600090815260076020526040902054600680549091908110610f8257634e487b7160e01b600052603260045260246000fd5b90600052602060002090600202016001016000610f9f919061131e565b6000429050856001600160a01b03167f7fc4727e062e336010f2c282598ef5f14facb3de68cf8195c2f23e1454b2b74e8483604051610fdf929190611a29565b60405180910390a25090949350505050565b600081116110115760405162461bcd60e51b815260040161044390611699565b3360009081526007602052604090205442816110335761103033611248565b91505b6006828154811061105457634e487b7160e01b600052603260045260246000fd5b6000918252602080832060408051608081018252338082528185018a8152828401898152606084018981526002988902909601600190810180548083018255908b52979099209351600490970290930180546001600160a01b0319166001600160a01b039097169690961786555196850196909655519383019390935551600390910155517fb4caaf29adda3eefee3ad552a8e85058589bf834c7466cae4ee58787f70589ed9061110a90869086908690611a37565b60405180910390a2505050565b6001600160a01b03821661113d5760405162461bcd60e51b8152600401610443906117e2565b61114982600083610726565b6001600160a01b038216600090815260208190526040902054818110156111825760405162461bcd60e51b815260040161044390611572565b6001600160a01b03831660009081526020819052604081208383039055600280548492906111b1908490611ab2565b90915550506040516000906001600160a01b038516907fddf252ad1be2c89b69c2b068fc378daa952ba7f163c4a11628f55a4df523b3ef906111f4908690611a20565b60405180910390a361072683600084610726565b60006005548260200151600a8460400151426112249190611ab2565b61122e9190611a73565b6112389190611a93565b6112429190611a73565b92915050565b6006805460019081018083556000928352829161126491611ab2565b9050826006828154811061128857634e487b7160e01b600052603260045260246000fd5b6000918252602080832060029290920290910180546001600160a01b0319166001600160a01b03948516179055949091168152600790935260409092208290555090565b60405180606001604052806000815260200160008152602001606081525090565b604051806080016040528060006001600160a01b031681526020016000815260200160008152602001600081525090565b50805460008255600402906000526020600020908101906105e291905b8082111561136e5780546001600160a01b031916815560006001820181905560028201819055600382015560040161133b565b5090565b80356001600160a01b038116811461068757600080fd5b60006020828403121561139a578081fd5b6113a382611372565b9392505050565b600080604083850312156113bc578081fd5b6113c583611372565b91506113d360208401611372565b90509250929050565b6000806000606084860312156113f0578081fd5b6113f984611372565b925061140760208501611372565b9150604084013590509250925092565b60008060408385031215611429578182fd5b61143283611372565b946020939093013593505050565b600060208284031215611451578081fd5b5035919050565b90565b901515815260200190565b6000602080835283518082850152825b8181101561149257858101830151858201604001528201611476565b818111156114a35783604083870101525b50601f01601f1916929092016040019392505050565b60208082526023908201527f45524332303a207472616e7366657220746f20746865207a65726f206164647260408201526265737360e81b606082015260800190565b6020808252600b908201526a11985a5b1959081cd95b9960aa1b604082015260600190565b60208082526031908201527f596f7520646f6e2774206861766520656e6f75676820746f6b656e7320746f206040820152701cdd185ad9481d1a185d08185b5bdd5b9d607a1b606082015260800190565b60208082526022908201527f45524332303a206275726e20616d6f756e7420657863656564732062616c616e604082015261636560f01b606082015260800190565b60208082526022908201527f45524332303a20617070726f766520746f20746865207a65726f206164647265604082015261737360f01b606082015260800190565b6020808252603d908201527f43616e6e6f74207075726368617365206d6f7265207468616e2072656d61696e60408201527f696e6720756e6d696e74656420737570706c79206f66204855534b5921000000606082015260800190565b60208082526026908201527f45524332303a207472616e7366657220616d6f756e7420657863656564732062604082015265616c616e636560d01b606082015260800190565b6020808252601b908201527f416d6f756e742070726f76696465642063616e6e6f7420626520300000000000604082015260600190565b60208082526028908201527f45524332303a207472616e7366657220616d6f756e74206578636565647320616040820152676c6c6f77616e636560c01b606082015260800190565b6020808252601b908201527f507572636861736520616d6f756e74206d757374206265203e20300000000000604082015260600190565b60208082526067908201527f4d6178696d756d20737570706c79206f66204875736b79436f696e732068617360408201527f206265656e206d65742e20436f6e7461637420686f726e6f73657875616c2e6560608201527f746820616e642061736b2068696d20746f2073656e6420796f7520736f6d65206080820152661a5b9cdd19585960ca1b60a082015260c00190565b60208082526021908201527f45524332303a206275726e2066726f6d20746865207a65726f206164647265736040820152607360f81b606082015260800190565b60208082526043908201527f596f7520616c72656164792068617665204875736b79436f696e732120476f2060408201527f7374616b65207468656d206f722073656e6420746f20796f757220667269656e60608201526232399760e91b608082015260a00190565b60208082526025908201527f45524332303a207472616e736665722066726f6d20746865207a65726f206164604082015264647265737360d81b606082015260800190565b60208082526024908201527f45524332303a20617070726f76652066726f6d20746865207a65726f206164646040820152637265737360e01b606082015260800190565b60208082526025908201527f45524332303a2064656372656173656420616c6c6f77616e63652062656c6f77604082015264207a65726f60d81b606082015260800190565b6020808252601f908201527f45524332303a206d696e7420746f20746865207a65726f206164647265737300604082015260600190565b60006020808352608080840185518386015282860151604081818801528088015191506060808189015283835180865260a08a01915087850195508894505b80851015611a1257855180516001600160a01b0316835288810151898401528481015185840152830151838301529487019460019490940193908601906119d0565b509998505050505050505050565b90815260200190565b918252602082015260400190565b9283526020830191909152604082015260600190565b60ff91909116815260200190565b60008219821115611a6e57611a6e611b1f565b500190565b600082611a8e57634e487b7160e01b81526012600452602481fd5b500490565b6000816000190483118215151615611aad57611aad611b1f565b500290565b600082821015611ac457611ac4611b1f565b500390565b600281046001821680611add57607f821691505b60208210811415611afe57634e487b7160e01b600052602260045260246000fd5b50919050565b6000600019821415611b1857611b18611b1f565b5060010190565b634e487b7160e01b600052601160045260246000fdfea26469706673582212203cf75f108adfec281e08bd35af4d140c1dd1b3cee9898d27ca9df191ce45a8e064736f6c63430008000033",
  "linkReferences": {},
  "deployedLinkReferences": {}
}