{
  "_format": "hh-sol-artifact-1",
  "contractName": "HuskyCoin",
  "sourceName": "contracts/HuskyCoin.sol",
  "abi": [
    {
      "inputs": [],
      "stateMutability": "nonpayable",
      "type": "constructor"
    },
    {
      "anonymous": false,
      "inputs": [
        {
          "indexed": true,
          "internalType": "address",
          "name": "owner",
          "type": "address"
        },
        {
          "indexed": true,
          "internalType": "address",
          "name": "spender",
          "type": "address"
        },
        {
          "indexed": false,
          "internalType": "uint256",
          "name": "value",
          "type": "uint256"
        }
      ],
      "name": "Approval",
      "type": "event"
    },
    {
      "anonymous": false,
      "inputs": [
        {
          "indexed": true,
          "internalType": "address",
          "name": "user",
          "type": "address"
        },
        {
          "indexed": false,
          "internalType": "uint256",
          "name": "amount",
          "type": "uint256"
        },
        {
          "indexed": false,
          "internalType": "uint256",
          "name": "index",
          "type": "uint256"
        },
        {
          "indexed": false,
          "internalType": "uint256",
          "name": "timestamp",
          "type": "uint256"
        }
      ],
      "name": "Staked",
      "type": "event"
    },
    {
      "anonymous": false,
      "inputs": [
        {
          "indexed": true,
          "internalType": "address",
          "name": "from",
          "type": "address"
        },
        {
          "indexed": true,
          "internalType": "address",
          "name": "to",
          "type": "address"
        },
        {
          "indexed": false,
          "internalType": "uint256",
          "name": "value",
          "type": "uint256"
        }
      ],
      "name": "Transfer",
      "type": "event"
    },
    {
      "inputs": [
        {
          "internalType": "address",
          "name": "owner",
          "type": "address"
        },
        {
          "internalType": "address",
          "name": "spender",
          "type": "address"
        }
      ],
      "name": "allowance",
      "outputs": [
        {
          "internalType": "uint256",
          "name": "",
          "type": "uint256"
        }
      ],
      "stateMutability": "view",
      "type": "function"
    },
    {
      "inputs": [
        {
          "internalType": "address",
          "name": "spender",
          "type": "address"
        },
        {
          "internalType": "uint256",
          "name": "amount",
          "type": "uint256"
        }
      ],
      "name": "approve",
      "outputs": [
        {
          "internalType": "bool",
          "name": "",
          "type": "bool"
        }
      ],
      "stateMutability": "nonpayable",
      "type": "function"
    },
    {
      "inputs": [
        {
          "internalType": "address",
          "name": "account",
          "type": "address"
        }
      ],
      "name": "balanceOf",
      "outputs": [
        {
          "internalType": "uint256",
          "name": "",
          "type": "uint256"
        }
      ],
      "stateMutability": "view",
      "type": "function"
    },
    {
      "inputs": [],
      "name": "decimals",
      "outputs": [
        {
          "internalType": "uint8",
          "name": "",
          "type": "uint8"
        }
      ],
      "stateMutability": "view",
      "type": "function"
    },
    {
      "inputs": [
        {
          "internalType": "address",
          "name": "spender",
          "type": "address"
        },
        {
          "internalType": "uint256",
          "name": "subtractedValue",
          "type": "uint256"
        }
      ],
      "name": "decreaseAllowance",
      "outputs": [
        {
          "internalType": "bool",
          "name": "",
          "type": "bool"
        }
      ],
      "stateMutability": "nonpayable",
      "type": "function"
    },
    {
      "inputs": [
        {
          "internalType": "address",
          "name": "spender",
          "type": "address"
        },
        {
          "internalType": "uint256",
          "name": "addedValue",
          "type": "uint256"
        }
      ],
      "name": "increaseAllowance",
      "outputs": [
        {
          "internalType": "bool",
          "name": "",
          "type": "bool"
        }
      ],
      "stateMutability": "nonpayable",
      "type": "function"
    },
    {
      "inputs": [
        {
          "internalType": "address",
          "name": "recipient",
          "type": "address"
        },
        {
          "internalType": "uint256",
          "name": "amount",
          "type": "uint256"
        }
      ],
      "name": "mint",
      "outputs": [],
      "stateMutability": "nonpayable",
      "type": "function"
    },
    {
      "inputs": [],
      "name": "name",
      "outputs": [
        {
          "internalType": "string",
          "name": "",
          "type": "string"
        }
      ],
      "stateMutability": "view",
      "type": "function"
    },
    {
      "inputs": [],
      "name": "purchase",
      "outputs": [],
      "stateMutability": "payable",
      "type": "function"
    },
    {
      "inputs": [
        {
          "internalType": "uint256",
          "name": "_amount",
          "type": "uint256"
        }
      ],
      "name": "stake",
      "outputs": [],
      "stateMutability": "nonpayable",
      "type": "function"
    },
    {
      "inputs": [],
      "name": "symbol",
      "outputs": [
        {
          "internalType": "string",
          "name": "",
          "type": "string"
        }
      ],
      "stateMutability": "view",
      "type": "function"
    },
    {
      "inputs": [],
      "name": "totalSupply",
      "outputs": [
        {
          "internalType": "uint256",
          "name": "",
          "type": "uint256"
        }
      ],
      "stateMutability": "view",
      "type": "function"
    },
    {
      "inputs": [
        {
          "internalType": "address",
          "name": "recipient",
          "type": "address"
        },
        {
          "internalType": "uint256",
          "name": "amount",
          "type": "uint256"
        }
      ],
      "name": "transfer",
      "outputs": [
        {
          "internalType": "bool",
          "name": "",
          "type": "bool"
        }
      ],
      "stateMutability": "nonpayable",
      "type": "function"
    },
    {
      "inputs": [
        {
          "internalType": "address",
          "name": "sender",
          "type": "address"
        },
        {
          "internalType": "address",
          "name": "recipient",
          "type": "address"
        },
        {
          "internalType": "uint256",
          "name": "amount",
          "type": "uint256"
        }
      ],
      "name": "transferFrom",
      "outputs": [
        {
          "internalType": "bool",
          "name": "",
          "type": "bool"
        }
      ],
      "stateMutability": "nonpayable",
      "type": "function"
    }
  ],
  "bytecode": "0x60806040523480156200001157600080fd5b506040518060400160405280600981526020017f4875736b79436f696e00000000000000000000000000000000000000000000008152506040518060400160405280600581526020017f4855534b59000000000000000000000000000000000000000000000000000000815250816003908051906020019062000096929190620000d6565b508060049080519060200190620000af929190620000d6565b505050600560018160018154018082558091505003906000526020600020905050620001eb565b828054620000e49062000186565b90600052602060002090601f01602090048101928262000108576000855562000154565b82601f106200012357805160ff191683800117855562000154565b8280016001018555821562000154579182015b828111156200015357825182559160200191906001019062000136565b5b50905062000163919062000167565b5090565b5b808211156200018257600081600090555060010162000168565b5090565b600060028204905060018216806200019f57607f821691505b60208210811415620001b657620001b5620001bc565b5b50919050565b7f4e487b7100000000000000000000000000000000000000000000000000000000600052602260045260246000fd5b611f8980620001fb6000396000f3fe6080604052600436106100dd5760003560e01c806364edfbf01161007f578063a457c2d711610059578063a457c2d7146102b5578063a694fc3a146102f2578063a9059cbb1461031b578063dd62ed3e14610358576100dd565b806364edfbf01461024357806370a082311461024d57806395d89b411461028a576100dd565b806323b872dd116100bb57806323b872dd14610175578063313ce567146101b257806339509351146101dd57806340c10f191461021a576100dd565b806306fdde03146100e2578063095ea7b31461010d57806318160ddd1461014a575b600080fd5b3480156100ee57600080fd5b506100f7610395565b6040516101049190611b07565b60405180910390f35b34801561011957600080fd5b50610134600480360381019061012f91906114ff565b610427565b6040516101419190611aec565b60405180910390f35b34801561015657600080fd5b5061015f610445565b60405161016c9190611ce9565b60405180910390f35b34801561018157600080fd5b5061019c600480360381019061019791906114b0565b61044f565b6040516101a99190611aec565b60405180910390f35b3480156101be57600080fd5b506101c7610547565b6040516101d49190611d3b565b60405180910390f35b3480156101e957600080fd5b5061020460048036038101906101ff91906114ff565b610550565b6040516102119190611aec565b60405180910390f35b34801561022657600080fd5b50610241600480360381019061023c91906114ff565b6105fc565b005b61024b61060a565b005b34801561025957600080fd5b50610274600480360381019061026f919061144b565b6106bb565b6040516102819190611ce9565b60405180910390f35b34801561029657600080fd5b5061029f610703565b6040516102ac9190611b07565b60405180910390f35b3480156102c157600080fd5b506102dc60048036038101906102d791906114ff565b610795565b6040516102e99190611aec565b60405180910390f35b3480156102fe57600080fd5b506103196004803603810190610314919061153b565b610880565b005b34801561032757600080fd5b50610342600480360381019061033d91906114ff565b6108e0565b60405161034f9190611aec565b60405180910390f35b34801561036457600080fd5b5061037f600480360381019061037a9190611474565b6108fe565b60405161038c9190611ce9565b60405180910390f35b6060600380546103a490611e84565b80601f01602080910402602001604051908101604052809291908181526020018280546103d090611e84565b801561041d5780601f106103f25761010080835404028352916020019161041d565b820191906000526020600020905b81548152906001019060200180831161040057829003601f168201915b5050505050905090565b600061043b610434610985565b848461098d565b6001905092915050565b6000600254905090565b600061045c848484610b58565b6000600160008673ffffffffffffffffffffffffffffffffffffffff1673ffffffffffffffffffffffffffffffffffffffff16815260200190815260200160002060006104a7610985565b73ffffffffffffffffffffffffffffffffffffffff1673ffffffffffffffffffffffffffffffffffffffff16815260200190815260200160002054905082811015610527576040517f08c379a000000000000000000000000000000000000000000000000000000000815260040161051e90611c09565b60405180910390fd5b61053b85610533610985565b85840361098d565b60019150509392505050565b60006012905090565b60006105f261055d610985565b84846001600061056b610985565b73ffffffffffffffffffffffffffffffffffffffff1673ffffffffffffffffffffffffffffffffffffffff16815260200190815260200160002060008873ffffffffffffffffffffffffffffffffffffffff1673ffffffffffffffffffffffffffffffffffffffff168152602001908152602001600020546105ed9190611d72565b61098d565b6001905092915050565b6106068282610dd9565b5050565b6000341161064d576040517f08c379a000000000000000000000000000000000000000000000000000000000815260040161064490611c29565b60405180910390fd5b6000610657610445565b90506000816008546106699190611dc8565b90508034106106ad576040517f08c379a00000000000000000000000000000000000000000000000000000000081526004016106a490611ba9565b60405180910390fd5b6106b73334610dd9565b5050565b60008060008373ffffffffffffffffffffffffffffffffffffffff1673ffffffffffffffffffffffffffffffffffffffff168152602001908152602001600020549050919050565b60606004805461071290611e84565b80601f016020809104026020016040519081016040528092919081815260200182805461073e90611e84565b801561078b5780601f106107605761010080835404028352916020019161078b565b820191906000526020600020905b81548152906001019060200180831161076e57829003601f168201915b5050505050905090565b600080600160006107a4610985565b73ffffffffffffffffffffffffffffffffffffffff1673ffffffffffffffffffffffffffffffffffffffff16815260200190815260200160002060008573ffffffffffffffffffffffffffffffffffffffff1673ffffffffffffffffffffffffffffffffffffffff16815260200190815260200160002054905082811015610861576040517f08c379a000000000000000000000000000000000000000000000000000000000815260040161085890611ca9565b60405180910390fd5b61087561086c610985565b8585840361098d565b600191505092915050565b610889336106bb565b81106108ca576040517f08c379a00000000000000000000000000000000000000000000000000000000081526004016108c190611b49565b60405180910390fd5b6108d381610f39565b6108dd3382611133565b50565b60006108f46108ed610985565b8484610b58565b6001905092915050565b6000600160008473ffffffffffffffffffffffffffffffffffffffff1673ffffffffffffffffffffffffffffffffffffffff16815260200190815260200160002060008373ffffffffffffffffffffffffffffffffffffffff1673ffffffffffffffffffffffffffffffffffffffff16815260200190815260200160002054905092915050565b600033905090565b600073ffffffffffffffffffffffffffffffffffffffff168373ffffffffffffffffffffffffffffffffffffffff1614156109fd576040517f08c379a00000000000000000000000000000000000000000000000000000000081526004016109f490611c89565b60405180910390fd5b600073ffffffffffffffffffffffffffffffffffffffff168273ffffffffffffffffffffffffffffffffffffffff161415610a6d576040517f08c379a0000000000000000000000000000000000000000000000000000000008152600401610a6490611b89565b60405180910390fd5b80600160008573ffffffffffffffffffffffffffffffffffffffff1673ffffffffffffffffffffffffffffffffffffffff16815260200190815260200160002060008473ffffffffffffffffffffffffffffffffffffffff1673ffffffffffffffffffffffffffffffffffffffff168152602001908152602001600020819055508173ffffffffffffffffffffffffffffffffffffffff168373ffffffffffffffffffffffffffffffffffffffff167f8c5be1e5ebec7d5bd14f71427d1e84f3dd0314c0f7b2291e5b200ac8c7c3b92583604051610b4b9190611ce9565b60405180910390a3505050565b600073ffffffffffffffffffffffffffffffffffffffff168373ffffffffffffffffffffffffffffffffffffffff161415610bc8576040517f08c379a0000000000000000000000000000000000000000000000000000000008152600401610bbf90611c69565b60405180910390fd5b600073ffffffffffffffffffffffffffffffffffffffff168273ffffffffffffffffffffffffffffffffffffffff161415610c38576040517f08c379a0000000000000000000000000000000000000000000000000000000008152600401610c2f90611b29565b60405180910390fd5b610c4383838361130a565b60008060008573ffffffffffffffffffffffffffffffffffffffff1673ffffffffffffffffffffffffffffffffffffffff16815260200190815260200160002054905081811015610cc9576040517f08c379a0000000000000000000000000000000000000000000000000000000008152600401610cc090611be9565b60405180910390fd5b8181036000808673ffffffffffffffffffffffffffffffffffffffff1673ffffffffffffffffffffffffffffffffffffffff16815260200190815260200160002081905550816000808573ffffffffffffffffffffffffffffffffffffffff1673ffffffffffffffffffffffffffffffffffffffff1681526020019081526020016000206000828254610d5c9190611d72565b925050819055508273ffffffffffffffffffffffffffffffffffffffff168473ffffffffffffffffffffffffffffffffffffffff167fddf252ad1be2c89b69c2b068fc378daa952ba7f163c4a11628f55a4df523b3ef84604051610dc09190611ce9565b60405180910390a3610dd384848461130f565b50505050565b600073ffffffffffffffffffffffffffffffffffffffff168273ffffffffffffffffffffffffffffffffffffffff161415610e49576040517f08c379a0000000000000000000000000000000000000000000000000000000008152600401610e4090611cc9565b60405180910390fd5b610e556000838361130a565b8060026000828254610e679190611d72565b92505081905550806000808473ffffffffffffffffffffffffffffffffffffffff1673ffffffffffffffffffffffffffffffffffffffff1681526020019081526020016000206000828254610ebc9190611d72565b925050819055508173ffffffffffffffffffffffffffffffffffffffff16600073ffffffffffffffffffffffffffffffffffffffff167fddf252ad1be2c89b69c2b068fc378daa952ba7f163c4a11628f55a4df523b3ef83604051610f219190611ce9565b60405180910390a3610f356000838361130f565b5050565b60008111610f7c576040517f08c379a0000000000000000000000000000000000000000000000000000000008152600401610f7390611bc9565b60405180910390fd5b6000600660003373ffffffffffffffffffffffffffffffffffffffff1673ffffffffffffffffffffffffffffffffffffffff16815260200190815260200160002054905060004290506000821415610fda57610fd733611314565b91505b60058281548110611014577f4e487b7100000000000000000000000000000000000000000000000000000000600052603260045260246000fd5b906000526020600020906002020160010160405180606001604052803373ffffffffffffffffffffffffffffffffffffffff16815260200185815260200183815250908060018154018082558091505060019003906000526020600020906003020160009091909190915060008201518160000160006101000a81548173ffffffffffffffffffffffffffffffffffffffff021916908373ffffffffffffffffffffffffffffffffffffffff160217905550602082015181600101556040820151816002015550503373ffffffffffffffffffffffffffffffffffffffff167fb4caaf29adda3eefee3ad552a8e85058589bf834c7466cae4ee58787f70589ed84848460405161112693929190611d04565b60405180910390a2505050565b600073ffffffffffffffffffffffffffffffffffffffff168273ffffffffffffffffffffffffffffffffffffffff1614156111a3576040517f08c379a000000000000000000000000000000000000000000000000000000000815260040161119a90611c49565b60405180910390fd5b6111af8260008361130a565b60008060008473ffffffffffffffffffffffffffffffffffffffff1673ffffffffffffffffffffffffffffffffffffffff16815260200190815260200160002054905081811015611235576040517f08c379a000000000000000000000000000000000000000000000000000000000815260040161122c90611b69565b60405180910390fd5b8181036000808573ffffffffffffffffffffffffffffffffffffffff1673ffffffffffffffffffffffffffffffffffffffff16815260200190815260200160002081905550816002600082825461128c9190611dc8565b92505081905550600073ffffffffffffffffffffffffffffffffffffffff168373ffffffffffffffffffffffffffffffffffffffff167fddf252ad1be2c89b69c2b068fc378daa952ba7f163c4a11628f55a4df523b3ef846040516112f19190611ce9565b60405180910390a36113058360008461130f565b505050565b505050565b505050565b6000600560018160018154018082558091505003906000526020600020905050600060016005805490506113489190611dc8565b90508260058281548110611385577f4e487b7100000000000000000000000000000000000000000000000000000000600052603260045260246000fd5b906000526020600020906002020160000160006101000a81548173ffffffffffffffffffffffffffffffffffffffff021916908373ffffffffffffffffffffffffffffffffffffffff16021790555080600660008573ffffffffffffffffffffffffffffffffffffffff1673ffffffffffffffffffffffffffffffffffffffff1681526020019081526020016000208190555080915050919050565b60008135905061143081611f25565b92915050565b60008135905061144581611f3c565b92915050565b60006020828403121561145d57600080fd5b600061146b84828501611421565b91505092915050565b6000806040838503121561148757600080fd5b600061149585828601611421565b92505060206114a685828601611421565b9150509250929050565b6000806000606084860312156114c557600080fd5b60006114d386828701611421565b93505060206114e486828701611421565b92505060406114f586828701611436565b9150509250925092565b6000806040838503121561151257600080fd5b600061152085828601611421565b925050602061153185828601611436565b9150509250929050565b60006020828403121561154d57600080fd5b600061155b84828501611436565b91505092915050565b61156d81611e0e565b82525050565b600061157e82611d56565b6115888185611d61565b9350611598818560208601611e51565b6115a181611f14565b840191505092915050565b60006115b9602383611d61565b91507f45524332303a207472616e7366657220746f20746865207a65726f206164647260008301527f65737300000000000000000000000000000000000000000000000000000000006020830152604082019050919050565b600061161f603183611d61565b91507f596f7520646f6e2774206861766520656e6f75676820746f6b656e7320746f2060008301527f7374616b65207468617420616d6f756e740000000000000000000000000000006020830152604082019050919050565b6000611685602283611d61565b91507f45524332303a206275726e20616d6f756e7420657863656564732062616c616e60008301527f63650000000000000000000000000000000000000000000000000000000000006020830152604082019050919050565b60006116eb602283611d61565b91507f45524332303a20617070726f766520746f20746865207a65726f20616464726560008301527f73730000000000000000000000000000000000000000000000000000000000006020830152604082019050919050565b6000611751603d83611d61565b91507f43616e6e6f74207075726368617365206d6f7265207468616e2072656d61696e60008301527f696e6720756e6d696e74656420737570706c79206f66204855534b59210000006020830152604082019050919050565b60006117b7601e83611d61565b91507f416d6f756e742070726f76696465642063616e6e6f74206265203d3d203000006000830152602082019050919050565b60006117f7602683611d61565b91507f45524332303a207472616e7366657220616d6f756e742065786365656473206260008301527f616c616e636500000000000000000000000000000000000000000000000000006020830152604082019050919050565b600061185d602883611d61565b91507f45524332303a207472616e7366657220616d6f756e742065786365656473206160008301527f6c6c6f77616e63650000000000000000000000000000000000000000000000006020830152604082019050919050565b60006118c3601b83611d61565b91507f507572636861736520616d6f756e74206d757374206265203e203000000000006000830152602082019050919050565b6000611903602183611d61565b91507f45524332303a206275726e2066726f6d20746865207a65726f2061646472657360008301527f73000000000000000000000000000000000000000000000000000000000000006020830152604082019050919050565b6000611969602583611d61565b91507f45524332303a207472616e736665722066726f6d20746865207a65726f20616460008301527f64726573730000000000000000000000000000000000000000000000000000006020830152604082019050919050565b60006119cf602483611d61565b91507f45524332303a20617070726f76652066726f6d20746865207a65726f2061646460008301527f72657373000000000000000000000000000000000000000000000000000000006020830152604082019050919050565b6000611a35602583611d61565b91507f45524332303a2064656372656173656420616c6c6f77616e63652062656c6f7760008301527f207a65726f0000000000000000000000000000000000000000000000000000006020830152604082019050919050565b6000611a9b601f83611d61565b91507f45524332303a206d696e7420746f20746865207a65726f2061646472657373006000830152602082019050919050565b611ad781611e3a565b82525050565b611ae681611e44565b82525050565b6000602082019050611b016000830184611564565b92915050565b60006020820190508181036000830152611b218184611573565b905092915050565b60006020820190508181036000830152611b42816115ac565b9050919050565b60006020820190508181036000830152611b6281611612565b9050919050565b60006020820190508181036000830152611b8281611678565b9050919050565b60006020820190508181036000830152611ba2816116de565b9050919050565b60006020820190508181036000830152611bc281611744565b9050919050565b60006020820190508181036000830152611be2816117aa565b9050919050565b60006020820190508181036000830152611c02816117ea565b9050919050565b60006020820190508181036000830152611c2281611850565b9050919050565b60006020820190508181036000830152611c42816118b6565b9050919050565b60006020820190508181036000830152611c62816118f6565b9050919050565b60006020820190508181036000830152611c828161195c565b9050919050565b60006020820190508181036000830152611ca2816119c2565b9050919050565b60006020820190508181036000830152611cc281611a28565b9050919050565b60006020820190508181036000830152611ce281611a8e565b9050919050565b6000602082019050611cfe6000830184611ace565b92915050565b6000606082019050611d196000830186611ace565b611d266020830185611ace565b611d336040830184611ace565b949350505050565b6000602082019050611d506000830184611add565b92915050565b600081519050919050565b600082825260208201905092915050565b6000611d7d82611e3a565b9150611d8883611e3a565b9250827fffffffffffffffffffffffffffffffffffffffffffffffffffffffffffffffff03821115611dbd57611dbc611eb6565b5b828201905092915050565b6000611dd382611e3a565b9150611dde83611e3a565b925082821015611df157611df0611eb6565b5b828203905092915050565b6000611e0782611e1a565b9050919050565b60008115159050919050565b600073ffffffffffffffffffffffffffffffffffffffff82169050919050565b6000819050919050565b600060ff82169050919050565b60005b83811015611e6f578082015181840152602081019050611e54565b83811115611e7e576000848401525b50505050565b60006002820490506001821680611e9c57607f821691505b60208210811415611eb057611eaf611ee5565b5b50919050565b7f4e487b7100000000000000000000000000000000000000000000000000000000600052601160045260246000fd5b7f4e487b7100000000000000000000000000000000000000000000000000000000600052602260045260246000fd5b6000601f19601f8301169050919050565b611f2e81611dfc565b8114611f3957600080fd5b50565b611f4581611e3a565b8114611f5057600080fd5b5056fea2646970667358221220cb88b27c0bb5381392e87b3b288a3d70103119a771995148a6b826cc8875cbf364736f6c63430008000033",
  "linkReferences": {},
  "deployedLinkReferences": {}
}