{
  "_format": "hh-sol-artifact-1",
  "contractName": "HuskyCoin",
  "sourceName": "contracts/HuskyCoin.sol",
  "abi": [
    {
      "inputs": [],
      "stateMutability": "nonpayable",
      "type": "constructor"
    },
    {
      "anonymous": false,
      "inputs": [
        {
          "indexed": true,
          "internalType": "address",
          "name": "owner",
          "type": "address"
        },
        {
          "indexed": true,
          "internalType": "address",
          "name": "spender",
          "type": "address"
        },
        {
          "indexed": false,
          "internalType": "uint256",
          "name": "value",
          "type": "uint256"
        }
      ],
      "name": "Approval",
      "type": "event"
    },
    {
      "anonymous": false,
      "inputs": [
        {
          "indexed": true,
          "internalType": "address",
          "name": "user",
          "type": "address"
        },
        {
          "indexed": false,
          "internalType": "uint256",
          "name": "amount",
          "type": "uint256"
        },
        {
          "indexed": false,
          "internalType": "uint256",
          "name": "index",
          "type": "uint256"
        },
        {
          "indexed": false,
          "internalType": "uint256",
          "name": "timestamp",
          "type": "uint256"
        }
      ],
      "name": "Staked",
      "type": "event"
    },
    {
      "anonymous": false,
      "inputs": [
        {
          "indexed": true,
          "internalType": "address",
          "name": "from",
          "type": "address"
        },
        {
          "indexed": true,
          "internalType": "address",
          "name": "to",
          "type": "address"
        },
        {
          "indexed": false,
          "internalType": "uint256",
          "name": "value",
          "type": "uint256"
        }
      ],
      "name": "Transfer",
      "type": "event"
    },
    {
      "anonymous": false,
      "inputs": [
        {
          "indexed": true,
          "internalType": "address",
          "name": "user",
          "type": "address"
        },
        {
          "indexed": false,
          "internalType": "uint256",
          "name": "amount",
          "type": "uint256"
        },
        {
          "indexed": false,
          "internalType": "uint256",
          "name": "index",
          "type": "uint256"
        },
        {
          "indexed": false,
          "internalType": "uint256",
          "name": "timestamp",
          "type": "uint256"
        }
      ],
      "name": "Unstaked",
      "type": "event"
    },
    {
      "inputs": [
        {
          "internalType": "address",
          "name": "owner",
          "type": "address"
        },
        {
          "internalType": "address",
          "name": "spender",
          "type": "address"
        }
      ],
      "name": "allowance",
      "outputs": [
        {
          "internalType": "uint256",
          "name": "",
          "type": "uint256"
        }
      ],
      "stateMutability": "view",
      "type": "function"
    },
    {
      "inputs": [
        {
          "internalType": "address",
          "name": "spender",
          "type": "address"
        },
        {
          "internalType": "uint256",
          "name": "amount",
          "type": "uint256"
        }
      ],
      "name": "approve",
      "outputs": [
        {
          "internalType": "bool",
          "name": "",
          "type": "bool"
        }
      ],
      "stateMutability": "nonpayable",
      "type": "function"
    },
    {
      "inputs": [
        {
          "internalType": "address",
          "name": "account",
          "type": "address"
        }
      ],
      "name": "balanceOf",
      "outputs": [
        {
          "internalType": "uint256",
          "name": "",
          "type": "uint256"
        }
      ],
      "stateMutability": "view",
      "type": "function"
    },
    {
      "inputs": [],
      "name": "decimals",
      "outputs": [
        {
          "internalType": "uint8",
          "name": "",
          "type": "uint8"
        }
      ],
      "stateMutability": "view",
      "type": "function"
    },
    {
      "inputs": [
        {
          "internalType": "address",
          "name": "spender",
          "type": "address"
        },
        {
          "internalType": "uint256",
          "name": "subtractedValue",
          "type": "uint256"
        }
      ],
      "name": "decreaseAllowance",
      "outputs": [
        {
          "internalType": "bool",
          "name": "",
          "type": "bool"
        }
      ],
      "stateMutability": "nonpayable",
      "type": "function"
    },
    {
      "inputs": [],
      "name": "dispense",
      "outputs": [],
      "stateMutability": "payable",
      "type": "function"
    },
    {
      "inputs": [],
      "name": "getBalance",
      "outputs": [
        {
          "internalType": "uint256",
          "name": "",
          "type": "uint256"
        }
      ],
      "stateMutability": "view",
      "type": "function"
    },
    {
      "inputs": [],
      "name": "getStakeholderIndex",
      "outputs": [
        {
          "internalType": "uint256",
          "name": "",
          "type": "uint256"
        }
      ],
      "stateMutability": "view",
      "type": "function"
    },
    {
      "inputs": [
        {
          "internalType": "address",
          "name": "_staker",
          "type": "address"
        }
      ],
      "name": "hasStake",
      "outputs": [
        {
          "components": [
            {
              "internalType": "uint256",
              "name": "totalAmount",
              "type": "uint256"
            },
            {
              "components": [
                {
                  "internalType": "address",
                  "name": "user",
                  "type": "address"
                },
                {
                  "internalType": "uint256",
                  "name": "amount",
                  "type": "uint256"
                },
                {
                  "internalType": "uint256",
                  "name": "timeStamp",
                  "type": "uint256"
                },
                {
                  "internalType": "uint256",
                  "name": "claimable",
                  "type": "uint256"
                }
              ],
              "internalType": "struct Stakeable.Stake[]",
              "name": "stakes",
              "type": "tuple[]"
            }
          ],
          "internalType": "struct Stakeable.StakingSummary",
          "name": "",
          "type": "tuple"
        }
      ],
      "stateMutability": "view",
      "type": "function"
    },
    {
      "inputs": [
        {
          "internalType": "address",
          "name": "spender",
          "type": "address"
        },
        {
          "internalType": "uint256",
          "name": "addedValue",
          "type": "uint256"
        }
      ],
      "name": "increaseAllowance",
      "outputs": [
        {
          "internalType": "bool",
          "name": "",
          "type": "bool"
        }
      ],
      "stateMutability": "nonpayable",
      "type": "function"
    },
    {
      "inputs": [
        {
          "internalType": "address",
          "name": "recipient",
          "type": "address"
        },
        {
          "internalType": "uint256",
          "name": "amount",
          "type": "uint256"
        }
      ],
      "name": "mint",
      "outputs": [],
      "stateMutability": "nonpayable",
      "type": "function"
    },
    {
      "inputs": [],
      "name": "name",
      "outputs": [
        {
          "internalType": "string",
          "name": "",
          "type": "string"
        }
      ],
      "stateMutability": "view",
      "type": "function"
    },
    {
      "inputs": [],
      "name": "purchase",
      "outputs": [],
      "stateMutability": "payable",
      "type": "function"
    },
    {
      "inputs": [
        {
          "internalType": "uint256",
          "name": "_amount",
          "type": "uint256"
        }
      ],
      "name": "stake",
      "outputs": [],
      "stateMutability": "nonpayable",
      "type": "function"
    },
    {
      "inputs": [],
      "name": "symbol",
      "outputs": [
        {
          "internalType": "string",
          "name": "",
          "type": "string"
        }
      ],
      "stateMutability": "view",
      "type": "function"
    },
    {
      "inputs": [],
      "name": "totalSupply",
      "outputs": [
        {
          "internalType": "uint256",
          "name": "",
          "type": "uint256"
        }
      ],
      "stateMutability": "view",
      "type": "function"
    },
    {
      "inputs": [
        {
          "internalType": "address",
          "name": "recipient",
          "type": "address"
        },
        {
          "internalType": "uint256",
          "name": "amount",
          "type": "uint256"
        }
      ],
      "name": "transfer",
      "outputs": [
        {
          "internalType": "bool",
          "name": "",
          "type": "bool"
        }
      ],
      "stateMutability": "nonpayable",
      "type": "function"
    },
    {
      "inputs": [
        {
          "internalType": "address",
          "name": "sender",
          "type": "address"
        },
        {
          "internalType": "address",
          "name": "recipient",
          "type": "address"
        },
        {
          "internalType": "uint256",
          "name": "amount",
          "type": "uint256"
        }
      ],
      "name": "transferFrom",
      "outputs": [
        {
          "internalType": "bool",
          "name": "",
          "type": "bool"
        }
      ],
      "stateMutability": "nonpayable",
      "type": "function"
    },
    {
      "inputs": [
        {
          "internalType": "uint256",
          "name": "amount",
          "type": "uint256"
        },
        {
          "internalType": "uint256",
          "name": "stakeIndex",
          "type": "uint256"
        }
      ],
      "name": "withdraw",
      "outputs": [],
      "stateMutability": "nonpayable",
      "type": "function"
    }
  ],
  "bytecode": "0x60806040526103e86005553480156200001757600080fd5b506040805180820182526009815268243ab9b5bca1b7b4b760b91b6020808301918252835180850190945260058452644855534b5960d81b9084015281519192916200006691600391620001a5565b5080516200007c906004906020840190620001a5565b5050600680546001018155600052506b168532bdc48cb0ddb5840000600955620000b133690eb344079513a1300000620000b7565b620002ed565b620000c38282620000c7565b5050565b6001600160a01b038216620000f95760405162461bcd60e51b8152600401620000f0906200024b565b60405180910390fd5b6200010760008383620001a0565b80600260008282546200011b91906200028b565b90915550506001600160a01b038216600090815260208190526040812080548392906200014a9084906200028b565b90915550506040516001600160a01b038316906000907fddf252ad1be2c89b69c2b068fc378daa952ba7f163c4a11628f55a4df523b3ef906200018f90859062000282565b60405180910390a3620000c3600083835b505050565b828054620001b390620002b0565b90600052602060002090601f016020900481019282620001d7576000855562000222565b82601f10620001f257805160ff191683800117855562000222565b8280016001018555821562000222579182015b828111156200022257825182559160200191906001019062000205565b506200023092915062000234565b5090565b5b8082111562000230576000815560010162000235565b6020808252601f908201527f45524332303a206d696e7420746f20746865207a65726f206164647265737300604082015260600190565b90815260200190565b60008219821115620002ab57634e487b7160e01b81526011600452602481fd5b500190565b600281046001821680620002c557607f821691505b60208210811415620002e757634e487b7160e01b600052602260045260246000fd5b50919050565b6118ff80620002fd6000396000f3fe6080604052600436106101145760003560e01c806340c10f19116100a0578063a457c2d711610064578063a457c2d7146102a6578063a694fc3a146102c6578063a9059cbb146102e6578063dd62ed3e14610306578063e73e14bf1461032657610114565b806340c10f1914610229578063441a3e701461024957806364edfbf01461026957806370a082311461027157806395d89b411461029157610114565b806318160ddd116100e757806318160ddd1461019d57806323b872dd146101b25780632b71b072146101d2578063313ce567146101e7578063395093511461020957610114565b806306fdde0314610119578063095ea7b3146101445780630adb1a9a1461017157806312065fe01461017b575b600080fd5b34801561012557600080fd5b5061012e610353565b60405161013b9190611274565b60405180910390f35b34801561015057600080fd5b5061016461015f366004611207565b6103e5565b60405161013b9190611269565b610179610402565b005b34801561018757600080fd5b5061019061046a565b60405161013b91906117dd565b3480156101a957600080fd5b5061019061047a565b3480156101be57600080fd5b506101646101cd3660046111cc565b610480565b3480156101de57600080fd5b50610190610510565b3480156101f357600080fd5b506101fc610531565b60405161013b91906117fc565b34801561021557600080fd5b50610164610224366004611207565b610536565b34801561023557600080fd5b50610179610244366004611207565b61058a565b34801561025557600080fd5b50610179610264366004611248565b610594565b6101796105b1565b34801561027d57600080fd5b5061019061028c366004611179565b610618565b34801561029d57600080fd5b5061012e610637565b3480156102b257600080fd5b506101646102c1366004611207565b610646565b3480156102d257600080fd5b506101796102e1366004611230565b6106bf565b3480156102f257600080fd5b50610164610301366004611207565b6106fc565b34801561031257600080fd5b5061019061032136600461119a565b610710565b34801561033257600080fd5b50610346610341366004611179565b61073b565b60405161013b919061175d565b60606003805461036290611878565b80601f016020809104026020016040519081016040528092919081815260200182805461038e90611878565b80156103db5780601f106103b0576101008083540402835291602001916103db565b820191906000526020600020905b8154815290600101906020018083116103be57829003601f168201915b5050505050905090565b60006103f96103f2610917565b848461091b565b50600192915050565b600061040c61047a565b905060008160095461041e9190611861565b9050690eb344079513a130000081116104525760405162461bcd60e51b815260040161044990611584565b60405180910390fd5b61046633690eb344079513a13000006109cf565b5050565b600061047533610618565b905090565b60025490565b600061048d848484610a97565b6001600160a01b0384166000908152600160205260408120816104ae610917565b6001600160a01b03166001600160a01b03168152602001908152602001600020549050828110156104f15760405162461bcd60e51b815260040161044990611505565b610505856104fd610917565b85840361091b565b506001949350505050565b3360009081526007602052604081205461052b600182611861565b91505090565b601290565b60006103f9610543610917565b848460016000610551610917565b6001600160a01b03908116825260208083019390935260409182016000908120918b1681529252902054610585919061180a565b61091b565b61046682826109cf565b60006105a08383610bc1565b90506105ac33826109cf565b505050565b600034116105d15760405162461bcd60e51b81526004016104499061154d565b60006105db61047a565b90506000816009546105ed9190611861565b905080341061060e5760405162461bcd60e51b81526004016104499061142b565b61046633346109cf565b6001600160a01b0381166000908152602081905260409020545b919050565b60606004805461036290611878565b60008060016000610655610917565b6001600160a01b03908116825260208083019390935260409182016000908120918816815292529020549050828110156106a15760405162461bcd60e51b8152600401610449906116e1565b6106b56106ac610917565b8585840361091b565b5060019392505050565b6106c833610618565b81106106e65760405162461bcd60e51b81526004016104499061130a565b6106ef81610e6c565b6106f93382610f92565b50565b60006103f9610709610917565b8484610a97565b6001600160a01b03918216600090815260016020908152604080832093909416825291909152205490565b610743611148565b600080604051806040016040528060008152602001600660076000886001600160a01b03166001600160a01b03168152602001908152602001600020548154811061079e57634e487b7160e01b600052603260045260246000fd5b9060005260206000209060020201600101805480602002602001604051908101604052809291908181526020016000905b8282101561082c576000848152602090819020604080516080810182526004860290920180546001600160a01b031683526001808201548486015260028201549284019290925260030154606083015290835290920191016107cf565b505050915250905060005b81602001515181101561090d57600061087a8360200151838151811061086d57634e487b7160e01b600052603260045260246000fd5b6020026020010151611083565b905080836020015183815181106108a157634e487b7160e01b600052603260045260246000fd5b6020026020010151606001818152505080836020015183815181106108d657634e487b7160e01b600052603260045260246000fd5b602002602001015160200151856108ed919061180a565b6108f7919061180a565b9350610906905060018261180a565b9050610837565b5090815292915050565b3390565b6001600160a01b0383166109415760405162461bcd60e51b81526004016104499061169d565b6001600160a01b0382166109675760405162461bcd60e51b8152600401610449906113e9565b6001600160a01b0380841660008181526001602090815260408083209487168084529490915290819020849055517f8c5be1e5ebec7d5bd14f71427d1e84f3dd0314c0f7b2291e5b200ac8c7c3b925906109c29085906117dd565b60405180910390a3505050565b6001600160a01b0382166109f55760405162461bcd60e51b815260040161044990611726565b610a01600083836105ac565b8060026000828254610a13919061180a565b90915550506001600160a01b03821660009081526020819052604081208054839290610a4090849061180a565b90915550506040516001600160a01b038316906000907fddf252ad1be2c89b69c2b068fc378daa952ba7f163c4a11628f55a4df523b3ef90610a839085906117dd565b60405180910390a3610466600083836105ac565b6001600160a01b038316610abd5760405162461bcd60e51b815260040161044990611658565b6001600160a01b038216610ae35760405162461bcd60e51b8152600401610449906112c7565b610aee8383836105ac565b6001600160a01b03831660009081526020819052604090205481811015610b275760405162461bcd60e51b8152600401610449906114bf565b6001600160a01b03808516600090815260208190526040808220858503905591851681529081208054849290610b5e90849061180a565b92505081905550826001600160a01b0316846001600160a01b03167fddf252ad1be2c89b69c2b068fc378daa952ba7f163c4a11628f55a4df523b3ef84604051610ba891906117dd565b60405180910390a3610bbb8484846105ac565b50505050565b336000908152600760205260408120546006805483919083908110610bf657634e487b7160e01b600052603260045260246000fd5b90600052602060002090600202016001018481548110610c2657634e487b7160e01b600052603260045260246000fd5b600091825260209182902060408051608081018252600490930290910180546001600160a01b0316835260018101549383018490526002810154918301919091526003015460608201529150851115610c915760405162461bcd60e51b81526004016104499061135b565b426000610c9d83611083565b9050868360200151610caf9190611861565b60208401819052610d3f5760068481548110610cdb57634e487b7160e01b600052603260045260246000fd5b90600052602060002090600202016001018681548110610d0b57634e487b7160e01b600052603260045260246000fd5b60009182526020822060049091020180546001600160a01b0319168155600181018290556002810182905560030155610e12565b826020015160068581548110610d6557634e487b7160e01b600052603260045260246000fd5b90600052602060002090600202016001018781548110610d9557634e487b7160e01b600052603260045260246000fd5b9060005260206000209060040201600101819055504260068581548110610dcc57634e487b7160e01b600052603260045260246000fd5b90600052602060002090600202016001018781548110610dfc57634e487b7160e01b600052603260045260246000fd5b9060005260206000209060040201600201819055505b336001600160a01b03167f204fccf0d92ed8d48f204adb39b2e81e92bad0dedb93f5716ca9478cfb57de00888885604051610e4f939291906117e6565b60405180910390a2610e61818861180a565b979650505050505050565b60008111610e8c5760405162461bcd60e51b815260040161044990611488565b336000908152600760205260409020544281610eae57610eab336110c4565b91505b60068281548110610ecf57634e487b7160e01b600052603260045260246000fd5b6000918252602080832060408051608081018252338082528185018a8152828401898152606084018981526002988902909601600190810180548083018255908b52979099209351600490970290930180546001600160a01b0319166001600160a01b039097169690961786555196850196909655519383019390935551600390910155517fb4caaf29adda3eefee3ad552a8e85058589bf834c7466cae4ee58787f70589ed90610f85908690869086906117e6565b60405180910390a2505050565b6001600160a01b038216610fb85760405162461bcd60e51b815260040161044990611617565b610fc4826000836105ac565b6001600160a01b03821660009081526020819052604090205481811015610ffd5760405162461bcd60e51b8152600401610449906113a7565b6001600160a01b038316600090815260208190526040812083830390556002805484929061102c908490611861565b90915550506040516000906001600160a01b038516907fddf252ad1be2c89b69c2b068fc378daa952ba7f163c4a11628f55a4df523b3ef9061106f9086906117dd565b60405180910390a36105ac836000846105ac565b60006005548260200151610e108460400151426110a09190611861565b6110aa9190611822565b6110b49190611842565b6110be9190611822565b92915050565b600680546001908101808355600092835282916110e091611861565b9050826006828154811061110457634e487b7160e01b600052603260045260246000fd5b6000918252602080832060029290920290910180546001600160a01b0319166001600160a01b03948516179055949091168152600790935260409092208290555090565b604051806040016040528060008152602001606081525090565b80356001600160a01b038116811461063257600080fd5b60006020828403121561118a578081fd5b61119382611162565b9392505050565b600080604083850312156111ac578081fd5b6111b583611162565b91506111c360208401611162565b90509250929050565b6000806000606084860312156111e0578081fd5b6111e984611162565b92506111f760208501611162565b9150604084013590509250925092565b60008060408385031215611219578182fd5b61122283611162565b946020939093013593505050565b600060208284031215611241578081fd5b5035919050565b6000806040838503121561125a578182fd5b50508035926020909101359150565b901515815260200190565b6000602080835283518082850152825b818110156112a057858101830151858201604001528201611284565b818111156112b15783604083870101525b50601f01601f1916929092016040019392505050565b60208082526023908201527f45524332303a207472616e7366657220746f20746865207a65726f206164647260408201526265737360e81b606082015260800190565b60208082526031908201527f596f7520646f6e2774206861766520656e6f75676820746f6b656e7320746f206040820152701cdd185ad9481d1a185d08185b5bdd5b9d607a1b606082015260800190565b6020808252602c908201527f43616e6e6f7420756e7374616b65206d6f7265207468616e20796f757220737460408201526b616b65642062616c616e636560a01b606082015260800190565b60208082526022908201527f45524332303a206275726e20616d6f756e7420657863656564732062616c616e604082015261636560f01b606082015260800190565b60208082526022908201527f45524332303a20617070726f766520746f20746865207a65726f206164647265604082015261737360f01b606082015260800190565b6020808252603d908201527f43616e6e6f74207075726368617365206d6f7265207468616e2072656d61696e60408201527f696e6720756e6d696e74656420737570706c79206f66204855534b5921000000606082015260800190565b6020808252601e908201527f416d6f756e742070726f76696465642063616e6e6f74206265203d3d20300000604082015260600190565b60208082526026908201527f45524332303a207472616e7366657220616d6f756e7420657863656564732062604082015265616c616e636560d01b606082015260800190565b60208082526028908201527f45524332303a207472616e7366657220616d6f756e74206578636565647320616040820152676c6c6f77616e636560c01b606082015260800190565b6020808252601b908201527f507572636861736520616d6f756e74206d757374206265203e20300000000000604082015260600190565b60208082526067908201527f4d6178696d756d20737570706c79206f66204875736b79436f696e732068617360408201527f206265656e206d65742e20436f6e7461637420686f726e6f73657875616c2e6560608201527f746820616e642061736b2068696d20746f2073656e6420796f7520736f6d65206080820152661a5b9cdd19585960ca1b60a082015260c00190565b60208082526021908201527f45524332303a206275726e2066726f6d20746865207a65726f206164647265736040820152607360f81b606082015260800190565b60208082526025908201527f45524332303a207472616e736665722066726f6d20746865207a65726f206164604082015264647265737360d81b606082015260800190565b60208082526024908201527f45524332303a20617070726f76652066726f6d20746865207a65726f206164646040820152637265737360e01b606082015260800190565b60208082526025908201527f45524332303a2064656372656173656420616c6c6f77616e63652062656c6f77604082015264207a65726f60d81b606082015260800190565b6020808252601f908201527f45524332303a206d696e7420746f20746865207a65726f206164647265737300604082015260600190565b60006020808352606080840185518386015282860151604080818801528282518085526080945084890191508684019350875b818110156117ce57845180516001600160a01b0316845288810151898501528481015185850152870151878401529387019391850191600101611790565b50909998505050505050505050565b90815260200190565b9283526020830191909152604082015260600190565b60ff91909116815260200190565b6000821982111561181d5761181d6118b3565b500190565b60008261183d57634e487b7160e01b81526012600452602481fd5b500490565b600081600019048311821515161561185c5761185c6118b3565b500290565b600082821015611873576118736118b3565b500390565b60028104600182168061188c57607f821691505b602082108114156118ad57634e487b7160e01b600052602260045260246000fd5b50919050565b634e487b7160e01b600052601160045260246000fdfea264697066735822122095ddc206f07d505c62d62394be6712a3600ac061600221add67490741f663ba364736f6c63430008000033",
  "linkReferences": {},
  "deployedLinkReferences": {}
}